{
  "contractName": "Ownable",
  "abi": [
    {
      "inputs": [],
      "stateMutability": "nonpayable",
      "type": "constructor"
    },
    {
      "inputs": [],
      "name": "_owner",
      "outputs": [
        {
          "internalType": "address",
          "name": "",
          "type": "address"
        }
      ],
      "stateMutability": "view",
      "type": "function"
    },
    {
      "inputs": [],
      "name": "isOwner",
      "outputs": [
        {
          "internalType": "bool",
          "name": "",
          "type": "bool"
        }
      ],
      "stateMutability": "view",
      "type": "function"
    }
  ],
  "bytecode": "0x608060405234801561001057600080fd5b50336000806101000a81548173ffffffffffffffffffffffffffffffffffffffff021916908373ffffffffffffffffffffffffffffffffffffffff1602179055506101ba806100606000396000f3fe608060405234801561001057600080fd5b50600436106100365760003560e01c80638f32d59b1461003b578063b2bdfa7b14610059575b600080fd5b610043610077565b604051610050919061010d565b60405180910390f35b6100616100ce565b60405161006e9190610169565b60405180910390f35b60008060009054906101000a900473ffffffffffffffffffffffffffffffffffffffff1673ffffffffffffffffffffffffffffffffffffffff163373ffffffffffffffffffffffffffffffffffffffff1614905090565b60008054906101000a900473ffffffffffffffffffffffffffffffffffffffff1681565b60008115159050919050565b610107816100f2565b82525050565b600060208201905061012260008301846100fe565b92915050565b600073ffffffffffffffffffffffffffffffffffffffff82169050919050565b600061015382610128565b9050919050565b61016381610148565b82525050565b600060208201905061017e600083018461015a565b9291505056fea26469706673582212209ad911413d487824a4cb3b0549f8ceba4db192ea0fcf4bf795ae0508ab55db0964736f6c63430008090033",
  "immutableReferences": {},
  "source": "// SPDX-License-Identifier: MIT\npragma solidity ^0.8.6;\n\ncontract Ownable {\n    address public _owner;\n    \n    constructor() public {\n        _owner = msg.sender;\n    }\n    \n    modifier onlyOwner() {\n        require(isOwner(),\"You are not the Owner!!\");\n        _;\n    }\n    \n    function isOwner() public view returns(bool) {\n        return (msg.sender == _owner);\n    }\n}\n",
  "sourcePath": "/home/siva/Documents/work-git-new/BlockChain/eth-item-shopping-react-ui/contracts/Ownable.sol",
  "compiler": {
    "name": "solc",
    "version": "0.8.9+commit.e5eed63a.Emscripten.clang"
  },
  "schemaVersion": "3.4.3",
  "updatedAt": "2021-10-31T17:28:40.530Z",
  "devdoc": {
    "kind": "dev",
    "methods": {},
    "version": 1
  },
  "userdoc": {
    "kind": "user",
    "methods": {},
    "version": 1
  }
}