{
	"data": {
		"bytecode": {
			"linkReferences": {},
			"object": "60806040526017600055601760015534801561001a57600080fd5b506101cf8061002a6000396000f3fe608060405234801561001057600080fd5b506004361061002b5760003560e01c8063706f4c9e14610030575b600080fd5b61003861003a565b005b7f695a9e8aa4a54f62feafe2a96f107e287ede90c04f975155faf83eacbb68d27c604051610067906100f6565b60405180910390a1610077610079565b565b7f695a9e8aa4a54f62feafe2a96f107e287ede90c04f975155faf83eacbb68d27c6040516100a690610116565b60405180910390a1565b60006100bd600683610136565b91506100c882610147565b602082019050919050565b60006100e0600683610136565b91506100eb82610170565b602082019050919050565b6000602082019050818103600083015261010f816100b0565b9050919050565b6000602082019050818103600083015261012f816100d3565b9050919050565b600082825260208201905092915050565b7f66726f6d20430000000000000000000000000000000000000000000000000000600082015250565b7f66726f6d2041000000000000000000000000000000000000000000000000000060008201525056fea264697066735822122084882707b6113f992b4e9dd32ff1c3ccc71d097bc53b657d3d43bc350b9a2b2f64736f6c63430008070033",
			"opcodes": "PUSH1 0x80 PUSH1 0x40 MSTORE PUSH1 0x17 PUSH1 0x0 SSTORE PUSH1 0x17 PUSH1 0x1 SSTORE CALLVALUE DUP1 ISZERO PUSH2 0x1A JUMPI PUSH1 0x0 DUP1 REVERT JUMPDEST POP PUSH2 0x1CF DUP1 PUSH2 0x2A PUSH1 0x0 CODECOPY PUSH1 0x0 RETURN INVALID PUSH1 0x80 PUSH1 0x40 MSTORE CALLVALUE DUP1 ISZERO PUSH2 0x10 JUMPI PUSH1 0x0 DUP1 REVERT JUMPDEST POP PUSH1 0x4 CALLDATASIZE LT PUSH2 0x2B JUMPI PUSH1 0x0 CALLDATALOAD PUSH1 0xE0 SHR DUP1 PUSH4 0x706F4C9E EQ PUSH2 0x30 JUMPI JUMPDEST PUSH1 0x0 DUP1 REVERT JUMPDEST PUSH2 0x38 PUSH2 0x3A JUMP JUMPDEST STOP JUMPDEST PUSH32 0x695A9E8AA4A54F62FEAFE2A96F107E287EDE90C04F975155FAF83EACBB68D27C PUSH1 0x40 MLOAD PUSH2 0x67 SWAP1 PUSH2 0xF6 JUMP JUMPDEST PUSH1 0x40 MLOAD DUP1 SWAP2 SUB SWAP1 LOG1 PUSH2 0x77 PUSH2 0x79 JUMP JUMPDEST JUMP JUMPDEST PUSH32 0x695A9E8AA4A54F62FEAFE2A96F107E287EDE90C04F975155FAF83EACBB68D27C PUSH1 0x40 MLOAD PUSH2 0xA6 SWAP1 PUSH2 0x116 JUMP JUMPDEST PUSH1 0x40 MLOAD DUP1 SWAP2 SUB SWAP1 LOG1 JUMP JUMPDEST PUSH1 0x0 PUSH2 0xBD PUSH1 0x6 DUP4 PUSH2 0x136 JUMP JUMPDEST SWAP2 POP PUSH2 0xC8 DUP3 PUSH2 0x147 JUMP JUMPDEST PUSH1 0x20 DUP3 ADD SWAP1 POP SWAP2 SWAP1 POP JUMP JUMPDEST PUSH1 0x0 PUSH2 0xE0 PUSH1 0x6 DUP4 PUSH2 0x136 JUMP JUMPDEST SWAP2 POP PUSH2 0xEB DUP3 PUSH2 0x170 JUMP JUMPDEST PUSH1 0x20 DUP3 ADD SWAP1 POP SWAP2 SWAP1 POP JUMP JUMPDEST PUSH1 0x0 PUSH1 0x20 DUP3 ADD SWAP1 POP DUP2 DUP2 SUB PUSH1 0x0 DUP4 ADD MSTORE PUSH2 0x10F DUP2 PUSH2 0xB0 JUMP JUMPDEST SWAP1 POP SWAP2 SWAP1 POP JUMP JUMPDEST PUSH1 0x0 PUSH1 0x20 DUP3 ADD SWAP1 POP DUP2 DUP2 SUB PUSH1 0x0 DUP4 ADD MSTORE PUSH2 0x12F DUP2 PUSH2 0xD3 JUMP JUMPDEST SWAP1 POP SWAP2 SWAP1 POP JUMP JUMPDEST PUSH1 0x0 DUP3 DUP3 MSTORE PUSH1 0x20 DUP3 ADD SWAP1 POP SWAP3 SWAP2 POP POP JUMP JUMPDEST PUSH32 0x66726F6D20430000000000000000000000000000000000000000000000000000 PUSH1 0x0 DUP3 ADD MSTORE POP JUMP JUMPDEST PUSH32 0x66726F6D20410000000000000000000000000000000000000000000000000000 PUSH1 0x0 DUP3 ADD MSTORE POP JUMP INVALID LOG2 PUSH5 0x6970667358 0x22 SLT KECCAK256 DUP5 DUP9 0x27 SMOD 0xB6 GT EXTCODEHASH SWAP10 0x2B 0x4E SWAP14 0xD3 0x2F CALL 0xC3 0xCC 0xC7 SAR MULMOD PUSH28 0xC53B657D3D43BC350B9A2B2F64736F6C634300080700330000000000 "
		},
		"gasEstimates": {
			"creation": {
				"codeDepositCost": "92600",
				"executionCost": "44353",
				"totalCost": "136953"
			},
			"external": {
				"funcA()": "infinite"
			}
		},
		"methodIdentifiers": {
			"funcA()": "706f4c9e"
		}
	},
	"abi": [
		{
			"anonymous": false,
			"inputs": [
				{
					"indexed": false,
					"internalType": "string",
					"name": "_mystring",
					"type": "string"
				}
			],
			"name": "MyEvent",
			"type": "event"
		},
		{
			"inputs": [],
			"name": "funcA",
			"outputs": [],
			"stateMutability": "nonpayable",
			"type": "function"
		}
	]
}