{
	"data": {
		"bytecode": {
			"linkReferences": {},
			"object": "608060405234801561001057600080fd5b50610241806100206000396000f3fe608060405234801561001057600080fd5b50600436106100415760003560e01c8063085db7e814610046578063613e286514610050578063b0de72db1461005a575b600080fd5b61004e610064565b005b6100586100a7565b005b6100626100e2565b005b60006100a5576040517f08c379a000000000000000000000000000000000000000000000000000000000815260040161009c90610159565b60405180910390fd5b565b6040517f08c379a00000000000000000000000000000000000000000000000000000000081526004016100d990610139565b60405180910390fd5b60006100f1576100f061018a565b5b565b6000610100601a83610179565b915061010b826101b9565b602082019050919050565b6000610123601783610179565b915061012e826101e2565b602082019050919050565b60006020820190508181036000830152610152816100f3565b9050919050565b6000602082019050818103600083015261017281610116565b9050919050565b600082825260208201905092915050565b7f4e487b7100000000000000000000000000000000000000000000000000000000600052600160045260246000fd5b7f4572726f722066726f6d205265766572742046756e6374696f6e000000000000600082015250565b7f5468697320697320616e204572726f7220537472696e6700000000000000000060008201525056fea2646970667358221220c71a3f4a593b146aef290e076b28fa8040dbe8adfa0c29972bc5b4a24a096a1b64736f6c63430008070033",
			"opcodes": "PUSH1 0x80 PUSH1 0x40 MSTORE CALLVALUE DUP1 ISZERO PUSH2 0x10 JUMPI PUSH1 0x0 DUP1 REVERT JUMPDEST POP PUSH2 0x241 DUP1 PUSH2 0x20 PUSH1 0x0 CODECOPY PUSH1 0x0 RETURN INVALID PUSH1 0x80 PUSH1 0x40 MSTORE CALLVALUE DUP1 ISZERO PUSH2 0x10 JUMPI PUSH1 0x0 DUP1 REVERT JUMPDEST POP PUSH1 0x4 CALLDATASIZE LT PUSH2 0x41 JUMPI PUSH1 0x0 CALLDATALOAD PUSH1 0xE0 SHR DUP1 PUSH4 0x85DB7E8 EQ PUSH2 0x46 JUMPI DUP1 PUSH4 0x613E2865 EQ PUSH2 0x50 JUMPI DUP1 PUSH4 0xB0DE72DB EQ PUSH2 0x5A JUMPI JUMPDEST PUSH1 0x0 DUP1 REVERT JUMPDEST PUSH2 0x4E PUSH2 0x64 JUMP JUMPDEST STOP JUMPDEST PUSH2 0x58 PUSH2 0xA7 JUMP JUMPDEST STOP JUMPDEST PUSH2 0x62 PUSH2 0xE2 JUMP JUMPDEST STOP JUMPDEST PUSH1 0x0 PUSH2 0xA5 JUMPI PUSH1 0x40 MLOAD PUSH32 0x8C379A000000000000000000000000000000000000000000000000000000000 DUP2 MSTORE PUSH1 0x4 ADD PUSH2 0x9C SWAP1 PUSH2 0x159 JUMP JUMPDEST PUSH1 0x40 MLOAD DUP1 SWAP2 SUB SWAP1 REVERT JUMPDEST JUMP JUMPDEST PUSH1 0x40 MLOAD PUSH32 0x8C379A000000000000000000000000000000000000000000000000000000000 DUP2 MSTORE PUSH1 0x4 ADD PUSH2 0xD9 SWAP1 PUSH2 0x139 JUMP JUMPDEST PUSH1 0x40 MLOAD DUP1 SWAP2 SUB SWAP1 REVERT JUMPDEST PUSH1 0x0 PUSH2 0xF1 JUMPI PUSH2 0xF0 PUSH2 0x18A JUMP JUMPDEST JUMPDEST JUMP JUMPDEST PUSH1 0x0 PUSH2 0x100 PUSH1 0x1A DUP4 PUSH2 0x179 JUMP JUMPDEST SWAP2 POP PUSH2 0x10B DUP3 PUSH2 0x1B9 JUMP JUMPDEST PUSH1 0x20 DUP3 ADD SWAP1 POP SWAP2 SWAP1 POP JUMP JUMPDEST PUSH1 0x0 PUSH2 0x123 PUSH1 0x17 DUP4 PUSH2 0x179 JUMP JUMPDEST SWAP2 POP PUSH2 0x12E DUP3 PUSH2 0x1E2 JUMP JUMPDEST PUSH1 0x20 DUP3 ADD SWAP1 POP SWAP2 SWAP1 POP JUMP JUMPDEST PUSH1 0x0 PUSH1 0x20 DUP3 ADD SWAP1 POP DUP2 DUP2 SUB PUSH1 0x0 DUP4 ADD MSTORE PUSH2 0x152 DUP2 PUSH2 0xF3 JUMP JUMPDEST SWAP1 POP SWAP2 SWAP1 POP JUMP JUMPDEST PUSH1 0x0 PUSH1 0x20 DUP3 ADD SWAP1 POP DUP2 DUP2 SUB PUSH1 0x0 DUP4 ADD MSTORE PUSH2 0x172 DUP2 PUSH2 0x116 JUMP JUMPDEST SWAP1 POP SWAP2 SWAP1 POP JUMP JUMPDEST PUSH1 0x0 DUP3 DUP3 MSTORE PUSH1 0x20 DUP3 ADD SWAP1 POP SWAP3 SWAP2 POP POP JUMP JUMPDEST PUSH32 0x4E487B7100000000000000000000000000000000000000000000000000000000 PUSH1 0x0 MSTORE PUSH1 0x1 PUSH1 0x4 MSTORE PUSH1 0x24 PUSH1 0x0 REVERT JUMPDEST PUSH32 0x4572726F722066726F6D205265766572742046756E6374696F6E000000000000 PUSH1 0x0 DUP3 ADD MSTORE POP JUMP JUMPDEST PUSH32 0x5468697320697320616E204572726F7220537472696E67000000000000000000 PUSH1 0x0 DUP3 ADD MSTORE POP JUMP INVALID LOG2 PUSH5 0x6970667358 0x22 SLT KECCAK256 0xC7 BYTE EXTCODEHASH 0x4A MSIZE EXTCODESIZE EQ PUSH11 0xEF290E076B28FA8040DBE8 0xAD STATICCALL 0xC 0x29 SWAP8 0x2B 0xC5 0xB4 LOG2 0x4A MULMOD PUSH11 0x1B64736F6C634300080700 CALLER "
		},
		"gasEstimates": {
			"creation": {
				"codeDepositCost": "115400",
				"executionCost": "165",
				"totalCost": "115565"
			},
			"external": {
				"funARequireFailure()": "428",
				"funBRevertFailure()": "434",
				"funCAssertFailure()": "212"
			}
		},
		"methodIdentifiers": {
			"funARequireFailure()": "085db7e8",
			"funBRevertFailure()": "613e2865",
			"funCAssertFailure()": "b0de72db"
		}
	},
	"abi": [
		{
			"inputs": [],
			"name": "funARequireFailure",
			"outputs": [],
			"stateMutability": "pure",
			"type": "function"
		},
		{
			"inputs": [],
			"name": "funBRevertFailure",
			"outputs": [],
			"stateMutability": "pure",
			"type": "function"
		},
		{
			"inputs": [],
			"name": "funCAssertFailure",
			"outputs": [],
			"stateMutability": "pure",
			"type": "function"
		}
	]
}