{
  "contractName": "Lottery",
  "abi": [
    {
      "inputs": [],
      "stateMutability": "nonpayable",
      "type": "constructor"
    },
    {
      "inputs": [],
      "name": "manager",
      "outputs": [
        {
          "internalType": "address",
          "name": "",
          "type": "address"
        }
      ],
      "stateMutability": "view",
      "type": "function",
      "constant": true
    },
    {
      "inputs": [],
      "name": "enter",
      "outputs": [],
      "stateMutability": "payable",
      "type": "function",
      "payable": true
    },
    {
      "inputs": [],
      "name": "pickWinner",
      "outputs": [],
      "stateMutability": "nonpayable",
      "type": "function"
    },
    {
      "inputs": [],
      "name": "getPlayers",
      "outputs": [
        {
          "internalType": "address payable[]",
          "name": "",
          "type": "address[]"
        }
      ],
      "stateMutability": "view",
      "type": "function",
      "constant": true
    }
  ],
  "bytecode": "0x608060405234801561001057600080fd5b50336000806101000a81548173ffffffffffffffffffffffffffffffffffffffff021916908373ffffffffffffffffffffffffffffffffffffffff1602179055506109e8806100606000396000f3fe60806040526004361061003f5760003560e01c8063481c6a75146100445780635d495aea1461006f5780638b5b9ccc14610086578063e97dcb62146100b1575b600080fd5b34801561005057600080fd5b506100596100bb565b604051610066919061057c565b60405180910390f35b34801561007b57600080fd5b506100846100df565b005b34801561009257600080fd5b5061009b610294565b6040516100a89190610667565b60405180910390f35b6100b96103b0565b005b60008054906101000a900473ffffffffffffffffffffffffffffffffffffffff1681565b3373ffffffffffffffffffffffffffffffffffffffff1660008054906101000a900473ffffffffffffffffffffffffffffffffffffffff1673ffffffffffffffffffffffffffffffffffffffff161461016d576040517f08c379a0000000000000000000000000000000000000000000000000000000008152600401610164906106e6565b60405180910390fd5b600060018054905061017d61045e565b610187919061073f565b905060006001828154811061019f5761019e610770565b5b9060005260206000200160009054906101000a900473ffffffffffffffffffffffffffffffffffffffff16905060003090508173ffffffffffffffffffffffffffffffffffffffff166108fc8273ffffffffffffffffffffffffffffffffffffffff16319081150290604051600060405180830381858888f1935050505015801561022e573d6000803e3d6000fd5b50600067ffffffffffffffff81111561024a5761024961079f565b5b6040519080825280602002602001820160405280156102785781602001602082028036833780820191505090505b506001908051906020019061028e929190610494565b50505050565b60603373ffffffffffffffffffffffffffffffffffffffff1660008054906101000a900473ffffffffffffffffffffffffffffffffffffffff1673ffffffffffffffffffffffffffffffffffffffff1614610324576040517f08c379a000000000000000000000000000000000000000000000000000000000815260040161031b906106e6565b60405180910390fd5b60018054806020026020016040519081016040528092919081815260200182805480156103a657602002820191906000526020600020905b8160009054906101000a900473ffffffffffffffffffffffffffffffffffffffff1673ffffffffffffffffffffffffffffffffffffffff168152602001906001019080831161035c575b5050505050905090565b662386f26fc1000034116103f9576040517f08c379a00000000000000000000000000000000000000000000000000000000081526004016103f09061081a565b60405180910390fd5b6001339080600181540180825580915050600190039060005260206000200160009091909190916101000a81548173ffffffffffffffffffffffffffffffffffffffff021916908373ffffffffffffffffffffffffffffffffffffffff160217905550565b60004442600160405160200161047693929190610979565b6040516020818303038152906040528051906020012060001c905090565b82805482825590600052602060002090810192821561050d579160200282015b8281111561050c5782518260006101000a81548173ffffffffffffffffffffffffffffffffffffffff021916908373ffffffffffffffffffffffffffffffffffffffff160217905550916020019190600101906104b4565b5b50905061051a919061051e565b5090565b5b8082111561053757600081600090555060010161051f565b5090565b600073ffffffffffffffffffffffffffffffffffffffff82169050919050565b60006105668261053b565b9050919050565b6105768161055b565b82525050565b6000602082019050610591600083018461056d565b92915050565b600081519050919050565b600082825260208201905092915050565b6000819050602082019050919050565b60006105ce8261053b565b9050919050565b6105de816105c3565b82525050565b60006105f083836105d5565b60208301905092915050565b6000602082019050919050565b600061061482610597565b61061e81856105a2565b9350610629836105b3565b8060005b8381101561065a57815161064188826105e4565b975061064c836105fc565b92505060018101905061062d565b5085935050505092915050565b600060208201905081810360008301526106818184610609565b905092915050565b600082825260208201905092915050565b7f4f6e6c79204d616e616765722063616e207069636b207468652077696e6e6572600082015250565b60006106d0602083610689565b91506106db8261069a565b602082019050919050565b600060208201905081810360008301526106ff816106c3565b9050919050565b6000819050919050565b7f4e487b7100000000000000000000000000000000000000000000000000000000600052601260045260246000fd5b600061074a82610706565b915061075583610706565b92508261076557610764610710565b5b828206905092915050565b7f4e487b7100000000000000000000000000000000000000000000000000000000600052603260045260246000fd5b7f4e487b7100000000000000000000000000000000000000000000000000000000600052604160045260246000fd5b7f4d7573742068617665206174206c6561737420302e3031206574686572000000600082015250565b6000610804601d83610689565b915061080f826107ce565b602082019050919050565b60006020820190508181036000830152610833816107f7565b9050919050565b6000819050919050565b61085561085082610706565b61083a565b82525050565b600081549050919050565b600081905092915050565b60008190508160005260206000209050919050565b61088f816105c3565b82525050565b60006108a18383610886565b60208301905092915050565b60008160001c9050919050565b600073ffffffffffffffffffffffffffffffffffffffff82169050919050565b60006108ed6108e8836108ad565b6108ba565b9050919050565b600061090082546108da565b9050919050565b6000600182019050919050565b600061091f8261085b565b6109298185610866565b935061093483610871565b8060005b8381101561096c57610949826108f4565b6109538882610895565b975061095e83610907565b925050600181019050610938565b5085935050505092915050565b60006109858286610844565b6020820191506109958285610844565b6020820191506109a58284610914565b915081905094935050505056fea2646970667358221220f7f4435973e24796a2fab0dcd2913553cd0406d50ae6d5bcc65edb9f0fe3c88e64736f6c634300080b0033",
  "immutableReferences": {},
  "source": "// SPDX-License-Identifier: MIT\npragma solidity ^0.8.6;\n\ncontract Lottery {\n    address public manager;\n\n    address payable[] private players;\n\n    constructor() {\n        manager = msg.sender;\n    }\n\n    function enter() public payable {\n        require(msg.value > .01 ether, \"Must have at least 0.01 ether\");\n        \n        players.push(payable(msg.sender));\n    }\n\n    function pickWinner() public restricted {\n        uint index = random() % players.length;\n        address payable winner = payable(address(players[index]));\n        address contest = address(this);\n        winner.transfer(contest.balance);\n        players = new address payable[](0);\n    }\n    \n    function getPlayers() public restricted view returns (address payable[] memory) {\n        return players;\n    }\n    \n    function random() private view returns (uint) {\n        return uint(keccak256(abi.encodePacked(block.difficulty, block.timestamp, players)));\n    }\n    \n    modifier restricted() {\n        require(manager == msg.sender, \"Only Manager can pick the winner\");\n        _;\n    }\n\n\n}",
  "sourcePath": "/home/siva/Documents/work-git-new/BlockChain/eth-hw-students-marks-react-ui/contracts/Lottery.sol",
  "compiler": {
    "name": "solc",
    "version": "0.8.11+commit.d7f03943.Emscripten.clang"
  },
  "schemaVersion": "3.4.3",
  "updatedAt": "2022-01-16T13:25:06.672Z",
  "networkType": "ethereum",
  "devdoc": {
    "kind": "dev",
    "methods": {},
    "version": 1
  },
  "userdoc": {
    "kind": "user",
    "methods": {},
    "version": 1
  }
}