{
  "contractName": "Mark",
  "abi": [
    {
      "inputs": [
        {
          "internalType": "string",
          "name": "_subject",
          "type": "string"
        },
        {
          "internalType": "uint256",
          "name": "_marks",
          "type": "uint256"
        }
      ],
      "stateMutability": "nonpayable",
      "type": "constructor"
    },
    {
      "inputs": [],
      "name": "marks",
      "outputs": [
        {
          "internalType": "uint256",
          "name": "",
          "type": "uint256"
        }
      ],
      "stateMutability": "view",
      "type": "function"
    },
    {
      "inputs": [],
      "name": "subject",
      "outputs": [
        {
          "internalType": "string",
          "name": "",
          "type": "string"
        }
      ],
      "stateMutability": "view",
      "type": "function"
    },
    {
      "inputs": [],
      "name": "getCGPA",
      "outputs": [
        {
          "internalType": "uint256",
          "name": "",
          "type": "uint256"
        }
      ],
      "stateMutability": "nonpayable",
      "type": "function"
    }
  ],
  "bytecode": "0x608060405234801561001057600080fd5b506040516106aa3803806106aa833981810160405281019061003291906102ae565b8160009080519060200190610048929190610057565b5080600181905550505061036b565b82805461006390610339565b90600052602060002090601f01602090048101928261008557600085556100cc565b82601f1061009e57805160ff19168380011785556100cc565b828001600101855582156100cc579182015b828111156100cb5782518255916020019190600101906100b0565b5b5090506100d991906100dd565b5090565b5b808211156100f65760008160009055506001016100de565b5090565b6000604051905090565b600080fd5b600080fd5b600080fd5b600080fd5b6000601f19601f8301169050919050565b7f4e487b7100000000000000000000000000000000000000000000000000000000600052604160045260246000fd5b61016182610118565b810181811067ffffffffffffffff821117156101805761017f610129565b5b80604052505050565b60006101936100fa565b905061019f8282610158565b919050565b600067ffffffffffffffff8211156101bf576101be610129565b5b6101c882610118565b9050602081019050919050565b60005b838110156101f35780820151818401526020810190506101d8565b83811115610202576000848401525b50505050565b600061021b610216846101a4565b610189565b90508281526020810184848401111561023757610236610113565b5b6102428482856101d5565b509392505050565b600082601f83011261025f5761025e61010e565b5b815161026f848260208601610208565b91505092915050565b6000819050919050565b61028b81610278565b811461029657600080fd5b50565b6000815190506102a881610282565b92915050565b600080604083850312156102c5576102c4610104565b5b600083015167ffffffffffffffff8111156102e3576102e2610109565b5b6102ef8582860161024a565b925050602061030085828601610299565b9150509250929050565b7f4e487b7100000000000000000000000000000000000000000000000000000000600052602260045260246000fd5b6000600282049050600182168061035157607f821691505b602082108114156103655761036461030a565b5b50919050565b6103308061037a6000396000f3fe608060405234801561001057600080fd5b50600436106100415760003560e01c8063097ac533146100465780630a59a98c146100645780633c84c5a514610082575b600080fd5b61004e6100a0565b60405161005b9190610163565b60405180910390f35b61006c6100b6565b6040516100799190610217565b60405180910390f35b61008a610144565b6040516100979190610163565b60405180910390f35b600060646001546100b19190610268565b905090565b600080546100c3906102c8565b80601f01602080910402602001604051908101604052809291908181526020018280546100ef906102c8565b801561013c5780601f106101115761010080835404028352916020019161013c565b820191906000526020600020905b81548152906001019060200180831161011f57829003601f168201915b505050505081565b60015481565b6000819050919050565b61015d8161014a565b82525050565b60006020820190506101786000830184610154565b92915050565b600081519050919050565b600082825260208201905092915050565b60005b838110156101b857808201518184015260208101905061019d565b838111156101c7576000848401525b50505050565b6000601f19601f8301169050919050565b60006101e98261017e565b6101f38185610189565b935061020381856020860161019a565b61020c816101cd565b840191505092915050565b6000602082019050818103600083015261023181846101de565b905092915050565b7f4e487b7100000000000000000000000000000000000000000000000000000000600052601260045260246000fd5b60006102738261014a565b915061027e8361014a565b92508261028e5761028d610239565b5b828204905092915050565b7f4e487b7100000000000000000000000000000000000000000000000000000000600052602260045260246000fd5b600060028204905060018216806102e057607f821691505b602082108114156102f4576102f3610299565b5b5091905056fea26469706673582212207c2ab4e4f5018e2364b1896bb0cd8755d382739d86a87ecad51648d34e8a661364736f6c634300080a0033",
  "immutableReferences": {},
  "source": "// SPDX-License-Identifier: MIT\npragma solidity ^0.8.6;\n\n\ncontract Mark {\n\n\n    string public subject;\n    uint public marks;\n\n\n    constructor(string memory _subject,uint _marks) {\n        subject = _subject;\n        marks = _marks;\n    }\n\n    function getCGPA() public returns(uint) {\n        return marks/100;\n    }    \n\n\n}\n",
  "sourcePath": "/home/siva/Documents/work-git-new/BlockChain/eth-hw-students-marks-react-ui/contracts/Mark.sol",
  "compiler": {
    "name": "solc",
    "version": "0.8.10+commit.fc410830.Emscripten.clang"
  },
  "schemaVersion": "3.4.3",
  "updatedAt": "2021-11-27T06:17:09.479Z",
  "devdoc": {
    "kind": "dev",
    "methods": {},
    "version": 1
  },
  "userdoc": {
    "kind": "user",
    "methods": {},
    "version": 1
  }
}