{
  "contractName": "StudentManager",
  "abi": [
    {
      "anonymous": false,
      "inputs": [
        {
          "indexed": false,
          "internalType": "contract Mark",
          "name": "mrk",
          "type": "address"
        }
      ],
      "name": "MarksEvent",
      "type": "event"
    },
    {
      "anonymous": false,
      "inputs": [
        {
          "indexed": false,
          "internalType": "uint256",
          "name": "_itemIndex",
          "type": "uint256"
        },
        {
          "indexed": false,
          "internalType": "uint256",
          "name": "_grade",
          "type": "uint256"
        },
        {
          "indexed": false,
          "internalType": "address",
          "name": "_stuAddress",
          "type": "address"
        }
      ],
      "name": "StudentChainStep",
      "type": "event"
    },
    {
      "anonymous": false,
      "inputs": [
        {
          "indexed": false,
          "internalType": "uint256",
          "name": "_idx",
          "type": "uint256"
        },
        {
          "indexed": false,
          "internalType": "contract Student",
          "name": "stu",
          "type": "address"
        }
      ],
      "name": "evntStudent",
      "type": "event"
    },
    {
      "anonymous": false,
      "inputs": [
        {
          "indexed": false,
          "internalType": "string",
          "name": "data",
          "type": "string"
        }
      ],
      "name": "logger",
      "type": "event"
    },
    {
      "inputs": [],
      "name": "_owner",
      "outputs": [
        {
          "internalType": "address",
          "name": "",
          "type": "address"
        }
      ],
      "stateMutability": "view",
      "type": "function",
      "constant": true
    },
    {
      "inputs": [],
      "name": "isOwner",
      "outputs": [
        {
          "internalType": "bool",
          "name": "",
          "type": "bool"
        }
      ],
      "stateMutability": "view",
      "type": "function",
      "constant": true
    },
    {
      "inputs": [
        {
          "internalType": "uint256",
          "name": "",
          "type": "uint256"
        }
      ],
      "name": "students",
      "outputs": [
        {
          "internalType": "contract Student",
          "name": "_student",
          "type": "address"
        },
        {
          "internalType": "string",
          "name": "_dept",
          "type": "string"
        },
        {
          "internalType": "enum StudentManager.GradeState",
          "name": "_gState",
          "type": "uint8"
        },
        {
          "internalType": "string",
          "name": "tag",
          "type": "string"
        }
      ],
      "stateMutability": "view",
      "type": "function",
      "constant": true
    },
    {
      "inputs": [
        {
          "internalType": "uint256",
          "name": "stuIndex",
          "type": "uint256"
        },
        {
          "internalType": "uint256",
          "name": "id",
          "type": "uint256"
        },
        {
          "internalType": "string",
          "name": "name",
          "type": "string"
        },
        {
          "internalType": "string",
          "name": "email",
          "type": "string"
        }
      ],
      "name": "createStudent",
      "outputs": [],
      "stateMutability": "nonpayable",
      "type": "function"
    },
    {
      "inputs": [
        {
          "internalType": "uint256",
          "name": "stuIndex",
          "type": "uint256"
        },
        {
          "internalType": "string",
          "name": "subject",
          "type": "string"
        },
        {
          "internalType": "uint256",
          "name": "score",
          "type": "uint256"
        }
      ],
      "name": "addMarks",
      "outputs": [],
      "stateMutability": "nonpayable",
      "type": "function"
    },
    {
      "inputs": [
        {
          "internalType": "uint256",
          "name": "idx",
          "type": "uint256"
        }
      ],
      "name": "getStudent",
      "outputs": [
        {
          "internalType": "address",
          "name": "Student",
          "type": "address"
        }
      ],
      "stateMutability": "nonpayable",
      "type": "function"
    },
    {
      "inputs": [
        {
          "internalType": "uint256",
          "name": "idx",
          "type": "uint256"
        }
      ],
      "name": "getStudentTag",
      "outputs": [
        {
          "internalType": "string",
          "name": "",
          "type": "string"
        }
      ],
      "stateMutability": "nonpayable",
      "type": "function"
    },
    {
      "inputs": [
        {
          "internalType": "uint256",
          "name": "idx",
          "type": "uint256"
        }
      ],
      "name": "getMarks",
      "outputs": [
        {
          "internalType": "contract Mark[]",
          "name": "",
          "type": "address[]"
        }
      ],
      "stateMutability": "nonpayable",
      "type": "function"
    },
    {
      "inputs": [
        {
          "internalType": "uint256",
          "name": "idx",
          "type": "uint256"
        },
        {
          "internalType": "uint256",
          "name": "midx",
          "type": "uint256"
        }
      ],
      "name": "getMark",
      "outputs": [
        {
          "internalType": "string",
          "name": "",
          "type": "string"
        },
        {
          "internalType": "uint256",
          "name": "",
          "type": "uint256"
        }
      ],
      "stateMutability": "nonpayable",
      "type": "function"
    }
  ],
  "bytecode": "0x608060405234801561001057600080fd5b50336000806101000a81548173ffffffffffffffffffffffffffffffffffffffff021916908373ffffffffffffffffffffffffffffffffffffffff160217905550612773806100606000396000f3fe60806040523480156200001157600080fd5b5060043610620000a05760003560e01c80638f32d59b116200006f5780638f32d59b1462000180578063b2bdfa7b14620001a2578063bb9f4bd414620001c4578063cb0c7c0c14620001e4578063fa249f50146200020457620000a0565b806306ead22e14620000a55780630e6573b614620000de5780632b0335831462000114578063642f9163146200014a575b600080fd5b620000c36004803603810190620000bd919062000dbe565b6200023b565b604051620000d5949392919062000f9f565b60405180910390f35b620000fc6004803603810190620000f6919062000dbe565b620003b8565b6040516200010b9190620010dc565b60405180910390f35b6200013260048036038101906200012c919062000dbe565b620005cd565b60405162000141919062001100565b60405180910390f35b62000168600480360381019062000162919062000dbe565b6200067d565b60405162000177919062001149565b60405180910390f35b6200018a6200072e565b60405162000199919062001183565b60405180910390f35b620001ac62000785565b604051620001bb919062001149565b60405180910390f35b620001e26004803603810190620001dc9190620012f1565b620007a9565b005b620002026004803603810190620001fc91906200136c565b62000a49565b005b6200022260048036038101906200021c91906200141c565b62000b51565b6040516200023292919062001474565b60405180910390f35b60016020528060005260406000206000915090508060000160009054906101000a900473ffffffffffffffffffffffffffffffffffffffff16908060020180546200028690620014d7565b80601f0160208091040260200160405190810160405280929190818152602001828054620002b490620014d7565b8015620003055780601f10620002d95761010080835404028352916020019162000305565b820191906000526020600020905b815481529060010190602001808311620002e757829003601f168201915b5050505050908060030160009054906101000a900460ff16908060040180546200032f90620014d7565b80601f01602080910402602001604051908101604052809291908181526020018280546200035d90620014d7565b8015620003ae5780601f106200038257610100808354040283529160200191620003ae565b820191906000526020600020905b8154815290600101906020018083116200039057829003601f168201915b5050505050905084565b60607ffbd815649c4d5f4a928ff248d912dbf50e6eb2c6f7da0888194b3aba7037765e604051620003e9906200155d565b60405180910390a17ffbd815649c4d5f4a928ff248d912dbf50e6eb2c6f7da0888194b3aba7037765e6040516200042090620015cf565b60405180910390a160005b600160008481526020019081526020016000206001018054905081101562000528577ffbd815649c4d5f4a928ff248d912dbf50e6eb2c6f7da0888194b3aba7037765e6040516200047c9062001641565b60405180910390a17fa293338bcaa2c2acc2b769026308fca753ce9ad8a85155d41943809bd0f1da60600160008581526020019081526020016000206001018281548110620004d057620004cf62001663565b5b9060005260206000200160009054906101000a900473ffffffffffffffffffffffffffffffffffffffff166040516200050a9190620016a3565b60405180910390a180806200051f90620016ef565b9150506200042b565b5060016000838152602001908152602001600020600101805480602002602001604051908101604052809291908181526020018280548015620005c157602002820191906000526020600020905b8160009054906101000a900473ffffffffffffffffffffffffffffffffffffffff1673ffffffffffffffffffffffffffffffffffffffff168152602001906001019080831162000576575b50505050509050919050565b6060600160008381526020019081526020016000206004018054620005f290620014d7565b80601f01602080910402602001604051908101604052809291908181526020018280546200062090620014d7565b8015620006715780601f10620006455761010080835404028352916020019162000671565b820191906000526020600020905b8154815290600101906020018083116200065357829003601f168201915b50505050509050919050565b60007f2bc98ce952b75e571693fc9f7f7a2c32eb76b8d3ca8da49a39ae9ddb9d2b4d13826001600085815260200190815260200160002060000160009054906101000a900473ffffffffffffffffffffffffffffffffffffffff16604051620006e89291906200173d565b60405180910390a16001600083815260200190815260200160002060000160009054906101000a900473ffffffffffffffffffffffffffffffffffffffff169050919050565b60008060009054906101000a900473ffffffffffffffffffffffffffffffffffffffff1673ffffffffffffffffffffffffffffffffffffffff163373ffffffffffffffffffffffffffffffffffffffff1614905090565b60008054906101000a900473ffffffffffffffffffffffffffffffffffffffff1681565b60008282604051620007bb9062000ca3565b620007c892919062001474565b604051809103906000f080158015620007e5573d6000803e3d6000fd5b50905060016000858152602001908152602001600020600101819080600181540180825580915050600190039060005260206000200160009091909190916101000a81548173ffffffffffffffffffffffffffffffffffffffff021916908373ffffffffffffffffffffffffffffffffffffffff1602179055506040518060400160405280600481526020017f4d45434800000000000000000000000000000000000000000000000000000000815250600160008681526020019081526020016000206002019080519060200190620008c092919062000cb1565b5060008173ffffffffffffffffffffffffffffffffffffffff1663097ac5336040518163ffffffff1660e01b81526004016020604051808303816000875af115801562000911573d6000803e3d6000fd5b505050506040513d601f19601f8201168201806040525081019062000937919062001781565b905060328111156200098b5760006001600087815260200190815260200160002060030160006101000a81548160ff0219169083600181111562000980576200097f62000f1f565b5b0217905550620009cd565b600180600087815260200190815260200160002060030160006101000a81548160ff02191690836001811115620009c757620009c662000f1f565b5b02179055505b7fbe17da7e4e64be98177252e41c28bbca6920b218f5bd8d04c32de18f7af65094856001600088815260200190815260200160002060030160009054906101000a900460ff16600181111562000a285762000a2762000f1f565b5b3360405162000a3a93929190620017b3565b60405180910390a15050505050565b600083838360405162000a5c9062000d42565b62000a6a93929190620017f0565b604051809103906000f08015801562000a87573d6000803e3d6000fd5b509050806001600087815260200190815260200160002060000160006101000a81548173ffffffffffffffffffffffffffffffffffffffff021916908373ffffffffffffffffffffffffffffffffffffffff1602179055508260016000878152602001908152602001600020600401908051906020019062000b0b92919062000cb1565b507fbe17da7e4e64be98177252e41c28bbca6920b218f5bd8d04c32de18f7af650948560003360405162000b42939291906200187e565b60405180910390a15050505050565b606060008060016000868152602001908152602001600020600101848154811062000b815762000b8062001663565b5b9060005260206000200160009054906101000a900473ffffffffffffffffffffffffffffffffffffffff1690508073ffffffffffffffffffffffffffffffffffffffff16630a59a98c6040518163ffffffff1660e01b8152600401600060405180830381865afa15801562000bfa573d6000803e3d6000fd5b505050506040513d6000823e3d601f19601f8201168201806040525081019062000c25919062001939565b8173ffffffffffffffffffffffffffffffffffffffff16633c84c5a56040518163ffffffff1660e01b8152600401602060405180830381865afa15801562000c71573d6000803e3d6000fd5b505050506040513d601f19601f8201168201806040525081019062000c97919062001781565b92509250509250929050565b6106aa806200198b83390190565b82805462000cbf90620014d7565b90600052602060002090601f01602090048101928262000ce3576000855562000d2f565b82601f1062000cfe57805160ff191683800117855562000d2f565b8280016001018555821562000d2f579182015b8281111562000d2e57825182559160200191906001019062000d11565b5b50905062000d3e919062000d50565b5090565b610709806200203583390190565b5b8082111562000d6b57600081600090555060010162000d51565b5090565b6000604051905090565b600080fd5b600080fd5b6000819050919050565b62000d988162000d83565b811462000da457600080fd5b50565b60008135905062000db88162000d8d565b92915050565b60006020828403121562000dd75762000dd662000d79565b5b600062000de78482850162000da7565b91505092915050565b600073ffffffffffffffffffffffffffffffffffffffff82169050919050565b6000819050919050565b600062000e3b62000e3562000e2f8462000df0565b62000e10565b62000df0565b9050919050565b600062000e4f8262000e1a565b9050919050565b600062000e638262000e42565b9050919050565b62000e758162000e56565b82525050565b600081519050919050565b600082825260208201905092915050565b60005b8381101562000eb757808201518184015260208101905062000e9a565b8381111562000ec7576000848401525b50505050565b6000601f19601f8301169050919050565b600062000eeb8262000e7b565b62000ef7818562000e86565b935062000f0981856020860162000e97565b62000f148162000ecd565b840191505092915050565b7f4e487b7100000000000000000000000000000000000000000000000000000000600052602160045260246000fd5b6002811062000f625762000f6162000f1f565b5b50565b600081905062000f758262000f4e565b919050565b600062000f878262000f65565b9050919050565b62000f998162000f7a565b82525050565b600060808201905062000fb6600083018762000e6a565b818103602083015262000fca818662000ede565b905062000fdb604083018562000f8e565b818103606083015262000fef818462000ede565b905095945050505050565b600081519050919050565b600082825260208201905092915050565b6000819050602082019050919050565b6000620010338262000e42565b9050919050565b620010458162001026565b82525050565b60006200105983836200103a565b60208301905092915050565b6000602082019050919050565b60006200107f8262000ffa565b6200108b818562001005565b9350620010988362001016565b8060005b83811015620010cf578151620010b388826200104b565b9750620010c08362001065565b9250506001810190506200109c565b5085935050505092915050565b60006020820190508181036000830152620010f8818462001072565b905092915050565b600060208201905081810360008301526200111c818462000ede565b905092915050565b6000620011318262000df0565b9050919050565b620011438162001124565b82525050565b600060208201905062001160600083018462001138565b92915050565b60008115159050919050565b6200117d8162001166565b82525050565b60006020820190506200119a600083018462001172565b92915050565b600080fd5b600080fd5b7f4e487b7100000000000000000000000000000000000000000000000000000000600052604160045260246000fd5b620011e48262000ecd565b810181811067ffffffffffffffff82111715620012065762001205620011aa565b5b80604052505050565b60006200121b62000d6f565b9050620012298282620011d9565b919050565b600067ffffffffffffffff8211156200124c576200124b620011aa565b5b620012578262000ecd565b9050602081019050919050565b82818337600083830152505050565b60006200128a62001284846200122e565b6200120f565b905082815260208101848484011115620012a957620012a8620011a5565b5b620012b684828562001264565b509392505050565b600082601f830112620012d657620012d5620011a0565b5b8135620012e884826020860162001273565b91505092915050565b6000806000606084860312156200130d576200130c62000d79565b5b60006200131d8682870162000da7565b935050602084013567ffffffffffffffff81111562001341576200134062000d7e565b5b6200134f86828701620012be565b9250506040620013628682870162000da7565b9150509250925092565b6000806000806080858703121562001389576200138862000d79565b5b6000620013998782880162000da7565b9450506020620013ac8782880162000da7565b935050604085013567ffffffffffffffff811115620013d057620013cf62000d7e565b5b620013de87828801620012be565b925050606085013567ffffffffffffffff81111562001402576200140162000d7e565b5b6200141087828801620012be565b91505092959194509250565b6000806040838503121562001436576200143562000d79565b5b6000620014468582860162000da7565b9250506020620014598582860162000da7565b9150509250929050565b6200146e8162000d83565b82525050565b6000604082019050818103600083015262001490818562000ede565b9050620014a1602083018462001463565b9392505050565b7f4e487b7100000000000000000000000000000000000000000000000000000000600052602260045260246000fd5b60006002820490506001821680620014f057607f821691505b60208210811415620015075762001506620014a8565b5b50919050565b7f3d3d3d3100000000000000000000000000000000000000000000000000000000600082015250565b60006200154560048362000e86565b915062001552826200150d565b602082019050919050565b60006020820190508181036000830152620015788162001536565b9050919050565b7f3d3d3d3200000000000000000000000000000000000000000000000000000000600082015250565b6000620015b760048362000e86565b9150620015c4826200157f565b602082019050919050565b60006020820190508181036000830152620015ea81620015a8565b9050919050565b7f3d3d3d3d3d3d3d3d3d3d3d000000000000000000000000000000000000000000600082015250565b600062001629600b8362000e86565b91506200163682620015f1565b602082019050919050565b600060208201905081810360008301526200165c816200161a565b9050919050565b7f4e487b7100000000000000000000000000000000000000000000000000000000600052603260045260246000fd5b6200169d8162001026565b82525050565b6000602082019050620016ba600083018462001692565b92915050565b7f4e487b7100000000000000000000000000000000000000000000000000000000600052601160045260246000fd5b6000620016fc8262000d83565b91507fffffffffffffffffffffffffffffffffffffffffffffffffffffffffffffffff821415620017325762001731620016c0565b5b600182019050919050565b600060408201905062001754600083018562001463565b62001763602083018462000e6a565b9392505050565b6000815190506200177b8162000d8d565b92915050565b6000602082840312156200179a576200179962000d79565b5b6000620017aa848285016200176a565b91505092915050565b6000606082019050620017ca600083018662001463565b620017d9602083018562001463565b620017e8604083018462001138565b949350505050565b600060608201905062001807600083018662001463565b81810360208301526200181b818562000ede565b9050818103604083015262001831818462000ede565b9050949350505050565b6000819050919050565b600062001866620018606200185a846200183b565b62000e10565b62000d83565b9050919050565b620018788162001845565b82525050565b600060608201905062001895600083018662001463565b620018a460208301856200186d565b620018b3604083018462001138565b949350505050565b6000620018d2620018cc846200122e565b6200120f565b905082815260208101848484011115620018f157620018f0620011a5565b5b620018fe84828562000e97565b509392505050565b600082601f8301126200191e576200191d620011a0565b5b815162001930848260208601620018bb565b91505092915050565b60006020828403121562001952576200195162000d79565b5b600082015167ffffffffffffffff81111562001973576200197262000d7e565b5b620019818482850162001906565b9150509291505056fe608060405234801561001057600080fd5b506040516106aa3803806106aa833981810160405281019061003291906102ae565b8160009080519060200190610048929190610057565b5080600181905550505061036b565b82805461006390610339565b90600052602060002090601f01602090048101928261008557600085556100cc565b82601f1061009e57805160ff19168380011785556100cc565b828001600101855582156100cc579182015b828111156100cb5782518255916020019190600101906100b0565b5b5090506100d991906100dd565b5090565b5b808211156100f65760008160009055506001016100de565b5090565b6000604051905090565b600080fd5b600080fd5b600080fd5b600080fd5b6000601f19601f8301169050919050565b7f4e487b7100000000000000000000000000000000000000000000000000000000600052604160045260246000fd5b61016182610118565b810181811067ffffffffffffffff821117156101805761017f610129565b5b80604052505050565b60006101936100fa565b905061019f8282610158565b919050565b600067ffffffffffffffff8211156101bf576101be610129565b5b6101c882610118565b9050602081019050919050565b60005b838110156101f35780820151818401526020810190506101d8565b83811115610202576000848401525b50505050565b600061021b610216846101a4565b610189565b90508281526020810184848401111561023757610236610113565b5b6102428482856101d5565b509392505050565b600082601f83011261025f5761025e61010e565b5b815161026f848260208601610208565b91505092915050565b6000819050919050565b61028b81610278565b811461029657600080fd5b50565b6000815190506102a881610282565b92915050565b600080604083850312156102c5576102c4610104565b5b600083015167ffffffffffffffff8111156102e3576102e2610109565b5b6102ef8582860161024a565b925050602061030085828601610299565b9150509250929050565b7f4e487b7100000000000000000000000000000000000000000000000000000000600052602260045260246000fd5b6000600282049050600182168061035157607f821691505b602082108114156103655761036461030a565b5b50919050565b6103308061037a6000396000f3fe608060405234801561001057600080fd5b50600436106100415760003560e01c8063097ac533146100465780630a59a98c146100645780633c84c5a514610082575b600080fd5b61004e6100a0565b60405161005b9190610163565b60405180910390f35b61006c6100b6565b6040516100799190610217565b60405180910390f35b61008a610144565b6040516100979190610163565b60405180910390f35b600060646001546100b19190610268565b905090565b600080546100c3906102c8565b80601f01602080910402602001604051908101604052809291908181526020018280546100ef906102c8565b801561013c5780601f106101115761010080835404028352916020019161013c565b820191906000526020600020905b81548152906001019060200180831161011f57829003601f168201915b505050505081565b60015481565b6000819050919050565b61015d8161014a565b82525050565b60006020820190506101786000830184610154565b92915050565b600081519050919050565b600082825260208201905092915050565b60005b838110156101b857808201518184015260208101905061019d565b838111156101c7576000848401525b50505050565b6000601f19601f8301169050919050565b60006101e98261017e565b6101f38185610189565b935061020381856020860161019a565b61020c816101cd565b840191505092915050565b6000602082019050818103600083015261023181846101de565b905092915050565b7f4e487b7100000000000000000000000000000000000000000000000000000000600052601260045260246000fd5b60006102738261014a565b915061027e8361014a565b92508261028e5761028d610239565b5b828204905092915050565b7f4e487b7100000000000000000000000000000000000000000000000000000000600052602260045260246000fd5b600060028204905060018216806102e057607f821691505b602082108114156102f4576102f3610299565b5b5091905056fea264697066735822122084dcf4419b782651455423fd59acbc084a27bc6c0a315ae1de329cd0708fb16a64736f6c634300080b0033608060405234801561001057600080fd5b50604051610709380380610709833981810160405281019061003291906102c6565b82600081905550816001908051906020019061004f92919061006f565b50806002908051906020019061006692919061006f565b505050506103b2565b82805461007b90610380565b90600052602060002090601f01602090048101928261009d57600085556100e4565b82601f106100b657805160ff19168380011785556100e4565b828001600101855582156100e4579182015b828111156100e35782518255916020019190600101906100c8565b5b5090506100f191906100f5565b5090565b5b8082111561010e5760008160009055506001016100f6565b5090565b6000604051905090565b600080fd5b600080fd5b6000819050919050565b61013981610126565b811461014457600080fd5b50565b60008151905061015681610130565b92915050565b600080fd5b600080fd5b6000601f19601f8301169050919050565b7f4e487b7100000000000000000000000000000000000000000000000000000000600052604160045260246000fd5b6101af82610166565b810181811067ffffffffffffffff821117156101ce576101cd610177565b5b80604052505050565b60006101e1610112565b90506101ed82826101a6565b919050565b600067ffffffffffffffff82111561020d5761020c610177565b5b61021682610166565b9050602081019050919050565b60005b83811015610241578082015181840152602081019050610226565b83811115610250576000848401525b50505050565b6000610269610264846101f2565b6101d7565b90508281526020810184848401111561028557610284610161565b5b610290848285610223565b509392505050565b600082601f8301126102ad576102ac61015c565b5b81516102bd848260208601610256565b91505092915050565b6000806000606084860312156102df576102de61011c565b5b60006102ed86828701610147565b935050602084015167ffffffffffffffff81111561030e5761030d610121565b5b61031a86828701610298565b925050604084015167ffffffffffffffff81111561033b5761033a610121565b5b61034786828701610298565b9150509250925092565b7f4e487b7100000000000000000000000000000000000000000000000000000000600052602260045260246000fd5b6000600282049050600182168061039857607f821691505b602082108114156103ac576103ab610351565b5b50919050565b610348806103c16000396000f3fe608060405234801561001057600080fd5b50600436106100415760003560e01c806306fdde0314610046578063820e93f514610064578063af640d0f14610082575b600080fd5b61004e6100a0565b60405161005b919061025b565b60405180910390f35b61006c61012e565b604051610079919061025b565b60405180910390f35b61008a6101bc565b6040516100979190610296565b60405180910390f35b600180546100ad906102e0565b80601f01602080910402602001604051908101604052809291908181526020018280546100d9906102e0565b80156101265780601f106100fb57610100808354040283529160200191610126565b820191906000526020600020905b81548152906001019060200180831161010957829003601f168201915b505050505081565b6002805461013b906102e0565b80601f0160208091040260200160405190810160405280929190818152602001828054610167906102e0565b80156101b45780601f10610189576101008083540402835291602001916101b4565b820191906000526020600020905b81548152906001019060200180831161019757829003601f168201915b505050505081565b60005481565b600081519050919050565b600082825260208201905092915050565b60005b838110156101fc5780820151818401526020810190506101e1565b8381111561020b576000848401525b50505050565b6000601f19601f8301169050919050565b600061022d826101c2565b61023781856101cd565b93506102478185602086016101de565b61025081610211565b840191505092915050565b600060208201905081810360008301526102758184610222565b905092915050565b6000819050919050565b6102908161027d565b82525050565b60006020820190506102ab6000830184610287565b92915050565b7f4e487b7100000000000000000000000000000000000000000000000000000000600052602260045260246000fd5b600060028204905060018216806102f857607f821691505b6020821081141561030c5761030b6102b1565b5b5091905056fea264697066735822122017ff8fb097edc5ee55a6ef148834ddcdc4e44135f1d5a5feb03de9e306bcd28664736f6c634300080b0033a2646970667358221220e10fd7888cca51327f8accafd7cef62e5131016bafc7cc457c694cdfcb8f878164736f6c634300080b0033",
  "immutableReferences": {},
  "source": "// SPDX-License-Identifier: MIT\npragma solidity ^0.8.6;\n\nimport \"./Student.sol\";\nimport \"./Mark.sol\";\nimport \"./Ownable.sol\";\n  \ncontract StudentManager is Ownable {\n\n    enum GradeState {   \n        A,\n        B\n    }\n\n     struct stu_marks {\n        Student _student;   \n        Mark[] _marks;\n        string  _dept;\n        GradeState _gState;\n        string tag;\n    }\n\n    event StudentChainStep(uint _itemIndex,uint _grade, address _stuAddress);\n    event MarksEvent(Mark mrk);\n    event logger(string data);\n    event evntStudent(uint _idx, Student stu);\n\n    mapping(uint => stu_marks) public students;\n\n    function createStudent(uint stuIndex,uint id,string memory name,string memory email) public {\n        Student stu = new Student(id,name,email);\n        students[stuIndex]._student = stu;\n        students[stuIndex].tag = name;\n        emit StudentChainStep(stuIndex,0, msg.sender);\n    }\n\n    function addMarks(uint stuIndex,string memory subject,uint score) public  {\n        Mark mark = new Mark(subject,score);\n        students[stuIndex]._marks.push(mark);\n        students[stuIndex]._dept = \"MECH\";\n        uint cgpa = mark.getCGPA();\n        if (cgpa > 50){ \n            students[stuIndex]._gState =GradeState.A;\n        } else {\n            students[stuIndex]._gState =GradeState.B;\n        }\n        emit StudentChainStep(stuIndex,uint(students[stuIndex]._gState), msg.sender);\n    }\n\n    function getStudent(uint idx) public returns(address Student){\n        //Student stu = new Student(9,'superstar9','ss9@gmail.com');\n        //return address(students[idx]._student);\n        //new Student(9,\"superstar9\",\"ss9@gmail.com\");\n        emit evntStudent(idx, students[idx]._student);\n        return address(students[idx]._student);\n    }\n\n    function getStudentTag(uint idx) public returns(string memory) {\n        //Student stu = new Student(9,'superstar9','ss9@gmail.com');\n        //return address(students[idx]._student);\n        //new Student(9,\"superstar9\",\"ss9@gmail.com\");\n        return students[idx].tag;\n    }\n\n\n\n\n    function getMarks(uint idx) public returns(Mark[] memory){\n        emit logger(\"===1\");\n        emit logger(\"===2\");\n\n\n        for (uint i = 0; i < students[idx]._marks.length; i++) {\n            emit logger(\"===========\");\n            emit MarksEvent(students[idx]._marks[i]);\n        }\n        \n        return  students[idx]._marks;\n    }\n\n    function getMark(uint idx,uint midx) public returns (string memory,uint){\n        Mark m = students[idx]._marks[midx];\n        return (m.subject(),m.marks());\n    }\n\n}",
  "sourcePath": "/home/siva/Documents/work-git-new/BlockChain/eth-hw-students-marks-react-ui/contracts/StudentsManager.sol",
  "compiler": {
    "name": "solc",
    "version": "0.8.11+commit.d7f03943.Emscripten.clang"
  },
  "schemaVersion": "3.4.3",
  "updatedAt": "2022-01-16T13:25:05.039Z",
  "networkType": "ethereum",
  "devdoc": {
    "kind": "dev",
    "methods": {},
    "version": 1
  },
  "userdoc": {
    "kind": "user",
    "methods": {},
    "version": 1
  }
}