{
  "contractName": "Student",
  "abi": [
    {
      "inputs": [
        {
          "internalType": "uint256",
          "name": "_id",
          "type": "uint256"
        },
        {
          "internalType": "string",
          "name": "_name",
          "type": "string"
        },
        {
          "internalType": "string",
          "name": "_email",
          "type": "string"
        }
      ],
      "stateMutability": "nonpayable",
      "type": "constructor"
    },
    {
      "anonymous": false,
      "inputs": [
        {
          "indexed": false,
          "internalType": "address",
          "name": "_from",
          "type": "address"
        },
        {
          "indexed": false,
          "internalType": "uint256",
          "name": "value",
          "type": "uint256"
        }
      ],
      "name": "eDebug",
      "type": "event"
    },
    {
      "inputs": [],
      "name": "email",
      "outputs": [
        {
          "internalType": "string",
          "name": "",
          "type": "string"
        }
      ],
      "stateMutability": "view",
      "type": "function"
    },
    {
      "inputs": [],
      "name": "id",
      "outputs": [
        {
          "internalType": "uint256",
          "name": "",
          "type": "uint256"
        }
      ],
      "stateMutability": "view",
      "type": "function"
    },
    {
      "inputs": [],
      "name": "name",
      "outputs": [
        {
          "internalType": "string",
          "name": "",
          "type": "string"
        }
      ],
      "stateMutability": "view",
      "type": "function"
    }
  ],
  "bytecode": "0x608060405234801561001057600080fd5b50604051610709380380610709833981810160405281019061003291906102c6565b82600081905550816001908051906020019061004f92919061006f565b50806002908051906020019061006692919061006f565b505050506103b2565b82805461007b90610380565b90600052602060002090601f01602090048101928261009d57600085556100e4565b82601f106100b657805160ff19168380011785556100e4565b828001600101855582156100e4579182015b828111156100e35782518255916020019190600101906100c8565b5b5090506100f191906100f5565b5090565b5b8082111561010e5760008160009055506001016100f6565b5090565b6000604051905090565b600080fd5b600080fd5b6000819050919050565b61013981610126565b811461014457600080fd5b50565b60008151905061015681610130565b92915050565b600080fd5b600080fd5b6000601f19601f8301169050919050565b7f4e487b7100000000000000000000000000000000000000000000000000000000600052604160045260246000fd5b6101af82610166565b810181811067ffffffffffffffff821117156101ce576101cd610177565b5b80604052505050565b60006101e1610112565b90506101ed82826101a6565b919050565b600067ffffffffffffffff82111561020d5761020c610177565b5b61021682610166565b9050602081019050919050565b60005b83811015610241578082015181840152602081019050610226565b83811115610250576000848401525b50505050565b6000610269610264846101f2565b6101d7565b90508281526020810184848401111561028557610284610161565b5b610290848285610223565b509392505050565b600082601f8301126102ad576102ac61015c565b5b81516102bd848260208601610256565b91505092915050565b6000806000606084860312156102df576102de61011c565b5b60006102ed86828701610147565b935050602084015167ffffffffffffffff81111561030e5761030d610121565b5b61031a86828701610298565b925050604084015167ffffffffffffffff81111561033b5761033a610121565b5b61034786828701610298565b9150509250925092565b7f4e487b7100000000000000000000000000000000000000000000000000000000600052602260045260246000fd5b6000600282049050600182168061039857607f821691505b602082108114156103ac576103ab610351565b5b50919050565b610348806103c16000396000f3fe608060405234801561001057600080fd5b50600436106100415760003560e01c806306fdde0314610046578063820e93f514610064578063af640d0f14610082575b600080fd5b61004e6100a0565b60405161005b919061025b565b60405180910390f35b61006c61012e565b604051610079919061025b565b60405180910390f35b61008a6101bc565b6040516100979190610296565b60405180910390f35b600180546100ad906102e0565b80601f01602080910402602001604051908101604052809291908181526020018280546100d9906102e0565b80156101265780601f106100fb57610100808354040283529160200191610126565b820191906000526020600020905b81548152906001019060200180831161010957829003601f168201915b505050505081565b6002805461013b906102e0565b80601f0160208091040260200160405190810160405280929190818152602001828054610167906102e0565b80156101b45780601f10610189576101008083540402835291602001916101b4565b820191906000526020600020905b81548152906001019060200180831161019757829003601f168201915b505050505081565b60005481565b600081519050919050565b600082825260208201905092915050565b60005b838110156101fc5780820151818401526020810190506101e1565b8381111561020b576000848401525b50505050565b6000601f19601f8301169050919050565b600061022d826101c2565b61023781856101cd565b93506102478185602086016101de565b61025081610211565b840191505092915050565b600060208201905081810360008301526102758184610222565b905092915050565b6000819050919050565b6102908161027d565b82525050565b60006020820190506102ab6000830184610287565b92915050565b7f4e487b7100000000000000000000000000000000000000000000000000000000600052602260045260246000fd5b600060028204905060018216806102f857607f821691505b6020821081141561030c5761030b6102b1565b5b5091905056fea26469706673582212202b0465d659688502b37f95af6fdfe68eeeccb98d4f27fbcea4575663cbf3e57664736f6c634300080a0033",
  "immutableReferences": {},
  "source": "// SPDX-License-Identifier: MIT\npragma solidity ^0.8.6;\n\n\ncontract Student { \n\n    uint public id;   \n    string public name;\n    string public email;\n\n    event eDebug(address _from, uint value);\n\n    constructor(uint _id,string memory _name,string memory _email){\n        id = _id;\n        name = _name;\n        email = _email;\n    }\n\n}\n",
  "sourcePath": "/home/siva/Documents/work-git-new/BlockChain/eth-hw-students-marks-react-ui/contracts/Student.sol",
  "compiler": {
    "name": "solc",
    "version": "0.8.10+commit.fc410830.Emscripten.clang"
  },
  "schemaVersion": "3.4.3",
  "updatedAt": "2021-11-27T17:41:22.727Z",
  "devdoc": {
    "kind": "dev",
    "methods": {},
    "version": 1
  },
  "userdoc": {
    "kind": "user",
    "methods": {},
    "version": 1
  }
}