{
  "contractName": "StudentManager",
  "abi": [
    {
      "anonymous": false,
      "inputs": [
        {
          "indexed": false,
          "internalType": "contract Mark",
          "name": "mrk",
          "type": "address"
        }
      ],
      "name": "MarksEvent",
      "type": "event"
    },
    {
      "anonymous": false,
      "inputs": [
        {
          "indexed": false,
          "internalType": "uint256",
          "name": "_itemIndex",
          "type": "uint256"
        },
        {
          "indexed": false,
          "internalType": "uint256",
          "name": "_grade",
          "type": "uint256"
        },
        {
          "indexed": false,
          "internalType": "address",
          "name": "_stuAddress",
          "type": "address"
        }
      ],
      "name": "StudentChainStep",
      "type": "event"
    },
    {
      "anonymous": false,
      "inputs": [
        {
          "indexed": false,
          "internalType": "string",
          "name": "data",
          "type": "string"
        }
      ],
      "name": "logger",
      "type": "event"
    },
    {
      "inputs": [],
      "name": "_owner",
      "outputs": [
        {
          "internalType": "address",
          "name": "",
          "type": "address"
        }
      ],
      "stateMutability": "view",
      "type": "function",
      "constant": true
    },
    {
      "inputs": [],
      "name": "isOwner",
      "outputs": [
        {
          "internalType": "bool",
          "name": "",
          "type": "bool"
        }
      ],
      "stateMutability": "view",
      "type": "function",
      "constant": true
    },
    {
      "inputs": [
        {
          "internalType": "uint256",
          "name": "",
          "type": "uint256"
        }
      ],
      "name": "students",
      "outputs": [
        {
          "internalType": "contract Student",
          "name": "_student",
          "type": "address"
        },
        {
          "internalType": "string",
          "name": "_dept",
          "type": "string"
        },
        {
          "internalType": "enum StudentManager.GradeState",
          "name": "_gState",
          "type": "uint8"
        }
      ],
      "stateMutability": "view",
      "type": "function",
      "constant": true
    },
    {
      "inputs": [
        {
          "internalType": "uint256",
          "name": "stuIndex",
          "type": "uint256"
        },
        {
          "internalType": "uint256",
          "name": "id",
          "type": "uint256"
        },
        {
          "internalType": "string",
          "name": "name",
          "type": "string"
        },
        {
          "internalType": "string",
          "name": "email",
          "type": "string"
        }
      ],
      "name": "createStudent",
      "outputs": [],
      "stateMutability": "nonpayable",
      "type": "function"
    },
    {
      "inputs": [
        {
          "internalType": "uint256",
          "name": "stuIndex",
          "type": "uint256"
        },
        {
          "internalType": "string",
          "name": "subject",
          "type": "string"
        },
        {
          "internalType": "uint256",
          "name": "score",
          "type": "uint256"
        }
      ],
      "name": "addMarks",
      "outputs": [],
      "stateMutability": "nonpayable",
      "type": "function"
    },
    {
      "inputs": [
        {
          "internalType": "uint256",
          "name": "idx",
          "type": "uint256"
        }
      ],
      "name": "getStudent",
      "outputs": [
        {
          "internalType": "contract Student",
          "name": "",
          "type": "address"
        }
      ],
      "stateMutability": "nonpayable",
      "type": "function"
    },
    {
      "inputs": [
        {
          "internalType": "uint256",
          "name": "idx",
          "type": "uint256"
        }
      ],
      "name": "getMarks",
      "outputs": [
        {
          "internalType": "contract Mark[]",
          "name": "",
          "type": "address[]"
        }
      ],
      "stateMutability": "nonpayable",
      "type": "function"
    },
    {
      "inputs": [
        {
          "internalType": "uint256",
          "name": "idx",
          "type": "uint256"
        },
        {
          "internalType": "uint256",
          "name": "midx",
          "type": "uint256"
        }
      ],
      "name": "getMark",
      "outputs": [
        {
          "internalType": "string",
          "name": "",
          "type": "string"
        },
        {
          "internalType": "uint256",
          "name": "",
          "type": "uint256"
        }
      ],
      "stateMutability": "nonpayable",
      "type": "function"
    }
  ],
  "bytecode": "0x608060405234801561001057600080fd5b50336000806101000a81548173ffffffffffffffffffffffffffffffffffffffff021916908373ffffffffffffffffffffffffffffffffffffffff160217905550612501806100606000396000f3fe60806040523480156200001157600080fd5b5060043610620000945760003560e01c8063b2bdfa7b1162000063578063b2bdfa7b146200015f578063bb9f4bd41462000181578063cb0c7c0c14620001a1578063fa249f5014620001c15762000094565b806306ead22e14620000995780630e6573b614620000d1578063642f916314620001075780638f32d59b146200013d575b600080fd5b620000b76004803603810190620000b1919062000b97565b620001f8565b604051620000c89392919062000d78565b60405180910390f35b620000ef6004803603810190620000e9919062000b97565b620002df565b604051620000fe919062000e9e565b60405180910390f35b6200012560048036038101906200011f919062000b97565b620004f4565b60405162000134919062000ec2565b60405180910390f35b6200014762000534565b60405162000156919062000efc565b60405180910390f35b620001696200058b565b60405162000178919062000f3e565b60405180910390f35b6200019f6004803603810190620001999190620010ac565b620005af565b005b620001bf6004803603810190620001b9919062001127565b6200084f565b005b620001df6004803603810190620001d99190620011d7565b6200092a565b604051620001ef9291906200122f565b60405180910390f35b60016020528060005260406000206000915090508060000160009054906101000a900473ffffffffffffffffffffffffffffffffffffffff1690806002018054620002439062001292565b80601f0160208091040260200160405190810160405280929190818152602001828054620002719062001292565b8015620002c25780601f106200029657610100808354040283529160200191620002c2565b820191906000526020600020905b815481529060010190602001808311620002a457829003601f168201915b5050505050908060030160009054906101000a900460ff16905083565b60607ffbd815649c4d5f4a928ff248d912dbf50e6eb2c6f7da0888194b3aba7037765e604051620003109062001318565b60405180910390a17ffbd815649c4d5f4a928ff248d912dbf50e6eb2c6f7da0888194b3aba7037765e60405162000347906200138a565b60405180910390a160005b60016000848152602001908152602001600020600101805490508110156200044f577ffbd815649c4d5f4a928ff248d912dbf50e6eb2c6f7da0888194b3aba7037765e604051620003a390620013fc565b60405180910390a17fa293338bcaa2c2acc2b769026308fca753ce9ad8a85155d41943809bd0f1da60600160008581526020019081526020016000206001018281548110620003f757620003f66200141e565b5b9060005260206000200160009054906101000a900473ffffffffffffffffffffffffffffffffffffffff166040516200043191906200145e565b60405180910390a180806200044690620014aa565b91505062000352565b5060016000838152602001908152602001600020600101805480602002602001604051908101604052809291908181526020018280548015620004e857602002820191906000526020600020905b8160009054906101000a900473ffffffffffffffffffffffffffffffffffffffff1673ffffffffffffffffffffffffffffffffffffffff16815260200190600101908083116200049d575b50505050509050919050565b60006001600083815260200190815260200160002060000160009054906101000a900473ffffffffffffffffffffffffffffffffffffffff169050919050565b60008060009054906101000a900473ffffffffffffffffffffffffffffffffffffffff1673ffffffffffffffffffffffffffffffffffffffff163373ffffffffffffffffffffffffffffffffffffffff1614905090565b60008054906101000a900473ffffffffffffffffffffffffffffffffffffffff1681565b60008282604051620005c19062000a7c565b620005ce9291906200122f565b604051809103906000f080158015620005eb573d6000803e3d6000fd5b50905060016000858152602001908152602001600020600101819080600181540180825580915050600190039060005260206000200160009091909190916101000a81548173ffffffffffffffffffffffffffffffffffffffff021916908373ffffffffffffffffffffffffffffffffffffffff1602179055506040518060400160405280600481526020017f4d45434800000000000000000000000000000000000000000000000000000000815250600160008681526020019081526020016000206002019080519060200190620006c692919062000a8a565b5060008173ffffffffffffffffffffffffffffffffffffffff1663097ac5336040518163ffffffff1660e01b81526004016020604051808303816000875af115801562000717573d6000803e3d6000fd5b505050506040513d601f19601f820116820180604052508101906200073d91906200150f565b90506032811115620007915760006001600087815260200190815260200160002060030160006101000a81548160ff0219169083600181111562000786576200078562000cf8565b5b0217905550620007d3565b600180600087815260200190815260200160002060030160006101000a81548160ff02191690836001811115620007cd57620007cc62000cf8565b5b02179055505b7fbe17da7e4e64be98177252e41c28bbca6920b218f5bd8d04c32de18f7af65094856001600088815260200190815260200160002060030160009054906101000a900460ff1660018111156200082e576200082d62000cf8565b5b33604051620008409392919062001541565b60405180910390a15050505050565b6000838383604051620008629062000b1b565b62000870939291906200157e565b604051809103906000f0801580156200088d573d6000803e3d6000fd5b509050806001600087815260200190815260200160002060000160006101000a81548173ffffffffffffffffffffffffffffffffffffffff021916908373ffffffffffffffffffffffffffffffffffffffff1602179055507fbe17da7e4e64be98177252e41c28bbca6920b218f5bd8d04c32de18f7af65094856000336040516200091b939291906200160c565b60405180910390a15050505050565b60606000806001600086815260200190815260200160002060010184815481106200095a57620009596200141e565b5b9060005260206000200160009054906101000a900473ffffffffffffffffffffffffffffffffffffffff1690508073ffffffffffffffffffffffffffffffffffffffff16630a59a98c6040518163ffffffff1660e01b8152600401600060405180830381865afa158015620009d3573d6000803e3d6000fd5b505050506040513d6000823e3d601f19601f82011682018060405250810190620009fe9190620016c7565b8173ffffffffffffffffffffffffffffffffffffffff16633c84c5a56040518163ffffffff1660e01b8152600401602060405180830381865afa15801562000a4a573d6000803e3d6000fd5b505050506040513d601f19601f8201168201806040525081019062000a7091906200150f565b92509250509250929050565b6106aa806200171983390190565b82805462000a989062001292565b90600052602060002090601f01602090048101928262000abc576000855562000b08565b82601f1062000ad757805160ff191683800117855562000b08565b8280016001018555821562000b08579182015b8281111562000b0757825182559160200191906001019062000aea565b5b50905062000b17919062000b29565b5090565b6107098062001dc383390190565b5b8082111562000b4457600081600090555060010162000b2a565b5090565b6000604051905090565b600080fd5b600080fd5b6000819050919050565b62000b718162000b5c565b811462000b7d57600080fd5b50565b60008135905062000b918162000b66565b92915050565b60006020828403121562000bb05762000baf62000b52565b5b600062000bc08482850162000b80565b91505092915050565b600073ffffffffffffffffffffffffffffffffffffffff82169050919050565b6000819050919050565b600062000c1462000c0e62000c088462000bc9565b62000be9565b62000bc9565b9050919050565b600062000c288262000bf3565b9050919050565b600062000c3c8262000c1b565b9050919050565b62000c4e8162000c2f565b82525050565b600081519050919050565b600082825260208201905092915050565b60005b8381101562000c9057808201518184015260208101905062000c73565b8381111562000ca0576000848401525b50505050565b6000601f19601f8301169050919050565b600062000cc48262000c54565b62000cd0818562000c5f565b935062000ce281856020860162000c70565b62000ced8162000ca6565b840191505092915050565b7f4e487b7100000000000000000000000000000000000000000000000000000000600052602160045260246000fd5b6002811062000d3b5762000d3a62000cf8565b5b50565b600081905062000d4e8262000d27565b919050565b600062000d608262000d3e565b9050919050565b62000d728162000d53565b82525050565b600060608201905062000d8f600083018662000c43565b818103602083015262000da3818562000cb7565b905062000db4604083018462000d67565b949350505050565b600081519050919050565b600082825260208201905092915050565b6000819050602082019050919050565b600062000df58262000c1b565b9050919050565b62000e078162000de8565b82525050565b600062000e1b838362000dfc565b60208301905092915050565b6000602082019050919050565b600062000e418262000dbc565b62000e4d818562000dc7565b935062000e5a8362000dd8565b8060005b8381101562000e9157815162000e75888262000e0d565b975062000e828362000e27565b92505060018101905062000e5e565b5085935050505092915050565b6000602082019050818103600083015262000eba818462000e34565b905092915050565b600060208201905062000ed9600083018462000c43565b92915050565b60008115159050919050565b62000ef68162000edf565b82525050565b600060208201905062000f13600083018462000eeb565b92915050565b600062000f268262000bc9565b9050919050565b62000f388162000f19565b82525050565b600060208201905062000f55600083018462000f2d565b92915050565b600080fd5b600080fd5b7f4e487b7100000000000000000000000000000000000000000000000000000000600052604160045260246000fd5b62000f9f8262000ca6565b810181811067ffffffffffffffff8211171562000fc15762000fc062000f65565b5b80604052505050565b600062000fd662000b48565b905062000fe4828262000f94565b919050565b600067ffffffffffffffff82111562001007576200100662000f65565b5b620010128262000ca6565b9050602081019050919050565b82818337600083830152505050565b6000620010456200103f8462000fe9565b62000fca565b90508281526020810184848401111562001064576200106362000f60565b5b620010718482856200101f565b509392505050565b600082601f83011262001091576200109062000f5b565b5b8135620010a38482602086016200102e565b91505092915050565b600080600060608486031215620010c857620010c762000b52565b5b6000620010d88682870162000b80565b935050602084013567ffffffffffffffff811115620010fc57620010fb62000b57565b5b6200110a8682870162001079565b92505060406200111d8682870162000b80565b9150509250925092565b6000806000806080858703121562001144576200114362000b52565b5b6000620011548782880162000b80565b9450506020620011678782880162000b80565b935050604085013567ffffffffffffffff8111156200118b576200118a62000b57565b5b620011998782880162001079565b925050606085013567ffffffffffffffff811115620011bd57620011bc62000b57565b5b620011cb8782880162001079565b91505092959194509250565b60008060408385031215620011f157620011f062000b52565b5b6000620012018582860162000b80565b9250506020620012148582860162000b80565b9150509250929050565b620012298162000b5c565b82525050565b600060408201905081810360008301526200124b818562000cb7565b90506200125c60208301846200121e565b9392505050565b7f4e487b7100000000000000000000000000000000000000000000000000000000600052602260045260246000fd5b60006002820490506001821680620012ab57607f821691505b60208210811415620012c257620012c162001263565b5b50919050565b7f3d3d3d3100000000000000000000000000000000000000000000000000000000600082015250565b60006200130060048362000c5f565b91506200130d82620012c8565b602082019050919050565b600060208201905081810360008301526200133381620012f1565b9050919050565b7f3d3d3d3200000000000000000000000000000000000000000000000000000000600082015250565b60006200137260048362000c5f565b91506200137f826200133a565b602082019050919050565b60006020820190508181036000830152620013a58162001363565b9050919050565b7f3d3d3d3d3d3d3d3d3d3d3d000000000000000000000000000000000000000000600082015250565b6000620013e4600b8362000c5f565b9150620013f182620013ac565b602082019050919050565b600060208201905081810360008301526200141781620013d5565b9050919050565b7f4e487b7100000000000000000000000000000000000000000000000000000000600052603260045260246000fd5b620014588162000de8565b82525050565b60006020820190506200147560008301846200144d565b92915050565b7f4e487b7100000000000000000000000000000000000000000000000000000000600052601160045260246000fd5b6000620014b78262000b5c565b91507fffffffffffffffffffffffffffffffffffffffffffffffffffffffffffffffff821415620014ed57620014ec6200147b565b5b600182019050919050565b600081519050620015098162000b66565b92915050565b60006020828403121562001528576200152762000b52565b5b60006200153884828501620014f8565b91505092915050565b60006060820190506200155860008301866200121e565b6200156760208301856200121e565b62001576604083018462000f2d565b949350505050565b60006060820190506200159560008301866200121e565b8181036020830152620015a9818562000cb7565b90508181036040830152620015bf818462000cb7565b9050949350505050565b6000819050919050565b6000620015f4620015ee620015e884620015c9565b62000be9565b62000b5c565b9050919050565b6200160681620015d3565b82525050565b60006060820190506200162360008301866200121e565b620016326020830185620015fb565b62001641604083018462000f2d565b949350505050565b6000620016606200165a8462000fe9565b62000fca565b9050828152602081018484840111156200167f576200167e62000f60565b5b6200168c84828562000c70565b509392505050565b600082601f830112620016ac57620016ab62000f5b565b5b8151620016be84826020860162001649565b91505092915050565b600060208284031215620016e057620016df62000b52565b5b600082015167ffffffffffffffff81111562001701576200170062000b57565b5b6200170f8482850162001694565b9150509291505056fe608060405234801561001057600080fd5b506040516106aa3803806106aa833981810160405281019061003291906102ae565b8160009080519060200190610048929190610057565b5080600181905550505061036b565b82805461006390610339565b90600052602060002090601f01602090048101928261008557600085556100cc565b82601f1061009e57805160ff19168380011785556100cc565b828001600101855582156100cc579182015b828111156100cb5782518255916020019190600101906100b0565b5b5090506100d991906100dd565b5090565b5b808211156100f65760008160009055506001016100de565b5090565b6000604051905090565b600080fd5b600080fd5b600080fd5b600080fd5b6000601f19601f8301169050919050565b7f4e487b7100000000000000000000000000000000000000000000000000000000600052604160045260246000fd5b61016182610118565b810181811067ffffffffffffffff821117156101805761017f610129565b5b80604052505050565b60006101936100fa565b905061019f8282610158565b919050565b600067ffffffffffffffff8211156101bf576101be610129565b5b6101c882610118565b9050602081019050919050565b60005b838110156101f35780820151818401526020810190506101d8565b83811115610202576000848401525b50505050565b600061021b610216846101a4565b610189565b90508281526020810184848401111561023757610236610113565b5b6102428482856101d5565b509392505050565b600082601f83011261025f5761025e61010e565b5b815161026f848260208601610208565b91505092915050565b6000819050919050565b61028b81610278565b811461029657600080fd5b50565b6000815190506102a881610282565b92915050565b600080604083850312156102c5576102c4610104565b5b600083015167ffffffffffffffff8111156102e3576102e2610109565b5b6102ef8582860161024a565b925050602061030085828601610299565b9150509250929050565b7f4e487b7100000000000000000000000000000000000000000000000000000000600052602260045260246000fd5b6000600282049050600182168061035157607f821691505b602082108114156103655761036461030a565b5b50919050565b6103308061037a6000396000f3fe608060405234801561001057600080fd5b50600436106100415760003560e01c8063097ac533146100465780630a59a98c146100645780633c84c5a514610082575b600080fd5b61004e6100a0565b60405161005b9190610163565b60405180910390f35b61006c6100b6565b6040516100799190610217565b60405180910390f35b61008a610144565b6040516100979190610163565b60405180910390f35b600060646001546100b19190610268565b905090565b600080546100c3906102c8565b80601f01602080910402602001604051908101604052809291908181526020018280546100ef906102c8565b801561013c5780601f106101115761010080835404028352916020019161013c565b820191906000526020600020905b81548152906001019060200180831161011f57829003601f168201915b505050505081565b60015481565b6000819050919050565b61015d8161014a565b82525050565b60006020820190506101786000830184610154565b92915050565b600081519050919050565b600082825260208201905092915050565b60005b838110156101b857808201518184015260208101905061019d565b838111156101c7576000848401525b50505050565b6000601f19601f8301169050919050565b60006101e98261017e565b6101f38185610189565b935061020381856020860161019a565b61020c816101cd565b840191505092915050565b6000602082019050818103600083015261023181846101de565b905092915050565b7f4e487b7100000000000000000000000000000000000000000000000000000000600052601260045260246000fd5b60006102738261014a565b915061027e8361014a565b92508261028e5761028d610239565b5b828204905092915050565b7f4e487b7100000000000000000000000000000000000000000000000000000000600052602260045260246000fd5b600060028204905060018216806102e057607f821691505b602082108114156102f4576102f3610299565b5b5091905056fea26469706673582212207037191d3d54100f44881b6fa0c4d38af6e4df59f3a87c2603b366e2102aed5664736f6c634300080a0033608060405234801561001057600080fd5b50604051610709380380610709833981810160405281019061003291906102c6565b82600081905550816001908051906020019061004f92919061006f565b50806002908051906020019061006692919061006f565b505050506103b2565b82805461007b90610380565b90600052602060002090601f01602090048101928261009d57600085556100e4565b82601f106100b657805160ff19168380011785556100e4565b828001600101855582156100e4579182015b828111156100e35782518255916020019190600101906100c8565b5b5090506100f191906100f5565b5090565b5b8082111561010e5760008160009055506001016100f6565b5090565b6000604051905090565b600080fd5b600080fd5b6000819050919050565b61013981610126565b811461014457600080fd5b50565b60008151905061015681610130565b92915050565b600080fd5b600080fd5b6000601f19601f8301169050919050565b7f4e487b7100000000000000000000000000000000000000000000000000000000600052604160045260246000fd5b6101af82610166565b810181811067ffffffffffffffff821117156101ce576101cd610177565b5b80604052505050565b60006101e1610112565b90506101ed82826101a6565b919050565b600067ffffffffffffffff82111561020d5761020c610177565b5b61021682610166565b9050602081019050919050565b60005b83811015610241578082015181840152602081019050610226565b83811115610250576000848401525b50505050565b6000610269610264846101f2565b6101d7565b90508281526020810184848401111561028557610284610161565b5b610290848285610223565b509392505050565b600082601f8301126102ad576102ac61015c565b5b81516102bd848260208601610256565b91505092915050565b6000806000606084860312156102df576102de61011c565b5b60006102ed86828701610147565b935050602084015167ffffffffffffffff81111561030e5761030d610121565b5b61031a86828701610298565b925050604084015167ffffffffffffffff81111561033b5761033a610121565b5b61034786828701610298565b9150509250925092565b7f4e487b7100000000000000000000000000000000000000000000000000000000600052602260045260246000fd5b6000600282049050600182168061039857607f821691505b602082108114156103ac576103ab610351565b5b50919050565b610348806103c16000396000f3fe608060405234801561001057600080fd5b50600436106100415760003560e01c806306fdde0314610046578063820e93f514610064578063af640d0f14610082575b600080fd5b61004e6100a0565b60405161005b919061025b565b60405180910390f35b61006c61012e565b604051610079919061025b565b60405180910390f35b61008a6101bc565b6040516100979190610296565b60405180910390f35b600180546100ad906102e0565b80601f01602080910402602001604051908101604052809291908181526020018280546100d9906102e0565b80156101265780601f106100fb57610100808354040283529160200191610126565b820191906000526020600020905b81548152906001019060200180831161010957829003601f168201915b505050505081565b6002805461013b906102e0565b80601f0160208091040260200160405190810160405280929190818152602001828054610167906102e0565b80156101b45780601f10610189576101008083540402835291602001916101b4565b820191906000526020600020905b81548152906001019060200180831161019757829003601f168201915b505050505081565b60005481565b600081519050919050565b600082825260208201905092915050565b60005b838110156101fc5780820151818401526020810190506101e1565b8381111561020b576000848401525b50505050565b6000601f19601f8301169050919050565b600061022d826101c2565b61023781856101cd565b93506102478185602086016101de565b61025081610211565b840191505092915050565b600060208201905081810360008301526102758184610222565b905092915050565b6000819050919050565b6102908161027d565b82525050565b60006020820190506102ab6000830184610287565b92915050565b7f4e487b7100000000000000000000000000000000000000000000000000000000600052602260045260246000fd5b600060028204905060018216806102f857607f821691505b6020821081141561030c5761030b6102b1565b5b5091905056fea26469706673582212202b0465d659688502b37f95af6fdfe68eeeccb98d4f27fbcea4575663cbf3e57664736f6c634300080a0033a264697066735822122062cf8dfb4fc1f62436e972db2ef2218a1c40e8264e047fcef7fd28df8fa8042864736f6c634300080a0033",
  "immutableReferences": {},
  "source": "// SPDX-License-Identifier: MIT\npragma solidity ^0.8.6;\n\nimport \"./Student.sol\";\nimport \"./Mark.sol\";\nimport \"./Ownable.sol\";\n  \ncontract StudentManager is Ownable {\n\n    enum GradeState {   \n        A,\n        B\n    }\n\n     struct stu_marks {\n        Student _student;   \n        Mark[] _marks;\n        string  _dept;\n        GradeState _gState;\n    }\n\n    event StudentChainStep(uint _itemIndex,uint _grade, address _stuAddress);\n    event MarksEvent(Mark mrk);\n    event logger(string data);\n\n    mapping(uint => stu_marks) public students;\n\n    function createStudent(uint stuIndex,uint id,string memory name,string memory email) public {\n        Student stu = new Student(id,name,email);\n        students[stuIndex]._student = stu;\n        emit StudentChainStep(stuIndex,0, msg.sender);\n    }\n\n    function addMarks(uint stuIndex,string memory subject,uint score) public  {\n        Mark mark = new Mark(subject,score);\n        students[stuIndex]._marks.push(mark);\n        students[stuIndex]._dept = \"MECH\";\n        uint cgpa = mark.getCGPA();\n        if (cgpa > 50){ \n            students[stuIndex]._gState =GradeState.A;\n        } else {\n            students[stuIndex]._gState =GradeState.B;\n        }\n        emit StudentChainStep(stuIndex,uint(students[stuIndex]._gState), msg.sender);\n    }\n\n    function getStudent(uint idx) public returns(Student){\n        return students[idx]._student;\n    }\n\n    function getMarks(uint idx) public returns(Mark[] memory){\n        emit logger(\"===1\");\n        //Mark[] memory mrks = new Mark[](students[idx]._marks.length);\n        emit logger(\"===2\");\n\n\n        for (uint i = 0; i < students[idx]._marks.length; i++) {\n            emit logger(\"===========\");\n        //    Mark mrk  = students[idx]._marks[i];\n        //    mrks[i] = mrk;\n            emit MarksEvent(students[idx]._marks[i]);\n        }\n        \n        return  students[idx]._marks;\n    }\n\n    function getMark(uint idx,uint midx) public returns (string memory,uint){\n        Mark m = students[idx]._marks[midx];\n        //string memory sub = m.subject();\n        //return (\"test\",123);\n        return (m.subject(),m.marks());\n    }\n\n\n}",
  "sourcePath": "/home/siva/Documents/work-git-new/BlockChain/eth-hw-students-marks-react-ui/contracts/StudentsManager.sol",
  "compiler": {
    "name": "solc",
    "version": "0.8.10+commit.fc410830.Emscripten.clang"
  },
  "schemaVersion": "3.4.3",
  "updatedAt": "2021-12-04T18:26:55.501Z",
  "networkType": "ethereum",
  "devdoc": {
    "kind": "dev",
    "methods": {},
    "version": 1
  },
  "userdoc": {
    "kind": "user",
    "methods": {},
    "version": 1
  }
}