{
  "contractName": "StudentManager",
  "abi": [
    {
      "anonymous": false,
      "inputs": [
        {
          "indexed": false,
          "internalType": "uint256",
          "name": "_itemIndex",
          "type": "uint256"
        },
        {
          "indexed": false,
          "internalType": "uint256",
          "name": "_grade",
          "type": "uint256"
        },
        {
          "indexed": false,
          "internalType": "address",
          "name": "_stuAddress",
          "type": "address"
        }
      ],
      "name": "StudentChainStep",
      "type": "event"
    },
    {
      "inputs": [],
      "name": "_owner",
      "outputs": [
        {
          "internalType": "address",
          "name": "",
          "type": "address"
        }
      ],
      "stateMutability": "view",
      "type": "function",
      "constant": true
    },
    {
      "inputs": [],
      "name": "isOwner",
      "outputs": [
        {
          "internalType": "bool",
          "name": "",
          "type": "bool"
        }
      ],
      "stateMutability": "view",
      "type": "function",
      "constant": true
    },
    {
      "inputs": [
        {
          "internalType": "uint256",
          "name": "",
          "type": "uint256"
        }
      ],
      "name": "students",
      "outputs": [
        {
          "internalType": "contract Student",
          "name": "_student",
          "type": "address"
        },
        {
          "internalType": "string",
          "name": "_dept",
          "type": "string"
        },
        {
          "internalType": "enum StudentManager.GradeState",
          "name": "_gState",
          "type": "uint8"
        }
      ],
      "stateMutability": "view",
      "type": "function",
      "constant": true
    },
    {
      "inputs": [
        {
          "internalType": "uint256",
          "name": "stuIndex",
          "type": "uint256"
        },
        {
          "internalType": "uint256",
          "name": "id",
          "type": "uint256"
        },
        {
          "internalType": "string",
          "name": "name",
          "type": "string"
        },
        {
          "internalType": "string",
          "name": "email",
          "type": "string"
        }
      ],
      "name": "createStudent",
      "outputs": [],
      "stateMutability": "nonpayable",
      "type": "function"
    },
    {
      "inputs": [
        {
          "internalType": "uint256",
          "name": "stuIndex",
          "type": "uint256"
        },
        {
          "internalType": "string",
          "name": "subject",
          "type": "string"
        },
        {
          "internalType": "uint256",
          "name": "score",
          "type": "uint256"
        }
      ],
      "name": "addMarks",
      "outputs": [],
      "stateMutability": "nonpayable",
      "type": "function"
    },
    {
      "inputs": [
        {
          "internalType": "uint256",
          "name": "idx",
          "type": "uint256"
        }
      ],
      "name": "getStudent",
      "outputs": [
        {
          "internalType": "contract Student",
          "name": "",
          "type": "address"
        }
      ],
      "stateMutability": "nonpayable",
      "type": "function"
    },
    {
      "inputs": [
        {
          "internalType": "uint256",
          "name": "idx",
          "type": "uint256"
        }
      ],
      "name": "getMarks",
      "outputs": [
        {
          "internalType": "contract Mark[]",
          "name": "",
          "type": "address[]"
        }
      ],
      "stateMutability": "nonpayable",
      "type": "function"
    }
  ],
  "bytecode": "0x608060405234801561001057600080fd5b50336000806101000a81548173ffffffffffffffffffffffffffffffffffffffff021916908373ffffffffffffffffffffffffffffffffffffffff160217905550611eb7806100606000396000f3fe60806040523480156200001157600080fd5b5060043610620000885760003560e01c80638f32d59b11620000635780638f32d59b1462000131578063b2bdfa7b1462000153578063bb9f4bd41462000175578063cb0c7c0c14620001955762000088565b806306ead22e146200008d5780630e6573b614620000c5578063642f916314620000fb575b600080fd5b620000ab6004803603810190620000a5919062000893565b620001b5565b604051620000bc9392919062000a74565b60405180910390f35b620000e36004803603810190620000dd919062000893565b6200029c565b604051620000f2919062000b9a565b60405180910390f35b62000119600480360381019062000113919062000893565b62000342565b60405162000128919062000bbe565b60405180910390f35b6200013b62000382565b6040516200014a919062000bf8565b60405180910390f35b6200015d620003d9565b6040516200016c919062000c3a565b60405180910390f35b6200019360048036038101906200018d919062000da8565b620003fd565b005b620001b36004803603810190620001ad919062000e23565b6200069d565b005b60016020528060005260406000206000915090508060000160009054906101000a900473ffffffffffffffffffffffffffffffffffffffff1690806002018054620002009062000f02565b80601f01602080910402602001604051908101604052809291908181526020018280546200022e9062000f02565b80156200027f5780601f1062000253576101008083540402835291602001916200027f565b820191906000526020600020905b8154815290600101906020018083116200026157829003601f168201915b5050505050908060030160009054906101000a900460ff16905083565b6060600160008381526020019081526020016000206001018054806020026020016040519081016040528092919081815260200182805480156200033657602002820191906000526020600020905b8160009054906101000a900473ffffffffffffffffffffffffffffffffffffffff1673ffffffffffffffffffffffffffffffffffffffff1681526020019060010190808311620002eb575b50505050509050919050565b60006001600083815260200190815260200160002060000160009054906101000a900473ffffffffffffffffffffffffffffffffffffffff169050919050565b60008060009054906101000a900473ffffffffffffffffffffffffffffffffffffffff1673ffffffffffffffffffffffffffffffffffffffff163373ffffffffffffffffffffffffffffffffffffffff1614905090565b60008054906101000a900473ffffffffffffffffffffffffffffffffffffffff1681565b600082826040516200040f9062000778565b6200041c92919062000f49565b604051809103906000f08015801562000439573d6000803e3d6000fd5b50905060016000858152602001908152602001600020600101819080600181540180825580915050600190039060005260206000200160009091909190916101000a81548173ffffffffffffffffffffffffffffffffffffffff021916908373ffffffffffffffffffffffffffffffffffffffff1602179055506040518060400160405280600481526020017f4d454348000000000000000000000000000000000000000000000000000000008152506001600086815260200190815260200160002060020190805190602001906200051492919062000786565b5060008173ffffffffffffffffffffffffffffffffffffffff1663097ac5336040518163ffffffff1660e01b81526004016020604051808303816000875af115801562000565573d6000803e3d6000fd5b505050506040513d601f19601f820116820180604052508101906200058b919062000f94565b90506032811115620005df5760006001600087815260200190815260200160002060030160006101000a81548160ff02191690836001811115620005d457620005d3620009f4565b5b021790555062000621565b600180600087815260200190815260200160002060030160006101000a81548160ff021916908360018111156200061b576200061a620009f4565b5b02179055505b7fbe17da7e4e64be98177252e41c28bbca6920b218f5bd8d04c32de18f7af65094856001600088815260200190815260200160002060030160009054906101000a900460ff1660018111156200067c576200067b620009f4565b5b336040516200068e9392919062000fc6565b60405180910390a15050505050565b6000838383604051620006b09062000817565b620006be9392919062001003565b604051809103906000f080158015620006db573d6000803e3d6000fd5b509050806001600087815260200190815260200160002060000160006101000a81548173ffffffffffffffffffffffffffffffffffffffff021916908373ffffffffffffffffffffffffffffffffffffffff1602179055507fbe17da7e4e64be98177252e41c28bbca6920b218f5bd8d04c32de18f7af6509485600033604051620007699392919062001091565b60405180910390a15050505050565b6106aa80620010cf83390190565b828054620007949062000f02565b90600052602060002090601f016020900481019282620007b8576000855562000804565b82601f10620007d357805160ff191683800117855562000804565b8280016001018555821562000804579182015b8281111562000803578251825591602001919060010190620007e6565b5b50905062000813919062000825565b5090565b610709806200177983390190565b5b808211156200084057600081600090555060010162000826565b5090565b6000604051905090565b600080fd5b600080fd5b6000819050919050565b6200086d8162000858565b81146200087957600080fd5b50565b6000813590506200088d8162000862565b92915050565b600060208284031215620008ac57620008ab6200084e565b5b6000620008bc848285016200087c565b91505092915050565b600073ffffffffffffffffffffffffffffffffffffffff82169050919050565b6000819050919050565b6000620009106200090a6200090484620008c5565b620008e5565b620008c5565b9050919050565b60006200092482620008ef565b9050919050565b6000620009388262000917565b9050919050565b6200094a816200092b565b82525050565b600081519050919050565b600082825260208201905092915050565b60005b838110156200098c5780820151818401526020810190506200096f565b838111156200099c576000848401525b50505050565b6000601f19601f8301169050919050565b6000620009c08262000950565b620009cc81856200095b565b9350620009de8185602086016200096c565b620009e981620009a2565b840191505092915050565b7f4e487b7100000000000000000000000000000000000000000000000000000000600052602160045260246000fd5b6002811062000a375762000a36620009f4565b5b50565b600081905062000a4a8262000a23565b919050565b600062000a5c8262000a3a565b9050919050565b62000a6e8162000a4f565b82525050565b600060608201905062000a8b60008301866200093f565b818103602083015262000a9f8185620009b3565b905062000ab0604083018462000a63565b949350505050565b600081519050919050565b600082825260208201905092915050565b6000819050602082019050919050565b600062000af18262000917565b9050919050565b62000b038162000ae4565b82525050565b600062000b17838362000af8565b60208301905092915050565b6000602082019050919050565b600062000b3d8262000ab8565b62000b49818562000ac3565b935062000b568362000ad4565b8060005b8381101562000b8d57815162000b71888262000b09565b975062000b7e8362000b23565b92505060018101905062000b5a565b5085935050505092915050565b6000602082019050818103600083015262000bb6818462000b30565b905092915050565b600060208201905062000bd560008301846200093f565b92915050565b60008115159050919050565b62000bf28162000bdb565b82525050565b600060208201905062000c0f600083018462000be7565b92915050565b600062000c2282620008c5565b9050919050565b62000c348162000c15565b82525050565b600060208201905062000c51600083018462000c29565b92915050565b600080fd5b600080fd5b7f4e487b7100000000000000000000000000000000000000000000000000000000600052604160045260246000fd5b62000c9b82620009a2565b810181811067ffffffffffffffff8211171562000cbd5762000cbc62000c61565b5b80604052505050565b600062000cd262000844565b905062000ce0828262000c90565b919050565b600067ffffffffffffffff82111562000d035762000d0262000c61565b5b62000d0e82620009a2565b9050602081019050919050565b82818337600083830152505050565b600062000d4162000d3b8462000ce5565b62000cc6565b90508281526020810184848401111562000d605762000d5f62000c5c565b5b62000d6d84828562000d1b565b509392505050565b600082601f83011262000d8d5762000d8c62000c57565b5b813562000d9f84826020860162000d2a565b91505092915050565b60008060006060848603121562000dc45762000dc36200084e565b5b600062000dd4868287016200087c565b935050602084013567ffffffffffffffff81111562000df85762000df762000853565b5b62000e068682870162000d75565b925050604062000e19868287016200087c565b9150509250925092565b6000806000806080858703121562000e405762000e3f6200084e565b5b600062000e50878288016200087c565b945050602062000e63878288016200087c565b935050604085013567ffffffffffffffff81111562000e875762000e8662000853565b5b62000e958782880162000d75565b925050606085013567ffffffffffffffff81111562000eb95762000eb862000853565b5b62000ec78782880162000d75565b91505092959194509250565b7f4e487b7100000000000000000000000000000000000000000000000000000000600052602260045260246000fd5b6000600282049050600182168062000f1b57607f821691505b6020821081141562000f325762000f3162000ed3565b5b50919050565b62000f438162000858565b82525050565b6000604082019050818103600083015262000f658185620009b3565b905062000f76602083018462000f38565b9392505050565b60008151905062000f8e8162000862565b92915050565b60006020828403121562000fad5762000fac6200084e565b5b600062000fbd8482850162000f7d565b91505092915050565b600060608201905062000fdd600083018662000f38565b62000fec602083018562000f38565b62000ffb604083018462000c29565b949350505050565b60006060820190506200101a600083018662000f38565b81810360208301526200102e8185620009b3565b90508181036040830152620010448184620009b3565b9050949350505050565b6000819050919050565b600062001079620010736200106d846200104e565b620008e5565b62000858565b9050919050565b6200108b8162001058565b82525050565b6000606082019050620010a8600083018662000f38565b620010b7602083018562001080565b620010c6604083018462000c29565b94935050505056fe608060405234801561001057600080fd5b506040516106aa3803806106aa833981810160405281019061003291906102ae565b8160009080519060200190610048929190610057565b5080600181905550505061036b565b82805461006390610339565b90600052602060002090601f01602090048101928261008557600085556100cc565b82601f1061009e57805160ff19168380011785556100cc565b828001600101855582156100cc579182015b828111156100cb5782518255916020019190600101906100b0565b5b5090506100d991906100dd565b5090565b5b808211156100f65760008160009055506001016100de565b5090565b6000604051905090565b600080fd5b600080fd5b600080fd5b600080fd5b6000601f19601f8301169050919050565b7f4e487b7100000000000000000000000000000000000000000000000000000000600052604160045260246000fd5b61016182610118565b810181811067ffffffffffffffff821117156101805761017f610129565b5b80604052505050565b60006101936100fa565b905061019f8282610158565b919050565b600067ffffffffffffffff8211156101bf576101be610129565b5b6101c882610118565b9050602081019050919050565b60005b838110156101f35780820151818401526020810190506101d8565b83811115610202576000848401525b50505050565b600061021b610216846101a4565b610189565b90508281526020810184848401111561023757610236610113565b5b6102428482856101d5565b509392505050565b600082601f83011261025f5761025e61010e565b5b815161026f848260208601610208565b91505092915050565b6000819050919050565b61028b81610278565b811461029657600080fd5b50565b6000815190506102a881610282565b92915050565b600080604083850312156102c5576102c4610104565b5b600083015167ffffffffffffffff8111156102e3576102e2610109565b5b6102ef8582860161024a565b925050602061030085828601610299565b9150509250929050565b7f4e487b7100000000000000000000000000000000000000000000000000000000600052602260045260246000fd5b6000600282049050600182168061035157607f821691505b602082108114156103655761036461030a565b5b50919050565b6103308061037a6000396000f3fe608060405234801561001057600080fd5b50600436106100415760003560e01c8063097ac533146100465780630a59a98c146100645780633c84c5a514610082575b600080fd5b61004e6100a0565b60405161005b9190610163565b60405180910390f35b61006c6100b6565b6040516100799190610217565b60405180910390f35b61008a610144565b6040516100979190610163565b60405180910390f35b600060646001546100b19190610268565b905090565b600080546100c3906102c8565b80601f01602080910402602001604051908101604052809291908181526020018280546100ef906102c8565b801561013c5780601f106101115761010080835404028352916020019161013c565b820191906000526020600020905b81548152906001019060200180831161011f57829003601f168201915b505050505081565b60015481565b6000819050919050565b61015d8161014a565b82525050565b60006020820190506101786000830184610154565b92915050565b600081519050919050565b600082825260208201905092915050565b60005b838110156101b857808201518184015260208101905061019d565b838111156101c7576000848401525b50505050565b6000601f19601f8301169050919050565b60006101e98261017e565b6101f38185610189565b935061020381856020860161019a565b61020c816101cd565b840191505092915050565b6000602082019050818103600083015261023181846101de565b905092915050565b7f4e487b7100000000000000000000000000000000000000000000000000000000600052601260045260246000fd5b60006102738261014a565b915061027e8361014a565b92508261028e5761028d610239565b5b828204905092915050565b7f4e487b7100000000000000000000000000000000000000000000000000000000600052602260045260246000fd5b600060028204905060018216806102e057607f821691505b602082108114156102f4576102f3610299565b5b5091905056fea26469706673582212207c2ab4e4f5018e2364b1896bb0cd8755d382739d86a87ecad51648d34e8a661364736f6c634300080a0033608060405234801561001057600080fd5b50604051610709380380610709833981810160405281019061003291906102c6565b82600081905550816001908051906020019061004f92919061006f565b50806002908051906020019061006692919061006f565b505050506103b2565b82805461007b90610380565b90600052602060002090601f01602090048101928261009d57600085556100e4565b82601f106100b657805160ff19168380011785556100e4565b828001600101855582156100e4579182015b828111156100e35782518255916020019190600101906100c8565b5b5090506100f191906100f5565b5090565b5b8082111561010e5760008160009055506001016100f6565b5090565b6000604051905090565b600080fd5b600080fd5b6000819050919050565b61013981610126565b811461014457600080fd5b50565b60008151905061015681610130565b92915050565b600080fd5b600080fd5b6000601f19601f8301169050919050565b7f4e487b7100000000000000000000000000000000000000000000000000000000600052604160045260246000fd5b6101af82610166565b810181811067ffffffffffffffff821117156101ce576101cd610177565b5b80604052505050565b60006101e1610112565b90506101ed82826101a6565b919050565b600067ffffffffffffffff82111561020d5761020c610177565b5b61021682610166565b9050602081019050919050565b60005b83811015610241578082015181840152602081019050610226565b83811115610250576000848401525b50505050565b6000610269610264846101f2565b6101d7565b90508281526020810184848401111561028557610284610161565b5b610290848285610223565b509392505050565b600082601f8301126102ad576102ac61015c565b5b81516102bd848260208601610256565b91505092915050565b6000806000606084860312156102df576102de61011c565b5b60006102ed86828701610147565b935050602084015167ffffffffffffffff81111561030e5761030d610121565b5b61031a86828701610298565b925050604084015167ffffffffffffffff81111561033b5761033a610121565b5b61034786828701610298565b9150509250925092565b7f4e487b7100000000000000000000000000000000000000000000000000000000600052602260045260246000fd5b6000600282049050600182168061039857607f821691505b602082108114156103ac576103ab610351565b5b50919050565b610348806103c16000396000f3fe608060405234801561001057600080fd5b50600436106100415760003560e01c806306fdde0314610046578063820e93f514610064578063af640d0f14610082575b600080fd5b61004e6100a0565b60405161005b919061025b565b60405180910390f35b61006c61012e565b604051610079919061025b565b60405180910390f35b61008a6101bc565b6040516100979190610296565b60405180910390f35b600180546100ad906102e0565b80601f01602080910402602001604051908101604052809291908181526020018280546100d9906102e0565b80156101265780601f106100fb57610100808354040283529160200191610126565b820191906000526020600020905b81548152906001019060200180831161010957829003601f168201915b505050505081565b6002805461013b906102e0565b80601f0160208091040260200160405190810160405280929190818152602001828054610167906102e0565b80156101b45780601f10610189576101008083540402835291602001916101b4565b820191906000526020600020905b81548152906001019060200180831161019757829003601f168201915b505050505081565b60005481565b600081519050919050565b600082825260208201905092915050565b60005b838110156101fc5780820151818401526020810190506101e1565b8381111561020b576000848401525b50505050565b6000601f19601f8301169050919050565b600061022d826101c2565b61023781856101cd565b93506102478185602086016101de565b61025081610211565b840191505092915050565b600060208201905081810360008301526102758184610222565b905092915050565b6000819050919050565b6102908161027d565b82525050565b60006020820190506102ab6000830184610287565b92915050565b7f4e487b7100000000000000000000000000000000000000000000000000000000600052602260045260246000fd5b600060028204905060018216806102f857607f821691505b6020821081141561030c5761030b6102b1565b5b5091905056fea26469706673582212202b0465d659688502b37f95af6fdfe68eeeccb98d4f27fbcea4575663cbf3e57664736f6c634300080a0033a2646970667358221220fe72ec3025bead976dcd712a5aedeea1e738f827825481618d937a4de11eeac564736f6c634300080a0033",
  "immutableReferences": {},
  "source": "// SPDX-License-Identifier: MIT\npragma solidity ^0.8.6;\n\nimport \"./Student.sol\";\nimport \"./Mark.sol\";\nimport \"./Ownable.sol\";\n  \ncontract StudentManager is Ownable {\n\n    enum GradeState {   \n        A,\n        B\n    }\n\n     struct stu_marks {\n        Student _student;   \n        Mark[] _marks;\n        string  _dept;\n        GradeState _gState;\n    }\n\n    event StudentChainStep(uint _itemIndex,uint _grade, address _stuAddress);\n\n    mapping(uint => stu_marks) public students;\n\n    function createStudent(uint stuIndex,uint id,string memory name,string memory email) public {\n        Student stu = new Student(id,name,email);\n        students[stuIndex]._student = stu;\n        emit StudentChainStep(stuIndex,0, msg.sender);\n    }\n\n    function addMarks(uint stuIndex,string memory subject,uint score) public  {\n        Mark mark = new Mark(subject,score);\n        students[stuIndex]._marks.push(mark);\n        students[stuIndex]._dept = \"MECH\";\n        uint cgpa = mark.getCGPA();\n        if (cgpa > 50){ \n            students[stuIndex]._gState =GradeState.A;\n        } else {\n            students[stuIndex]._gState =GradeState.B;\n        }\n        emit StudentChainStep(stuIndex,uint(students[stuIndex]._gState), msg.sender);\n    }\n\n    function getStudent(uint idx) public returns(Student){\n        return students[idx]._student;\n    }\n\n    function getMarks(uint idx) public returns(Mark[] memory){\n        return students[idx]._marks;\n    }\n\n\n}",
  "sourcePath": "/home/siva/Documents/work-git-new/BlockChain/eth-hw-students-marks-react-ui/contracts/StudentsManager.sol",
  "compiler": {
    "name": "solc",
    "version": "0.8.10+commit.fc410830.Emscripten.clang"
  },
  "schemaVersion": "3.4.3",
  "updatedAt": "2021-11-27T17:42:43.934Z",
  "networkType": "ethereum",
  "devdoc": {
    "kind": "dev",
    "methods": {},
    "version": 1
  },
  "userdoc": {
    "kind": "user",
    "methods": {},
    "version": 1
  }
}