{
	"data": {
		"bytecode": {
			"linkReferences": {},
			"object": "608060405234801561001057600080fd5b50336000806101000a81548173ffffffffffffffffffffffffffffffffffffffff021916908373ffffffffffffffffffffffffffffffffffffffff160217905550611e8b806100606000396000f3fe60806040523480156200001157600080fd5b5060043610620000885760003560e01c80638f32d59b11620000635780638f32d59b1462000131578063b2bdfa7b1462000153578063bb9f4bd41462000175578063cb0c7c0c14620001955762000088565b806306ead22e146200008d5780630e6573b614620000c5578063642f916314620000fb575b600080fd5b620000ab6004803603810190620000a5919062000900565b620001b5565b604051620000bc9392919062000c46565b60405180910390f35b620000e36004803603810190620000dd919062000900565b6200029c565b604051620000f2919062000be8565b60405180910390f35b62000119600480360381019062000113919062000900565b62000342565b60405162000128919062000c29565b60405180910390f35b6200013b62000382565b6040516200014a919062000c0c565b60405180910390f35b6200015d620003d9565b6040516200016c919062000bcb565b60405180910390f35b6200019360048036038101906200018d919062000964565b620003fd565b005b620001b36004803603810190620001ad9190620009df565b620006ad565b005b60016020528060005260406000206000915090508060000160009054906101000a900473ffffffffffffffffffffffffffffffffffffffff1690806002018054620002009062000f53565b80601f01602080910402602001604051908101604052809291908181526020018280546200022e9062000f53565b80156200027f5780601f1062000253576101008083540402835291602001916200027f565b820191906000526020600020905b8154815290600101906020018083116200026157829003601f168201915b5050505050908060030160009054906101000a900460ff16905083565b6060600160008381526020019081526020016000206001018054806020026020016040519081016040528092919081815260200182805480156200033657602002820191906000526020600020905b8160009054906101000a900473ffffffffffffffffffffffffffffffffffffffff1673ffffffffffffffffffffffffffffffffffffffff1681526020019060010190808311620002eb575b50505050509050919050565b60006001600083815260200190815260200160002060000160009054906101000a900473ffffffffffffffffffffffffffffffffffffffff169050919050565b60008060009054906101000a900473ffffffffffffffffffffffffffffffffffffffff1673ffffffffffffffffffffffffffffffffffffffff163373ffffffffffffffffffffffffffffffffffffffff1614905090565b60008054906101000a900473ffffffffffffffffffffffffffffffffffffffff1681565b600082826040516200040f9062000788565b6200041c92919062000c8a565b604051809103906000f08015801562000439573d6000803e3d6000fd5b50905060016000858152602001908152602001600020600101819080600181540180825580915050600190039060005260206000200160009091909190916101000a81548173ffffffffffffffffffffffffffffffffffffffff021916908373ffffffffffffffffffffffffffffffffffffffff1602179055506040518060400160405280600481526020017f4d454348000000000000000000000000000000000000000000000000000000008152506001600086815260200190815260200160002060020190805190602001906200051492919062000796565b5060008173ffffffffffffffffffffffffffffffffffffffff1663097ac5336040518163ffffffff1660e01b8152600401602060405180830381600087803b1580156200056057600080fd5b505af115801562000575573d6000803e3d6000fd5b505050506040513d601f19601f820116820180604052508101906200059b919062000932565b90506032811115620005ef5760006001600087815260200190815260200160002060030160006101000a81548160ff02191690836001811115620005e457620005e362000fbf565b5b021790555062000631565b600180600087815260200190815260200160002060030160006101000a81548160ff021916908360018111156200062b576200062a62000fbf565b5b02179055505b7fbe17da7e4e64be98177252e41c28bbca6920b218f5bd8d04c32de18f7af65094856001600088815260200190815260200160002060030160009054906101000a900460ff1660018111156200068c576200068b62000fbf565b5b336040516200069e9392919062000d46565b60405180910390a15050505050565b6000838383604051620006c09062000827565b620006ce9392919062000cfb565b604051809103906000f080158015620006eb573d6000803e3d6000fd5b509050806001600087815260200190815260200160002060000160006101000a81548173ffffffffffffffffffffffffffffffffffffffff021916908373ffffffffffffffffffffffffffffffffffffffff1602179055507fbe17da7e4e64be98177252e41c28bbca6920b218f5bd8d04c32de18f7af6509485600033604051620007799392919062000cbe565b60405180910390a15050505050565b6106aa80620010a383390190565b828054620007a49062000f53565b90600052602060002090601f016020900481019282620007c8576000855562000814565b82601f10620007e357805160ff191683800117855562000814565b8280016001018555821562000814579182015b8281111562000813578251825591602001919060010190620007f6565b5b50905062000823919062000835565b5090565b610709806200174d83390190565b5b808211156200085057600081600090555060010162000836565b5090565b60006200086b620008658462000dac565b62000d83565b9050828152602081018484840111156200088a576200088962001051565b5b6200089784828562000f0e565b509392505050565b600082601f830112620008b757620008b66200104c565b5b8135620008c984826020860162000854565b91505092915050565b600081359050620008e38162001088565b92915050565b600081519050620008fa8162001088565b92915050565b6000602082840312156200091957620009186200105b565b5b60006200092984828501620008d2565b91505092915050565b6000602082840312156200094b576200094a6200105b565b5b60006200095b84828501620008e9565b91505092915050565b60008060006060848603121562000980576200097f6200105b565b5b60006200099086828701620008d2565b935050602084013567ffffffffffffffff811115620009b457620009b362001056565b5b620009c2868287016200089f565b9250506040620009d586828701620008d2565b9150509250925092565b60008060008060808587031215620009fc57620009fb6200105b565b5b600062000a0c87828801620008d2565b945050602062000a1f87828801620008d2565b935050604085013567ffffffffffffffff81111562000a435762000a4262001056565b5b62000a51878288016200089f565b925050606085013567ffffffffffffffff81111562000a755762000a7462001056565b5b62000a83878288016200089f565b91505092959194509250565b600062000a9d838362000b35565b60208301905092915050565b62000ab48162000e37565b82525050565b600062000ac78262000df2565b62000ad3818562000e15565b935062000ae08362000de2565b8060005b8381101562000b1757815162000afb888262000a8f565b975062000b088362000e08565b92505060018101905062000ae4565b5085935050505092915050565b62000b2f8162000e4b565b82525050565b62000b408162000e96565b82525050565b62000b518162000ebe565b82525050565b62000b628162000ee6565b82525050565b62000b738162000efa565b82525050565b600062000b868262000dfd565b62000b92818562000e26565b935062000ba481856020860162000f1d565b62000baf8162001060565b840191505092915050565b62000bc58162000e8c565b82525050565b600060208201905062000be2600083018462000aa9565b92915050565b6000602082019050818103600083015262000c04818462000aba565b905092915050565b600060208201905062000c23600083018462000b24565b92915050565b600060208201905062000c40600083018462000b46565b92915050565b600060608201905062000c5d600083018662000b46565b818103602083015262000c71818562000b79565b905062000c82604083018462000b57565b949350505050565b6000604082019050818103600083015262000ca6818562000b79565b905062000cb7602083018462000bba565b9392505050565b600060608201905062000cd5600083018662000bba565b62000ce4602083018562000b68565b62000cf3604083018462000aa9565b949350505050565b600060608201905062000d12600083018662000bba565b818103602083015262000d26818562000b79565b9050818103604083015262000d3c818462000b79565b9050949350505050565b600060608201905062000d5d600083018662000bba565b62000d6c602083018562000bba565b62000d7b604083018462000aa9565b949350505050565b600062000d8f62000da2565b905062000d9d828262000f89565b919050565b6000604051905090565b600067ffffffffffffffff82111562000dca5762000dc96200101d565b5b62000dd58262001060565b9050602081019050919050565b6000819050602082019050919050565b600081519050919050565b600081519050919050565b6000602082019050919050565b600082825260208201905092915050565b600082825260208201905092915050565b600062000e448262000e6c565b9050919050565b60008115159050919050565b600081905062000e678262001071565b919050565b600073ffffffffffffffffffffffffffffffffffffffff82169050919050565b6000819050919050565b600062000ea38262000eaa565b9050919050565b600062000eb78262000e6c565b9050919050565b600062000ecb8262000ed2565b9050919050565b600062000edf8262000e6c565b9050919050565b600062000ef38262000e57565b9050919050565b600062000f078262000e8c565b9050919050565b82818337600083830152505050565b60005b8381101562000f3d57808201518184015260208101905062000f20565b8381111562000f4d576000848401525b50505050565b6000600282049050600182168062000f6c57607f821691505b6020821081141562000f835762000f8262000fee565b5b50919050565b62000f948262001060565b810181811067ffffffffffffffff8211171562000fb65762000fb56200101d565b5b80604052505050565b7f4e487b7100000000000000000000000000000000000000000000000000000000600052602160045260246000fd5b7f4e487b7100000000000000000000000000000000000000000000000000000000600052602260045260246000fd5b7f4e487b7100000000000000000000000000000000000000000000000000000000600052604160045260246000fd5b600080fd5b600080fd5b600080fd5b600080fd5b6000601f19601f8301169050919050565b6002811062001085576200108462000fbf565b5b50565b620010938162000e8c565b81146200109f57600080fd5b5056fe608060405234801561001057600080fd5b506040516106aa3803806106aa8339818101604052810190610032919061017f565b8160009080519060200190610048929190610057565b5080600181905550505061036b565b8280546100639061026e565b90600052602060002090601f01602090048101928261008557600085556100cc565b82601f1061009e57805160ff19168380011785556100cc565b828001600101855582156100cc579182015b828111156100cb5782518255916020019190600101906100b0565b5b5090506100d991906100dd565b5090565b5b808211156100f65760008160009055506001016100de565b5090565b600061010d61010884610200565b6101db565b90508281526020810184848401111561012957610128610334565b5b61013484828561023b565b509392505050565b600082601f8301126101515761015061032f565b5b81516101618482602086016100fa565b91505092915050565b60008151905061017981610354565b92915050565b600080604083850312156101965761019561033e565b5b600083015167ffffffffffffffff8111156101b4576101b3610339565b5b6101c08582860161013c565b92505060206101d18582860161016a565b9150509250929050565b60006101e56101f6565b90506101f182826102a0565b919050565b6000604051905090565b600067ffffffffffffffff82111561021b5761021a610300565b5b61022482610343565b9050602081019050919050565b6000819050919050565b60005b8381101561025957808201518184015260208101905061023e565b83811115610268576000848401525b50505050565b6000600282049050600182168061028657607f821691505b6020821081141561029a576102996102d1565b5b50919050565b6102a982610343565b810181811067ffffffffffffffff821117156102c8576102c7610300565b5b80604052505050565b7f4e487b7100000000000000000000000000000000000000000000000000000000600052602260045260246000fd5b7f4e487b7100000000000000000000000000000000000000000000000000000000600052604160045260246000fd5b600080fd5b600080fd5b600080fd5b600080fd5b6000601f19601f8301169050919050565b61035d81610231565b811461036857600080fd5b50565b6103308061037a6000396000f3fe608060405234801561001057600080fd5b50600436106100415760003560e01c8063097ac533146100465780630a59a98c146100645780633c84c5a514610082575b600080fd5b61004e6100a0565b60405161005b91906101b4565b60405180910390f35b61006c6100b6565b6040516100799190610192565b60405180910390f35b61008a610144565b60405161009791906101b4565b60405180910390f35b600060646001546100b191906101eb565b905090565b600080546100c390610259565b80601f01602080910402602001604051908101604052809291908181526020018280546100ef90610259565b801561013c5780601f106101115761010080835404028352916020019161013c565b820191906000526020600020905b81548152906001019060200180831161011f57829003601f168201915b505050505081565b60015481565b6000610155826101cf565b61015f81856101da565b935061016f818560208601610226565b610178816102e9565b840191505092915050565b61018c8161021c565b82525050565b600060208201905081810360008301526101ac818461014a565b905092915050565b60006020820190506101c96000830184610183565b92915050565b600081519050919050565b600082825260208201905092915050565b60006101f68261021c565b91506102018361021c565b9250826102115761021061028b565b5b828204905092915050565b6000819050919050565b60005b83811015610244578082015181840152602081019050610229565b83811115610253576000848401525b50505050565b6000600282049050600182168061027157607f821691505b60208210811415610285576102846102ba565b5b50919050565b7f4e487b7100000000000000000000000000000000000000000000000000000000600052601260045260246000fd5b7f4e487b7100000000000000000000000000000000000000000000000000000000600052602260045260246000fd5b6000601f19601f830116905091905056fea2646970667358221220d0435e0aae5b353fd917be0248281c4bc98fa46763bc90639d9d9029d743279164736f6c63430008060033608060405234801561001057600080fd5b5060405161070938038061070983398181016040528101906100329190610197565b82600081905550816001908051906020019061004f92919061006f565b50806002908051906020019061006692919061006f565b505050506103b2565b82805461007b906102b5565b90600052602060002090601f01602090048101928261009d57600085556100e4565b82601f106100b657805160ff19168380011785556100e4565b828001600101855582156100e4579182015b828111156100e35782518255916020019190600101906100c8565b5b5090506100f191906100f5565b5090565b5b8082111561010e5760008160009055506001016100f6565b5090565b600061012561012084610247565b610222565b9050828152602081018484840111156101415761014061037b565b5b61014c848285610282565b509392505050565b600082601f83011261016957610168610376565b5b8151610179848260208601610112565b91505092915050565b6000815190506101918161039b565b92915050565b6000806000606084860312156101b0576101af610385565b5b60006101be86828701610182565b935050602084015167ffffffffffffffff8111156101df576101de610380565b5b6101eb86828701610154565b925050604084015167ffffffffffffffff81111561020c5761020b610380565b5b61021886828701610154565b9150509250925092565b600061022c61023d565b905061023882826102e7565b919050565b6000604051905090565b600067ffffffffffffffff82111561026257610261610347565b5b61026b8261038a565b9050602081019050919050565b6000819050919050565b60005b838110156102a0578082015181840152602081019050610285565b838111156102af576000848401525b50505050565b600060028204905060018216806102cd57607f821691505b602082108114156102e1576102e0610318565b5b50919050565b6102f08261038a565b810181811067ffffffffffffffff8211171561030f5761030e610347565b5b80604052505050565b7f4e487b7100000000000000000000000000000000000000000000000000000000600052602260045260246000fd5b7f4e487b7100000000000000000000000000000000000000000000000000000000600052604160045260246000fd5b600080fd5b600080fd5b600080fd5b600080fd5b6000601f19601f8301169050919050565b6103a481610278565b81146103af57600080fd5b50565b610348806103c16000396000f3fe608060405234801561001057600080fd5b50600436106100415760003560e01c806306fdde0314610046578063820e93f514610064578063af640d0f14610082575b600080fd5b61004e6100a0565b60405161005b919061020a565b60405180910390f35b61006c61012e565b604051610079919061020a565b60405180910390f35b61008a6101bc565b604051610097919061022c565b60405180910390f35b600180546100ad906102a0565b80601f01602080910402602001604051908101604052809291908181526020018280546100d9906102a0565b80156101265780601f106100fb57610100808354040283529160200191610126565b820191906000526020600020905b81548152906001019060200180831161010957829003601f168201915b505050505081565b6002805461013b906102a0565b80601f0160208091040260200160405190810160405280929190818152602001828054610167906102a0565b80156101b45780601f10610189576101008083540402835291602001916101b4565b820191906000526020600020905b81548152906001019060200180831161019757829003601f168201915b505050505081565b60005481565b60006101cd82610247565b6101d78185610252565b93506101e781856020860161026d565b6101f081610301565b840191505092915050565b61020481610263565b82525050565b6000602082019050818103600083015261022481846101c2565b905092915050565b600060208201905061024160008301846101fb565b92915050565b600081519050919050565b600082825260208201905092915050565b6000819050919050565b60005b8381101561028b578082015181840152602081019050610270565b8381111561029a576000848401525b50505050565b600060028204905060018216806102b857607f821691505b602082108114156102cc576102cb6102d2565b5b50919050565b7f4e487b7100000000000000000000000000000000000000000000000000000000600052602260045260246000fd5b6000601f19601f830116905091905056fea26469706673582212201d0e2695ae39490d2d9a81984845398398c4a855b4fc4ebeb0557bf97dd79e2964736f6c63430008060033a26469706673582212202781e28972966ae4d14d98668f138a54e25b1d36969c0cdf592a1917eaf4679d64736f6c63430008060033",
			"opcodes": "PUSH1 0x80 PUSH1 0x40 MSTORE CALLVALUE DUP1 ISZERO PUSH2 0x10 JUMPI PUSH1 0x0 DUP1 REVERT JUMPDEST POP CALLER PUSH1 0x0 DUP1 PUSH2 0x100 EXP DUP2 SLOAD DUP2 PUSH20 0xFFFFFFFFFFFFFFFFFFFFFFFFFFFFFFFFFFFFFFFF MUL NOT AND SWAP1 DUP4 PUSH20 0xFFFFFFFFFFFFFFFFFFFFFFFFFFFFFFFFFFFFFFFF AND MUL OR SWAP1 SSTORE POP PUSH2 0x1E8B DUP1 PUSH2 0x60 PUSH1 0x0 CODECOPY PUSH1 0x0 RETURN INVALID PUSH1 0x80 PUSH1 0x40 MSTORE CALLVALUE DUP1 ISZERO PUSH3 0x11 JUMPI PUSH1 0x0 DUP1 REVERT JUMPDEST POP PUSH1 0x4 CALLDATASIZE LT PUSH3 0x88 JUMPI PUSH1 0x0 CALLDATALOAD PUSH1 0xE0 SHR DUP1 PUSH4 0x8F32D59B GT PUSH3 0x63 JUMPI DUP1 PUSH4 0x8F32D59B EQ PUSH3 0x131 JUMPI DUP1 PUSH4 0xB2BDFA7B EQ PUSH3 0x153 JUMPI DUP1 PUSH4 0xBB9F4BD4 EQ PUSH3 0x175 JUMPI DUP1 PUSH4 0xCB0C7C0C EQ PUSH3 0x195 JUMPI PUSH3 0x88 JUMP JUMPDEST DUP1 PUSH4 0x6EAD22E EQ PUSH3 0x8D JUMPI DUP1 PUSH4 0xE6573B6 EQ PUSH3 0xC5 JUMPI DUP1 PUSH4 0x642F9163 EQ PUSH3 0xFB JUMPI JUMPDEST PUSH1 0x0 DUP1 REVERT JUMPDEST PUSH3 0xAB PUSH1 0x4 DUP1 CALLDATASIZE SUB DUP2 ADD SWAP1 PUSH3 0xA5 SWAP2 SWAP1 PUSH3 0x900 JUMP JUMPDEST PUSH3 0x1B5 JUMP JUMPDEST PUSH1 0x40 MLOAD PUSH3 0xBC SWAP4 SWAP3 SWAP2 SWAP1 PUSH3 0xC46 JUMP JUMPDEST PUSH1 0x40 MLOAD DUP1 SWAP2 SUB SWAP1 RETURN JUMPDEST PUSH3 0xE3 PUSH1 0x4 DUP1 CALLDATASIZE SUB DUP2 ADD SWAP1 PUSH3 0xDD SWAP2 SWAP1 PUSH3 0x900 JUMP JUMPDEST PUSH3 0x29C JUMP JUMPDEST PUSH1 0x40 MLOAD PUSH3 0xF2 SWAP2 SWAP1 PUSH3 0xBE8 JUMP JUMPDEST PUSH1 0x40 MLOAD DUP1 SWAP2 SUB SWAP1 RETURN JUMPDEST PUSH3 0x119 PUSH1 0x4 DUP1 CALLDATASIZE SUB DUP2 ADD SWAP1 PUSH3 0x113 SWAP2 SWAP1 PUSH3 0x900 JUMP JUMPDEST PUSH3 0x342 JUMP JUMPDEST PUSH1 0x40 MLOAD PUSH3 0x128 SWAP2 SWAP1 PUSH3 0xC29 JUMP JUMPDEST PUSH1 0x40 MLOAD DUP1 SWAP2 SUB SWAP1 RETURN JUMPDEST PUSH3 0x13B PUSH3 0x382 JUMP JUMPDEST PUSH1 0x40 MLOAD PUSH3 0x14A SWAP2 SWAP1 PUSH3 0xC0C JUMP JUMPDEST PUSH1 0x40 MLOAD DUP1 SWAP2 SUB SWAP1 RETURN JUMPDEST PUSH3 0x15D PUSH3 0x3D9 JUMP JUMPDEST PUSH1 0x40 MLOAD PUSH3 0x16C SWAP2 SWAP1 PUSH3 0xBCB JUMP JUMPDEST PUSH1 0x40 MLOAD DUP1 SWAP2 SUB SWAP1 RETURN JUMPDEST PUSH3 0x193 PUSH1 0x4 DUP1 CALLDATASIZE SUB DUP2 ADD SWAP1 PUSH3 0x18D SWAP2 SWAP1 PUSH3 0x964 JUMP JUMPDEST PUSH3 0x3FD JUMP JUMPDEST STOP JUMPDEST PUSH3 0x1B3 PUSH1 0x4 DUP1 CALLDATASIZE SUB DUP2 ADD SWAP1 PUSH3 0x1AD SWAP2 SWAP1 PUSH3 0x9DF JUMP JUMPDEST PUSH3 0x6AD JUMP JUMPDEST STOP JUMPDEST PUSH1 0x1 PUSH1 0x20 MSTORE DUP1 PUSH1 0x0 MSTORE PUSH1 0x40 PUSH1 0x0 KECCAK256 PUSH1 0x0 SWAP2 POP SWAP1 POP DUP1 PUSH1 0x0 ADD PUSH1 0x0 SWAP1 SLOAD SWAP1 PUSH2 0x100 EXP SWAP1 DIV PUSH20 0xFFFFFFFFFFFFFFFFFFFFFFFFFFFFFFFFFFFFFFFF AND SWAP1 DUP1 PUSH1 0x2 ADD DUP1 SLOAD PUSH3 0x200 SWAP1 PUSH3 0xF53 JUMP JUMPDEST DUP1 PUSH1 0x1F ADD PUSH1 0x20 DUP1 SWAP2 DIV MUL PUSH1 0x20 ADD PUSH1 0x40 MLOAD SWAP1 DUP2 ADD PUSH1 0x40 MSTORE DUP1 SWAP3 SWAP2 SWAP1 DUP2 DUP2 MSTORE PUSH1 0x20 ADD DUP3 DUP1 SLOAD PUSH3 0x22E SWAP1 PUSH3 0xF53 JUMP JUMPDEST DUP1 ISZERO PUSH3 0x27F JUMPI DUP1 PUSH1 0x1F LT PUSH3 0x253 JUMPI PUSH2 0x100 DUP1 DUP4 SLOAD DIV MUL DUP4 MSTORE SWAP2 PUSH1 0x20 ADD SWAP2 PUSH3 0x27F JUMP JUMPDEST DUP3 ADD SWAP2 SWAP1 PUSH1 0x0 MSTORE PUSH1 0x20 PUSH1 0x0 KECCAK256 SWAP1 JUMPDEST DUP2 SLOAD DUP2 MSTORE SWAP1 PUSH1 0x1 ADD SWAP1 PUSH1 0x20 ADD DUP1 DUP4 GT PUSH3 0x261 JUMPI DUP3 SWAP1 SUB PUSH1 0x1F AND DUP3 ADD SWAP2 JUMPDEST POP POP POP POP POP SWAP1 DUP1 PUSH1 0x3 ADD PUSH1 0x0 SWAP1 SLOAD SWAP1 PUSH2 0x100 EXP SWAP1 DIV PUSH1 0xFF AND SWAP1 POP DUP4 JUMP JUMPDEST PUSH1 0x60 PUSH1 0x1 PUSH1 0x0 DUP4 DUP2 MSTORE PUSH1 0x20 ADD SWAP1 DUP2 MSTORE PUSH1 0x20 ADD PUSH1 0x0 KECCAK256 PUSH1 0x1 ADD DUP1 SLOAD DUP1 PUSH1 0x20 MUL PUSH1 0x20 ADD PUSH1 0x40 MLOAD SWAP1 DUP2 ADD PUSH1 0x40 MSTORE DUP1 SWAP3 SWAP2 SWAP1 DUP2 DUP2 MSTORE PUSH1 0x20 ADD DUP3 DUP1 SLOAD DUP1 ISZERO PUSH3 0x336 JUMPI PUSH1 0x20 MUL DUP3 ADD SWAP2 SWAP1 PUSH1 0x0 MSTORE PUSH1 0x20 PUSH1 0x0 KECCAK256 SWAP1 JUMPDEST DUP2 PUSH1 0x0 SWAP1 SLOAD SWAP1 PUSH2 0x100 EXP SWAP1 DIV PUSH20 0xFFFFFFFFFFFFFFFFFFFFFFFFFFFFFFFFFFFFFFFF AND PUSH20 0xFFFFFFFFFFFFFFFFFFFFFFFFFFFFFFFFFFFFFFFF AND DUP2 MSTORE PUSH1 0x20 ADD SWAP1 PUSH1 0x1 ADD SWAP1 DUP1 DUP4 GT PUSH3 0x2EB JUMPI JUMPDEST POP POP POP POP POP SWAP1 POP SWAP2 SWAP1 POP JUMP JUMPDEST PUSH1 0x0 PUSH1 0x1 PUSH1 0x0 DUP4 DUP2 MSTORE PUSH1 0x20 ADD SWAP1 DUP2 MSTORE PUSH1 0x20 ADD PUSH1 0x0 KECCAK256 PUSH1 0x0 ADD PUSH1 0x0 SWAP1 SLOAD SWAP1 PUSH2 0x100 EXP SWAP1 DIV PUSH20 0xFFFFFFFFFFFFFFFFFFFFFFFFFFFFFFFFFFFFFFFF AND SWAP1 POP SWAP2 SWAP1 POP JUMP JUMPDEST PUSH1 0x0 DUP1 PUSH1 0x0 SWAP1 SLOAD SWAP1 PUSH2 0x100 EXP SWAP1 DIV PUSH20 0xFFFFFFFFFFFFFFFFFFFFFFFFFFFFFFFFFFFFFFFF AND PUSH20 0xFFFFFFFFFFFFFFFFFFFFFFFFFFFFFFFFFFFFFFFF AND CALLER PUSH20 0xFFFFFFFFFFFFFFFFFFFFFFFFFFFFFFFFFFFFFFFF AND EQ SWAP1 POP SWAP1 JUMP JUMPDEST PUSH1 0x0 DUP1 SLOAD SWAP1 PUSH2 0x100 EXP SWAP1 DIV PUSH20 0xFFFFFFFFFFFFFFFFFFFFFFFFFFFFFFFFFFFFFFFF AND DUP2 JUMP JUMPDEST PUSH1 0x0 DUP3 DUP3 PUSH1 0x40 MLOAD PUSH3 0x40F SWAP1 PUSH3 0x788 JUMP JUMPDEST PUSH3 0x41C SWAP3 SWAP2 SWAP1 PUSH3 0xC8A JUMP JUMPDEST PUSH1 0x40 MLOAD DUP1 SWAP2 SUB SWAP1 PUSH1 0x0 CREATE DUP1 ISZERO DUP1 ISZERO PUSH3 0x439 JUMPI RETURNDATASIZE PUSH1 0x0 DUP1 RETURNDATACOPY RETURNDATASIZE PUSH1 0x0 REVERT JUMPDEST POP SWAP1 POP PUSH1 0x1 PUSH1 0x0 DUP6 DUP2 MSTORE PUSH1 0x20 ADD SWAP1 DUP2 MSTORE PUSH1 0x20 ADD PUSH1 0x0 KECCAK256 PUSH1 0x1 ADD DUP2 SWAP1 DUP1 PUSH1 0x1 DUP2 SLOAD ADD DUP1 DUP3 SSTORE DUP1 SWAP2 POP POP PUSH1 0x1 SWAP1 SUB SWAP1 PUSH1 0x0 MSTORE PUSH1 0x20 PUSH1 0x0 KECCAK256 ADD PUSH1 0x0 SWAP1 SWAP2 SWAP1 SWAP2 SWAP1 SWAP2 PUSH2 0x100 EXP DUP2 SLOAD DUP2 PUSH20 0xFFFFFFFFFFFFFFFFFFFFFFFFFFFFFFFFFFFFFFFF MUL NOT AND SWAP1 DUP4 PUSH20 0xFFFFFFFFFFFFFFFFFFFFFFFFFFFFFFFFFFFFFFFF AND MUL OR SWAP1 SSTORE POP PUSH1 0x40 MLOAD DUP1 PUSH1 0x40 ADD PUSH1 0x40 MSTORE DUP1 PUSH1 0x4 DUP2 MSTORE PUSH1 0x20 ADD PUSH32 0x4D45434800000000000000000000000000000000000000000000000000000000 DUP2 MSTORE POP PUSH1 0x1 PUSH1 0x0 DUP7 DUP2 MSTORE PUSH1 0x20 ADD SWAP1 DUP2 MSTORE PUSH1 0x20 ADD PUSH1 0x0 KECCAK256 PUSH1 0x2 ADD SWAP1 DUP1 MLOAD SWAP1 PUSH1 0x20 ADD SWAP1 PUSH3 0x514 SWAP3 SWAP2 SWAP1 PUSH3 0x796 JUMP JUMPDEST POP PUSH1 0x0 DUP2 PUSH20 0xFFFFFFFFFFFFFFFFFFFFFFFFFFFFFFFFFFFFFFFF AND PUSH4 0x97AC533 PUSH1 0x40 MLOAD DUP2 PUSH4 0xFFFFFFFF AND PUSH1 0xE0 SHL DUP2 MSTORE PUSH1 0x4 ADD PUSH1 0x20 PUSH1 0x40 MLOAD DUP1 DUP4 SUB DUP2 PUSH1 0x0 DUP8 DUP1 EXTCODESIZE ISZERO DUP1 ISZERO PUSH3 0x560 JUMPI PUSH1 0x0 DUP1 REVERT JUMPDEST POP GAS CALL ISZERO DUP1 ISZERO PUSH3 0x575 JUMPI RETURNDATASIZE PUSH1 0x0 DUP1 RETURNDATACOPY RETURNDATASIZE PUSH1 0x0 REVERT JUMPDEST POP POP POP POP PUSH1 0x40 MLOAD RETURNDATASIZE PUSH1 0x1F NOT PUSH1 0x1F DUP3 ADD AND DUP3 ADD DUP1 PUSH1 0x40 MSTORE POP DUP2 ADD SWAP1 PUSH3 0x59B SWAP2 SWAP1 PUSH3 0x932 JUMP JUMPDEST SWAP1 POP PUSH1 0x32 DUP2 GT ISZERO PUSH3 0x5EF JUMPI PUSH1 0x0 PUSH1 0x1 PUSH1 0x0 DUP8 DUP2 MSTORE PUSH1 0x20 ADD SWAP1 DUP2 MSTORE PUSH1 0x20 ADD PUSH1 0x0 KECCAK256 PUSH1 0x3 ADD PUSH1 0x0 PUSH2 0x100 EXP DUP2 SLOAD DUP2 PUSH1 0xFF MUL NOT AND SWAP1 DUP4 PUSH1 0x1 DUP2 GT ISZERO PUSH3 0x5E4 JUMPI PUSH3 0x5E3 PUSH3 0xFBF JUMP JUMPDEST JUMPDEST MUL OR SWAP1 SSTORE POP PUSH3 0x631 JUMP JUMPDEST PUSH1 0x1 DUP1 PUSH1 0x0 DUP8 DUP2 MSTORE PUSH1 0x20 ADD SWAP1 DUP2 MSTORE PUSH1 0x20 ADD PUSH1 0x0 KECCAK256 PUSH1 0x3 ADD PUSH1 0x0 PUSH2 0x100 EXP DUP2 SLOAD DUP2 PUSH1 0xFF MUL NOT AND SWAP1 DUP4 PUSH1 0x1 DUP2 GT ISZERO PUSH3 0x62B JUMPI PUSH3 0x62A PUSH3 0xFBF JUMP JUMPDEST JUMPDEST MUL OR SWAP1 SSTORE POP JUMPDEST PUSH32 0xBE17DA7E4E64BE98177252E41C28BBCA6920B218F5BD8D04C32DE18F7AF65094 DUP6 PUSH1 0x1 PUSH1 0x0 DUP9 DUP2 MSTORE PUSH1 0x20 ADD SWAP1 DUP2 MSTORE PUSH1 0x20 ADD PUSH1 0x0 KECCAK256 PUSH1 0x3 ADD PUSH1 0x0 SWAP1 SLOAD SWAP1 PUSH2 0x100 EXP SWAP1 DIV PUSH1 0xFF AND PUSH1 0x1 DUP2 GT ISZERO PUSH3 0x68C JUMPI PUSH3 0x68B PUSH3 0xFBF JUMP JUMPDEST JUMPDEST CALLER PUSH1 0x40 MLOAD PUSH3 0x69E SWAP4 SWAP3 SWAP2 SWAP1 PUSH3 0xD46 JUMP JUMPDEST PUSH1 0x40 MLOAD DUP1 SWAP2 SUB SWAP1 LOG1 POP POP POP POP POP JUMP JUMPDEST PUSH1 0x0 DUP4 DUP4 DUP4 PUSH1 0x40 MLOAD PUSH3 0x6C0 SWAP1 PUSH3 0x827 JUMP JUMPDEST PUSH3 0x6CE SWAP4 SWAP3 SWAP2 SWAP1 PUSH3 0xCFB JUMP JUMPDEST PUSH1 0x40 MLOAD DUP1 SWAP2 SUB SWAP1 PUSH1 0x0 CREATE DUP1 ISZERO DUP1 ISZERO PUSH3 0x6EB JUMPI RETURNDATASIZE PUSH1 0x0 DUP1 RETURNDATACOPY RETURNDATASIZE PUSH1 0x0 REVERT JUMPDEST POP SWAP1 POP DUP1 PUSH1 0x1 PUSH1 0x0 DUP8 DUP2 MSTORE PUSH1 0x20 ADD SWAP1 DUP2 MSTORE PUSH1 0x20 ADD PUSH1 0x0 KECCAK256 PUSH1 0x0 ADD PUSH1 0x0 PUSH2 0x100 EXP DUP2 SLOAD DUP2 PUSH20 0xFFFFFFFFFFFFFFFFFFFFFFFFFFFFFFFFFFFFFFFF MUL NOT AND SWAP1 DUP4 PUSH20 0xFFFFFFFFFFFFFFFFFFFFFFFFFFFFFFFFFFFFFFFF AND MUL OR SWAP1 SSTORE POP PUSH32 0xBE17DA7E4E64BE98177252E41C28BBCA6920B218F5BD8D04C32DE18F7AF65094 DUP6 PUSH1 0x0 CALLER PUSH1 0x40 MLOAD PUSH3 0x779 SWAP4 SWAP3 SWAP2 SWAP1 PUSH3 0xCBE JUMP JUMPDEST PUSH1 0x40 MLOAD DUP1 SWAP2 SUB SWAP1 LOG1 POP POP POP POP POP JUMP JUMPDEST PUSH2 0x6AA DUP1 PUSH3 0x10A3 DUP4 CODECOPY ADD SWAP1 JUMP JUMPDEST DUP3 DUP1 SLOAD PUSH3 0x7A4 SWAP1 PUSH3 0xF53 JUMP JUMPDEST SWAP1 PUSH1 0x0 MSTORE PUSH1 0x20 PUSH1 0x0 KECCAK256 SWAP1 PUSH1 0x1F ADD PUSH1 0x20 SWAP1 DIV DUP2 ADD SWAP3 DUP3 PUSH3 0x7C8 JUMPI PUSH1 0x0 DUP6 SSTORE PUSH3 0x814 JUMP JUMPDEST DUP3 PUSH1 0x1F LT PUSH3 0x7E3 JUMPI DUP1 MLOAD PUSH1 0xFF NOT AND DUP4 DUP1 ADD OR DUP6 SSTORE PUSH3 0x814 JUMP JUMPDEST DUP3 DUP1 ADD PUSH1 0x1 ADD DUP6 SSTORE DUP3 ISZERO PUSH3 0x814 JUMPI SWAP2 DUP3 ADD JUMPDEST DUP3 DUP2 GT ISZERO PUSH3 0x813 JUMPI DUP3 MLOAD DUP3 SSTORE SWAP2 PUSH1 0x20 ADD SWAP2 SWAP1 PUSH1 0x1 ADD SWAP1 PUSH3 0x7F6 JUMP JUMPDEST JUMPDEST POP SWAP1 POP PUSH3 0x823 SWAP2 SWAP1 PUSH3 0x835 JUMP JUMPDEST POP SWAP1 JUMP JUMPDEST PUSH2 0x709 DUP1 PUSH3 0x174D DUP4 CODECOPY ADD SWAP1 JUMP JUMPDEST JUMPDEST DUP1 DUP3 GT ISZERO PUSH3 0x850 JUMPI PUSH1 0x0 DUP2 PUSH1 0x0 SWAP1 SSTORE POP PUSH1 0x1 ADD PUSH3 0x836 JUMP JUMPDEST POP SWAP1 JUMP JUMPDEST PUSH1 0x0 PUSH3 0x86B PUSH3 0x865 DUP5 PUSH3 0xDAC JUMP JUMPDEST PUSH3 0xD83 JUMP JUMPDEST SWAP1 POP DUP3 DUP2 MSTORE PUSH1 0x20 DUP2 ADD DUP5 DUP5 DUP5 ADD GT ISZERO PUSH3 0x88A JUMPI PUSH3 0x889 PUSH3 0x1051 JUMP JUMPDEST JUMPDEST PUSH3 0x897 DUP5 DUP3 DUP6 PUSH3 0xF0E JUMP JUMPDEST POP SWAP4 SWAP3 POP POP POP JUMP JUMPDEST PUSH1 0x0 DUP3 PUSH1 0x1F DUP4 ADD SLT PUSH3 0x8B7 JUMPI PUSH3 0x8B6 PUSH3 0x104C JUMP JUMPDEST JUMPDEST DUP2 CALLDATALOAD PUSH3 0x8C9 DUP5 DUP3 PUSH1 0x20 DUP7 ADD PUSH3 0x854 JUMP JUMPDEST SWAP2 POP POP SWAP3 SWAP2 POP POP JUMP JUMPDEST PUSH1 0x0 DUP2 CALLDATALOAD SWAP1 POP PUSH3 0x8E3 DUP2 PUSH3 0x1088 JUMP JUMPDEST SWAP3 SWAP2 POP POP JUMP JUMPDEST PUSH1 0x0 DUP2 MLOAD SWAP1 POP PUSH3 0x8FA DUP2 PUSH3 0x1088 JUMP JUMPDEST SWAP3 SWAP2 POP POP JUMP JUMPDEST PUSH1 0x0 PUSH1 0x20 DUP3 DUP5 SUB SLT ISZERO PUSH3 0x919 JUMPI PUSH3 0x918 PUSH3 0x105B JUMP JUMPDEST JUMPDEST PUSH1 0x0 PUSH3 0x929 DUP5 DUP3 DUP6 ADD PUSH3 0x8D2 JUMP JUMPDEST SWAP2 POP POP SWAP3 SWAP2 POP POP JUMP JUMPDEST PUSH1 0x0 PUSH1 0x20 DUP3 DUP5 SUB SLT ISZERO PUSH3 0x94B JUMPI PUSH3 0x94A PUSH3 0x105B JUMP JUMPDEST JUMPDEST PUSH1 0x0 PUSH3 0x95B DUP5 DUP3 DUP6 ADD PUSH3 0x8E9 JUMP JUMPDEST SWAP2 POP POP SWAP3 SWAP2 POP POP JUMP JUMPDEST PUSH1 0x0 DUP1 PUSH1 0x0 PUSH1 0x60 DUP5 DUP7 SUB SLT ISZERO PUSH3 0x980 JUMPI PUSH3 0x97F PUSH3 0x105B JUMP JUMPDEST JUMPDEST PUSH1 0x0 PUSH3 0x990 DUP7 DUP3 DUP8 ADD PUSH3 0x8D2 JUMP JUMPDEST SWAP4 POP POP PUSH1 0x20 DUP5 ADD CALLDATALOAD PUSH8 0xFFFFFFFFFFFFFFFF DUP2 GT ISZERO PUSH3 0x9B4 JUMPI PUSH3 0x9B3 PUSH3 0x1056 JUMP JUMPDEST JUMPDEST PUSH3 0x9C2 DUP7 DUP3 DUP8 ADD PUSH3 0x89F JUMP JUMPDEST SWAP3 POP POP PUSH1 0x40 PUSH3 0x9D5 DUP7 DUP3 DUP8 ADD PUSH3 0x8D2 JUMP JUMPDEST SWAP2 POP POP SWAP3 POP SWAP3 POP SWAP3 JUMP JUMPDEST PUSH1 0x0 DUP1 PUSH1 0x0 DUP1 PUSH1 0x80 DUP6 DUP8 SUB SLT ISZERO PUSH3 0x9FC JUMPI PUSH3 0x9FB PUSH3 0x105B JUMP JUMPDEST JUMPDEST PUSH1 0x0 PUSH3 0xA0C DUP8 DUP3 DUP9 ADD PUSH3 0x8D2 JUMP JUMPDEST SWAP5 POP POP PUSH1 0x20 PUSH3 0xA1F DUP8 DUP3 DUP9 ADD PUSH3 0x8D2 JUMP JUMPDEST SWAP4 POP POP PUSH1 0x40 DUP6 ADD CALLDATALOAD PUSH8 0xFFFFFFFFFFFFFFFF DUP2 GT ISZERO PUSH3 0xA43 JUMPI PUSH3 0xA42 PUSH3 0x1056 JUMP JUMPDEST JUMPDEST PUSH3 0xA51 DUP8 DUP3 DUP9 ADD PUSH3 0x89F JUMP JUMPDEST SWAP3 POP POP PUSH1 0x60 DUP6 ADD CALLDATALOAD PUSH8 0xFFFFFFFFFFFFFFFF DUP2 GT ISZERO PUSH3 0xA75 JUMPI PUSH3 0xA74 PUSH3 0x1056 JUMP JUMPDEST JUMPDEST PUSH3 0xA83 DUP8 DUP3 DUP9 ADD PUSH3 0x89F JUMP JUMPDEST SWAP2 POP POP SWAP3 SWAP6 SWAP2 SWAP5 POP SWAP3 POP JUMP JUMPDEST PUSH1 0x0 PUSH3 0xA9D DUP4 DUP4 PUSH3 0xB35 JUMP JUMPDEST PUSH1 0x20 DUP4 ADD SWAP1 POP SWAP3 SWAP2 POP POP JUMP JUMPDEST PUSH3 0xAB4 DUP2 PUSH3 0xE37 JUMP JUMPDEST DUP3 MSTORE POP POP JUMP JUMPDEST PUSH1 0x0 PUSH3 0xAC7 DUP3 PUSH3 0xDF2 JUMP JUMPDEST PUSH3 0xAD3 DUP2 DUP6 PUSH3 0xE15 JUMP JUMPDEST SWAP4 POP PUSH3 0xAE0 DUP4 PUSH3 0xDE2 JUMP JUMPDEST DUP1 PUSH1 0x0 JUMPDEST DUP4 DUP2 LT ISZERO PUSH3 0xB17 JUMPI DUP2 MLOAD PUSH3 0xAFB DUP9 DUP3 PUSH3 0xA8F JUMP JUMPDEST SWAP8 POP PUSH3 0xB08 DUP4 PUSH3 0xE08 JUMP JUMPDEST SWAP3 POP POP PUSH1 0x1 DUP2 ADD SWAP1 POP PUSH3 0xAE4 JUMP JUMPDEST POP DUP6 SWAP4 POP POP POP POP SWAP3 SWAP2 POP POP JUMP JUMPDEST PUSH3 0xB2F DUP2 PUSH3 0xE4B JUMP JUMPDEST DUP3 MSTORE POP POP JUMP JUMPDEST PUSH3 0xB40 DUP2 PUSH3 0xE96 JUMP JUMPDEST DUP3 MSTORE POP POP JUMP JUMPDEST PUSH3 0xB51 DUP2 PUSH3 0xEBE JUMP JUMPDEST DUP3 MSTORE POP POP JUMP JUMPDEST PUSH3 0xB62 DUP2 PUSH3 0xEE6 JUMP JUMPDEST DUP3 MSTORE POP POP JUMP JUMPDEST PUSH3 0xB73 DUP2 PUSH3 0xEFA JUMP JUMPDEST DUP3 MSTORE POP POP JUMP JUMPDEST PUSH1 0x0 PUSH3 0xB86 DUP3 PUSH3 0xDFD JUMP JUMPDEST PUSH3 0xB92 DUP2 DUP6 PUSH3 0xE26 JUMP JUMPDEST SWAP4 POP PUSH3 0xBA4 DUP2 DUP6 PUSH1 0x20 DUP7 ADD PUSH3 0xF1D JUMP JUMPDEST PUSH3 0xBAF DUP2 PUSH3 0x1060 JUMP JUMPDEST DUP5 ADD SWAP2 POP POP SWAP3 SWAP2 POP POP JUMP JUMPDEST PUSH3 0xBC5 DUP2 PUSH3 0xE8C JUMP JUMPDEST DUP3 MSTORE POP POP JUMP JUMPDEST PUSH1 0x0 PUSH1 0x20 DUP3 ADD SWAP1 POP PUSH3 0xBE2 PUSH1 0x0 DUP4 ADD DUP5 PUSH3 0xAA9 JUMP JUMPDEST SWAP3 SWAP2 POP POP JUMP JUMPDEST PUSH1 0x0 PUSH1 0x20 DUP3 ADD SWAP1 POP DUP2 DUP2 SUB PUSH1 0x0 DUP4 ADD MSTORE PUSH3 0xC04 DUP2 DUP5 PUSH3 0xABA JUMP JUMPDEST SWAP1 POP SWAP3 SWAP2 POP POP JUMP JUMPDEST PUSH1 0x0 PUSH1 0x20 DUP3 ADD SWAP1 POP PUSH3 0xC23 PUSH1 0x0 DUP4 ADD DUP5 PUSH3 0xB24 JUMP JUMPDEST SWAP3 SWAP2 POP POP JUMP JUMPDEST PUSH1 0x0 PUSH1 0x20 DUP3 ADD SWAP1 POP PUSH3 0xC40 PUSH1 0x0 DUP4 ADD DUP5 PUSH3 0xB46 JUMP JUMPDEST SWAP3 SWAP2 POP POP JUMP JUMPDEST PUSH1 0x0 PUSH1 0x60 DUP3 ADD SWAP1 POP PUSH3 0xC5D PUSH1 0x0 DUP4 ADD DUP7 PUSH3 0xB46 JUMP JUMPDEST DUP2 DUP2 SUB PUSH1 0x20 DUP4 ADD MSTORE PUSH3 0xC71 DUP2 DUP6 PUSH3 0xB79 JUMP JUMPDEST SWAP1 POP PUSH3 0xC82 PUSH1 0x40 DUP4 ADD DUP5 PUSH3 0xB57 JUMP JUMPDEST SWAP5 SWAP4 POP POP POP POP JUMP JUMPDEST PUSH1 0x0 PUSH1 0x40 DUP3 ADD SWAP1 POP DUP2 DUP2 SUB PUSH1 0x0 DUP4 ADD MSTORE PUSH3 0xCA6 DUP2 DUP6 PUSH3 0xB79 JUMP JUMPDEST SWAP1 POP PUSH3 0xCB7 PUSH1 0x20 DUP4 ADD DUP5 PUSH3 0xBBA JUMP JUMPDEST SWAP4 SWAP3 POP POP POP JUMP JUMPDEST PUSH1 0x0 PUSH1 0x60 DUP3 ADD SWAP1 POP PUSH3 0xCD5 PUSH1 0x0 DUP4 ADD DUP7 PUSH3 0xBBA JUMP JUMPDEST PUSH3 0xCE4 PUSH1 0x20 DUP4 ADD DUP6 PUSH3 0xB68 JUMP JUMPDEST PUSH3 0xCF3 PUSH1 0x40 DUP4 ADD DUP5 PUSH3 0xAA9 JUMP JUMPDEST SWAP5 SWAP4 POP POP POP POP JUMP JUMPDEST PUSH1 0x0 PUSH1 0x60 DUP3 ADD SWAP1 POP PUSH3 0xD12 PUSH1 0x0 DUP4 ADD DUP7 PUSH3 0xBBA JUMP JUMPDEST DUP2 DUP2 SUB PUSH1 0x20 DUP4 ADD MSTORE PUSH3 0xD26 DUP2 DUP6 PUSH3 0xB79 JUMP JUMPDEST SWAP1 POP DUP2 DUP2 SUB PUSH1 0x40 DUP4 ADD MSTORE PUSH3 0xD3C DUP2 DUP5 PUSH3 0xB79 JUMP JUMPDEST SWAP1 POP SWAP5 SWAP4 POP POP POP POP JUMP JUMPDEST PUSH1 0x0 PUSH1 0x60 DUP3 ADD SWAP1 POP PUSH3 0xD5D PUSH1 0x0 DUP4 ADD DUP7 PUSH3 0xBBA JUMP JUMPDEST PUSH3 0xD6C PUSH1 0x20 DUP4 ADD DUP6 PUSH3 0xBBA JUMP JUMPDEST PUSH3 0xD7B PUSH1 0x40 DUP4 ADD DUP5 PUSH3 0xAA9 JUMP JUMPDEST SWAP5 SWAP4 POP POP POP POP JUMP JUMPDEST PUSH1 0x0 PUSH3 0xD8F PUSH3 0xDA2 JUMP JUMPDEST SWAP1 POP PUSH3 0xD9D DUP3 DUP3 PUSH3 0xF89 JUMP JUMPDEST SWAP2 SWAP1 POP JUMP JUMPDEST PUSH1 0x0 PUSH1 0x40 MLOAD SWAP1 POP SWAP1 JUMP JUMPDEST PUSH1 0x0 PUSH8 0xFFFFFFFFFFFFFFFF DUP3 GT ISZERO PUSH3 0xDCA JUMPI PUSH3 0xDC9 PUSH3 0x101D JUMP JUMPDEST JUMPDEST PUSH3 0xDD5 DUP3 PUSH3 0x1060 JUMP JUMPDEST SWAP1 POP PUSH1 0x20 DUP2 ADD SWAP1 POP SWAP2 SWAP1 POP JUMP JUMPDEST PUSH1 0x0 DUP2 SWAP1 POP PUSH1 0x20 DUP3 ADD SWAP1 POP SWAP2 SWAP1 POP JUMP JUMPDEST PUSH1 0x0 DUP2 MLOAD SWAP1 POP SWAP2 SWAP1 POP JUMP JUMPDEST PUSH1 0x0 DUP2 MLOAD SWAP1 POP SWAP2 SWAP1 POP JUMP JUMPDEST PUSH1 0x0 PUSH1 0x20 DUP3 ADD SWAP1 POP SWAP2 SWAP1 POP JUMP JUMPDEST PUSH1 0x0 DUP3 DUP3 MSTORE PUSH1 0x20 DUP3 ADD SWAP1 POP SWAP3 SWAP2 POP POP JUMP JUMPDEST PUSH1 0x0 DUP3 DUP3 MSTORE PUSH1 0x20 DUP3 ADD SWAP1 POP SWAP3 SWAP2 POP POP JUMP JUMPDEST PUSH1 0x0 PUSH3 0xE44 DUP3 PUSH3 0xE6C JUMP JUMPDEST SWAP1 POP SWAP2 SWAP1 POP JUMP JUMPDEST PUSH1 0x0 DUP2 ISZERO ISZERO SWAP1 POP SWAP2 SWAP1 POP JUMP JUMPDEST PUSH1 0x0 DUP2 SWAP1 POP PUSH3 0xE67 DUP3 PUSH3 0x1071 JUMP JUMPDEST SWAP2 SWAP1 POP JUMP JUMPDEST PUSH1 0x0 PUSH20 0xFFFFFFFFFFFFFFFFFFFFFFFFFFFFFFFFFFFFFFFF DUP3 AND SWAP1 POP SWAP2 SWAP1 POP JUMP JUMPDEST PUSH1 0x0 DUP2 SWAP1 POP SWAP2 SWAP1 POP JUMP JUMPDEST PUSH1 0x0 PUSH3 0xEA3 DUP3 PUSH3 0xEAA JUMP JUMPDEST SWAP1 POP SWAP2 SWAP1 POP JUMP JUMPDEST PUSH1 0x0 PUSH3 0xEB7 DUP3 PUSH3 0xE6C JUMP JUMPDEST SWAP1 POP SWAP2 SWAP1 POP JUMP JUMPDEST PUSH1 0x0 PUSH3 0xECB DUP3 PUSH3 0xED2 JUMP JUMPDEST SWAP1 POP SWAP2 SWAP1 POP JUMP JUMPDEST PUSH1 0x0 PUSH3 0xEDF DUP3 PUSH3 0xE6C JUMP JUMPDEST SWAP1 POP SWAP2 SWAP1 POP JUMP JUMPDEST PUSH1 0x0 PUSH3 0xEF3 DUP3 PUSH3 0xE57 JUMP JUMPDEST SWAP1 POP SWAP2 SWAP1 POP JUMP JUMPDEST PUSH1 0x0 PUSH3 0xF07 DUP3 PUSH3 0xE8C JUMP JUMPDEST SWAP1 POP SWAP2 SWAP1 POP JUMP JUMPDEST DUP3 DUP2 DUP4 CALLDATACOPY PUSH1 0x0 DUP4 DUP4 ADD MSTORE POP POP POP JUMP JUMPDEST PUSH1 0x0 JUMPDEST DUP4 DUP2 LT ISZERO PUSH3 0xF3D JUMPI DUP1 DUP3 ADD MLOAD DUP2 DUP5 ADD MSTORE PUSH1 0x20 DUP2 ADD SWAP1 POP PUSH3 0xF20 JUMP JUMPDEST DUP4 DUP2 GT ISZERO PUSH3 0xF4D JUMPI PUSH1 0x0 DUP5 DUP5 ADD MSTORE JUMPDEST POP POP POP POP JUMP JUMPDEST PUSH1 0x0 PUSH1 0x2 DUP3 DIV SWAP1 POP PUSH1 0x1 DUP3 AND DUP1 PUSH3 0xF6C JUMPI PUSH1 0x7F DUP3 AND SWAP2 POP JUMPDEST PUSH1 0x20 DUP3 LT DUP2 EQ ISZERO PUSH3 0xF83 JUMPI PUSH3 0xF82 PUSH3 0xFEE JUMP JUMPDEST JUMPDEST POP SWAP2 SWAP1 POP JUMP JUMPDEST PUSH3 0xF94 DUP3 PUSH3 0x1060 JUMP JUMPDEST DUP2 ADD DUP2 DUP2 LT PUSH8 0xFFFFFFFFFFFFFFFF DUP3 GT OR ISZERO PUSH3 0xFB6 JUMPI PUSH3 0xFB5 PUSH3 0x101D JUMP JUMPDEST JUMPDEST DUP1 PUSH1 0x40 MSTORE POP POP POP JUMP JUMPDEST PUSH32 0x4E487B7100000000000000000000000000000000000000000000000000000000 PUSH1 0x0 MSTORE PUSH1 0x21 PUSH1 0x4 MSTORE PUSH1 0x24 PUSH1 0x0 REVERT JUMPDEST PUSH32 0x4E487B7100000000000000000000000000000000000000000000000000000000 PUSH1 0x0 MSTORE PUSH1 0x22 PUSH1 0x4 MSTORE PUSH1 0x24 PUSH1 0x0 REVERT JUMPDEST PUSH32 0x4E487B7100000000000000000000000000000000000000000000000000000000 PUSH1 0x0 MSTORE PUSH1 0x41 PUSH1 0x4 MSTORE PUSH1 0x24 PUSH1 0x0 REVERT JUMPDEST PUSH1 0x0 DUP1 REVERT JUMPDEST PUSH1 0x0 DUP1 REVERT JUMPDEST PUSH1 0x0 DUP1 REVERT JUMPDEST PUSH1 0x0 DUP1 REVERT JUMPDEST PUSH1 0x0 PUSH1 0x1F NOT PUSH1 0x1F DUP4 ADD AND SWAP1 POP SWAP2 SWAP1 POP JUMP JUMPDEST PUSH1 0x2 DUP2 LT PUSH3 0x1085 JUMPI PUSH3 0x1084 PUSH3 0xFBF JUMP JUMPDEST JUMPDEST POP JUMP JUMPDEST PUSH3 0x1093 DUP2 PUSH3 0xE8C JUMP JUMPDEST DUP2 EQ PUSH3 0x109F JUMPI PUSH1 0x0 DUP1 REVERT JUMPDEST POP JUMP INVALID PUSH1 0x80 PUSH1 0x40 MSTORE CALLVALUE DUP1 ISZERO PUSH2 0x10 JUMPI PUSH1 0x0 DUP1 REVERT JUMPDEST POP PUSH1 0x40 MLOAD PUSH2 0x6AA CODESIZE SUB DUP1 PUSH2 0x6AA DUP4 CODECOPY DUP2 DUP2 ADD PUSH1 0x40 MSTORE DUP2 ADD SWAP1 PUSH2 0x32 SWAP2 SWAP1 PUSH2 0x17F JUMP JUMPDEST DUP2 PUSH1 0x0 SWAP1 DUP1 MLOAD SWAP1 PUSH1 0x20 ADD SWAP1 PUSH2 0x48 SWAP3 SWAP2 SWAP1 PUSH2 0x57 JUMP JUMPDEST POP DUP1 PUSH1 0x1 DUP2 SWAP1 SSTORE POP POP POP PUSH2 0x36B JUMP JUMPDEST DUP3 DUP1 SLOAD PUSH2 0x63 SWAP1 PUSH2 0x26E JUMP JUMPDEST SWAP1 PUSH1 0x0 MSTORE PUSH1 0x20 PUSH1 0x0 KECCAK256 SWAP1 PUSH1 0x1F ADD PUSH1 0x20 SWAP1 DIV DUP2 ADD SWAP3 DUP3 PUSH2 0x85 JUMPI PUSH1 0x0 DUP6 SSTORE PUSH2 0xCC JUMP JUMPDEST DUP3 PUSH1 0x1F LT PUSH2 0x9E JUMPI DUP1 MLOAD PUSH1 0xFF NOT AND DUP4 DUP1 ADD OR DUP6 SSTORE PUSH2 0xCC JUMP JUMPDEST DUP3 DUP1 ADD PUSH1 0x1 ADD DUP6 SSTORE DUP3 ISZERO PUSH2 0xCC JUMPI SWAP2 DUP3 ADD JUMPDEST DUP3 DUP2 GT ISZERO PUSH2 0xCB JUMPI DUP3 MLOAD DUP3 SSTORE SWAP2 PUSH1 0x20 ADD SWAP2 SWAP1 PUSH1 0x1 ADD SWAP1 PUSH2 0xB0 JUMP JUMPDEST JUMPDEST POP SWAP1 POP PUSH2 0xD9 SWAP2 SWAP1 PUSH2 0xDD JUMP JUMPDEST POP SWAP1 JUMP JUMPDEST JUMPDEST DUP1 DUP3 GT ISZERO PUSH2 0xF6 JUMPI PUSH1 0x0 DUP2 PUSH1 0x0 SWAP1 SSTORE POP PUSH1 0x1 ADD PUSH2 0xDE JUMP JUMPDEST POP SWAP1 JUMP JUMPDEST PUSH1 0x0 PUSH2 0x10D PUSH2 0x108 DUP5 PUSH2 0x200 JUMP JUMPDEST PUSH2 0x1DB JUMP JUMPDEST SWAP1 POP DUP3 DUP2 MSTORE PUSH1 0x20 DUP2 ADD DUP5 DUP5 DUP5 ADD GT ISZERO PUSH2 0x129 JUMPI PUSH2 0x128 PUSH2 0x334 JUMP JUMPDEST JUMPDEST PUSH2 0x134 DUP5 DUP3 DUP6 PUSH2 0x23B JUMP JUMPDEST POP SWAP4 SWAP3 POP POP POP JUMP JUMPDEST PUSH1 0x0 DUP3 PUSH1 0x1F DUP4 ADD SLT PUSH2 0x151 JUMPI PUSH2 0x150 PUSH2 0x32F JUMP JUMPDEST JUMPDEST DUP2 MLOAD PUSH2 0x161 DUP5 DUP3 PUSH1 0x20 DUP7 ADD PUSH2 0xFA JUMP JUMPDEST SWAP2 POP POP SWAP3 SWAP2 POP POP JUMP JUMPDEST PUSH1 0x0 DUP2 MLOAD SWAP1 POP PUSH2 0x179 DUP2 PUSH2 0x354 JUMP JUMPDEST SWAP3 SWAP2 POP POP JUMP JUMPDEST PUSH1 0x0 DUP1 PUSH1 0x40 DUP4 DUP6 SUB SLT ISZERO PUSH2 0x196 JUMPI PUSH2 0x195 PUSH2 0x33E JUMP JUMPDEST JUMPDEST PUSH1 0x0 DUP4 ADD MLOAD PUSH8 0xFFFFFFFFFFFFFFFF DUP2 GT ISZERO PUSH2 0x1B4 JUMPI PUSH2 0x1B3 PUSH2 0x339 JUMP JUMPDEST JUMPDEST PUSH2 0x1C0 DUP6 DUP3 DUP7 ADD PUSH2 0x13C JUMP JUMPDEST SWAP3 POP POP PUSH1 0x20 PUSH2 0x1D1 DUP6 DUP3 DUP7 ADD PUSH2 0x16A JUMP JUMPDEST SWAP2 POP POP SWAP3 POP SWAP3 SWAP1 POP JUMP JUMPDEST PUSH1 0x0 PUSH2 0x1E5 PUSH2 0x1F6 JUMP JUMPDEST SWAP1 POP PUSH2 0x1F1 DUP3 DUP3 PUSH2 0x2A0 JUMP JUMPDEST SWAP2 SWAP1 POP JUMP JUMPDEST PUSH1 0x0 PUSH1 0x40 MLOAD SWAP1 POP SWAP1 JUMP JUMPDEST PUSH1 0x0 PUSH8 0xFFFFFFFFFFFFFFFF DUP3 GT ISZERO PUSH2 0x21B JUMPI PUSH2 0x21A PUSH2 0x300 JUMP JUMPDEST JUMPDEST PUSH2 0x224 DUP3 PUSH2 0x343 JUMP JUMPDEST SWAP1 POP PUSH1 0x20 DUP2 ADD SWAP1 POP SWAP2 SWAP1 POP JUMP JUMPDEST PUSH1 0x0 DUP2 SWAP1 POP SWAP2 SWAP1 POP JUMP JUMPDEST PUSH1 0x0 JUMPDEST DUP4 DUP2 LT ISZERO PUSH2 0x259 JUMPI DUP1 DUP3 ADD MLOAD DUP2 DUP5 ADD MSTORE PUSH1 0x20 DUP2 ADD SWAP1 POP PUSH2 0x23E JUMP JUMPDEST DUP4 DUP2 GT ISZERO PUSH2 0x268 JUMPI PUSH1 0x0 DUP5 DUP5 ADD MSTORE JUMPDEST POP POP POP POP JUMP JUMPDEST PUSH1 0x0 PUSH1 0x2 DUP3 DIV SWAP1 POP PUSH1 0x1 DUP3 AND DUP1 PUSH2 0x286 JUMPI PUSH1 0x7F DUP3 AND SWAP2 POP JUMPDEST PUSH1 0x20 DUP3 LT DUP2 EQ ISZERO PUSH2 0x29A JUMPI PUSH2 0x299 PUSH2 0x2D1 JUMP JUMPDEST JUMPDEST POP SWAP2 SWAP1 POP JUMP JUMPDEST PUSH2 0x2A9 DUP3 PUSH2 0x343 JUMP JUMPDEST DUP2 ADD DUP2 DUP2 LT PUSH8 0xFFFFFFFFFFFFFFFF DUP3 GT OR ISZERO PUSH2 0x2C8 JUMPI PUSH2 0x2C7 PUSH2 0x300 JUMP JUMPDEST JUMPDEST DUP1 PUSH1 0x40 MSTORE POP POP POP JUMP JUMPDEST PUSH32 0x4E487B7100000000000000000000000000000000000000000000000000000000 PUSH1 0x0 MSTORE PUSH1 0x22 PUSH1 0x4 MSTORE PUSH1 0x24 PUSH1 0x0 REVERT JUMPDEST PUSH32 0x4E487B7100000000000000000000000000000000000000000000000000000000 PUSH1 0x0 MSTORE PUSH1 0x41 PUSH1 0x4 MSTORE PUSH1 0x24 PUSH1 0x0 REVERT JUMPDEST PUSH1 0x0 DUP1 REVERT JUMPDEST PUSH1 0x0 DUP1 REVERT JUMPDEST PUSH1 0x0 DUP1 REVERT JUMPDEST PUSH1 0x0 DUP1 REVERT JUMPDEST PUSH1 0x0 PUSH1 0x1F NOT PUSH1 0x1F DUP4 ADD AND SWAP1 POP SWAP2 SWAP1 POP JUMP JUMPDEST PUSH2 0x35D DUP2 PUSH2 0x231 JUMP JUMPDEST DUP2 EQ PUSH2 0x368 JUMPI PUSH1 0x0 DUP1 REVERT JUMPDEST POP JUMP JUMPDEST PUSH2 0x330 DUP1 PUSH2 0x37A PUSH1 0x0 CODECOPY PUSH1 0x0 RETURN INVALID PUSH1 0x80 PUSH1 0x40 MSTORE CALLVALUE DUP1 ISZERO PUSH2 0x10 JUMPI PUSH1 0x0 DUP1 REVERT JUMPDEST POP PUSH1 0x4 CALLDATASIZE LT PUSH2 0x41 JUMPI PUSH1 0x0 CALLDATALOAD PUSH1 0xE0 SHR DUP1 PUSH4 0x97AC533 EQ PUSH2 0x46 JUMPI DUP1 PUSH4 0xA59A98C EQ PUSH2 0x64 JUMPI DUP1 PUSH4 0x3C84C5A5 EQ PUSH2 0x82 JUMPI JUMPDEST PUSH1 0x0 DUP1 REVERT JUMPDEST PUSH2 0x4E PUSH2 0xA0 JUMP JUMPDEST PUSH1 0x40 MLOAD PUSH2 0x5B SWAP2 SWAP1 PUSH2 0x1B4 JUMP JUMPDEST PUSH1 0x40 MLOAD DUP1 SWAP2 SUB SWAP1 RETURN JUMPDEST PUSH2 0x6C PUSH2 0xB6 JUMP JUMPDEST PUSH1 0x40 MLOAD PUSH2 0x79 SWAP2 SWAP1 PUSH2 0x192 JUMP JUMPDEST PUSH1 0x40 MLOAD DUP1 SWAP2 SUB SWAP1 RETURN JUMPDEST PUSH2 0x8A PUSH2 0x144 JUMP JUMPDEST PUSH1 0x40 MLOAD PUSH2 0x97 SWAP2 SWAP1 PUSH2 0x1B4 JUMP JUMPDEST PUSH1 0x40 MLOAD DUP1 SWAP2 SUB SWAP1 RETURN JUMPDEST PUSH1 0x0 PUSH1 0x64 PUSH1 0x1 SLOAD PUSH2 0xB1 SWAP2 SWAP1 PUSH2 0x1EB JUMP JUMPDEST SWAP1 POP SWAP1 JUMP JUMPDEST PUSH1 0x0 DUP1 SLOAD PUSH2 0xC3 SWAP1 PUSH2 0x259 JUMP JUMPDEST DUP1 PUSH1 0x1F ADD PUSH1 0x20 DUP1 SWAP2 DIV MUL PUSH1 0x20 ADD PUSH1 0x40 MLOAD SWAP1 DUP2 ADD PUSH1 0x40 MSTORE DUP1 SWAP3 SWAP2 SWAP1 DUP2 DUP2 MSTORE PUSH1 0x20 ADD DUP3 DUP1 SLOAD PUSH2 0xEF SWAP1 PUSH2 0x259 JUMP JUMPDEST DUP1 ISZERO PUSH2 0x13C JUMPI DUP1 PUSH1 0x1F LT PUSH2 0x111 JUMPI PUSH2 0x100 DUP1 DUP4 SLOAD DIV MUL DUP4 MSTORE SWAP2 PUSH1 0x20 ADD SWAP2 PUSH2 0x13C JUMP JUMPDEST DUP3 ADD SWAP2 SWAP1 PUSH1 0x0 MSTORE PUSH1 0x20 PUSH1 0x0 KECCAK256 SWAP1 JUMPDEST DUP2 SLOAD DUP2 MSTORE SWAP1 PUSH1 0x1 ADD SWAP1 PUSH1 0x20 ADD DUP1 DUP4 GT PUSH2 0x11F JUMPI DUP3 SWAP1 SUB PUSH1 0x1F AND DUP3 ADD SWAP2 JUMPDEST POP POP POP POP POP DUP2 JUMP JUMPDEST PUSH1 0x1 SLOAD DUP2 JUMP JUMPDEST PUSH1 0x0 PUSH2 0x155 DUP3 PUSH2 0x1CF JUMP JUMPDEST PUSH2 0x15F DUP2 DUP6 PUSH2 0x1DA JUMP JUMPDEST SWAP4 POP PUSH2 0x16F DUP2 DUP6 PUSH1 0x20 DUP7 ADD PUSH2 0x226 JUMP JUMPDEST PUSH2 0x178 DUP2 PUSH2 0x2E9 JUMP JUMPDEST DUP5 ADD SWAP2 POP POP SWAP3 SWAP2 POP POP JUMP JUMPDEST PUSH2 0x18C DUP2 PUSH2 0x21C JUMP JUMPDEST DUP3 MSTORE POP POP JUMP JUMPDEST PUSH1 0x0 PUSH1 0x20 DUP3 ADD SWAP1 POP DUP2 DUP2 SUB PUSH1 0x0 DUP4 ADD MSTORE PUSH2 0x1AC DUP2 DUP5 PUSH2 0x14A JUMP JUMPDEST SWAP1 POP SWAP3 SWAP2 POP POP JUMP JUMPDEST PUSH1 0x0 PUSH1 0x20 DUP3 ADD SWAP1 POP PUSH2 0x1C9 PUSH1 0x0 DUP4 ADD DUP5 PUSH2 0x183 JUMP JUMPDEST SWAP3 SWAP2 POP POP JUMP JUMPDEST PUSH1 0x0 DUP2 MLOAD SWAP1 POP SWAP2 SWAP1 POP JUMP JUMPDEST PUSH1 0x0 DUP3 DUP3 MSTORE PUSH1 0x20 DUP3 ADD SWAP1 POP SWAP3 SWAP2 POP POP JUMP JUMPDEST PUSH1 0x0 PUSH2 0x1F6 DUP3 PUSH2 0x21C JUMP JUMPDEST SWAP2 POP PUSH2 0x201 DUP4 PUSH2 0x21C JUMP JUMPDEST SWAP3 POP DUP3 PUSH2 0x211 JUMPI PUSH2 0x210 PUSH2 0x28B JUMP JUMPDEST JUMPDEST DUP3 DUP3 DIV SWAP1 POP SWAP3 SWAP2 POP POP JUMP JUMPDEST PUSH1 0x0 DUP2 SWAP1 POP SWAP2 SWAP1 POP JUMP JUMPDEST PUSH1 0x0 JUMPDEST DUP4 DUP2 LT ISZERO PUSH2 0x244 JUMPI DUP1 DUP3 ADD MLOAD DUP2 DUP5 ADD MSTORE PUSH1 0x20 DUP2 ADD SWAP1 POP PUSH2 0x229 JUMP JUMPDEST DUP4 DUP2 GT ISZERO PUSH2 0x253 JUMPI PUSH1 0x0 DUP5 DUP5 ADD MSTORE JUMPDEST POP POP POP POP JUMP JUMPDEST PUSH1 0x0 PUSH1 0x2 DUP3 DIV SWAP1 POP PUSH1 0x1 DUP3 AND DUP1 PUSH2 0x271 JUMPI PUSH1 0x7F DUP3 AND SWAP2 POP JUMPDEST PUSH1 0x20 DUP3 LT DUP2 EQ ISZERO PUSH2 0x285 JUMPI PUSH2 0x284 PUSH2 0x2BA JUMP JUMPDEST JUMPDEST POP SWAP2 SWAP1 POP JUMP JUMPDEST PUSH32 0x4E487B7100000000000000000000000000000000000000000000000000000000 PUSH1 0x0 MSTORE PUSH1 0x12 PUSH1 0x4 MSTORE PUSH1 0x24 PUSH1 0x0 REVERT JUMPDEST PUSH32 0x4E487B7100000000000000000000000000000000000000000000000000000000 PUSH1 0x0 MSTORE PUSH1 0x22 PUSH1 0x4 MSTORE PUSH1 0x24 PUSH1 0x0 REVERT JUMPDEST PUSH1 0x0 PUSH1 0x1F NOT PUSH1 0x1F DUP4 ADD AND SWAP1 POP SWAP2 SWAP1 POP JUMP INVALID LOG2 PUSH5 0x6970667358 0x22 SLT KECCAK256 0xD0 NUMBER 0x5E EXP 0xAE JUMPDEST CALLDATALOAD EXTCODEHASH 0xD9 OR 0xBE MUL 0x48 0x28 SHR 0x4B 0xC9 DUP16 LOG4 PUSH8 0x63BC90639D9D9029 0xD7 NUMBER 0x27 SWAP2 PUSH5 0x736F6C6343 STOP ADDMOD MOD STOP CALLER PUSH1 0x80 PUSH1 0x40 MSTORE CALLVALUE DUP1 ISZERO PUSH2 0x10 JUMPI PUSH1 0x0 DUP1 REVERT JUMPDEST POP PUSH1 0x40 MLOAD PUSH2 0x709 CODESIZE SUB DUP1 PUSH2 0x709 DUP4 CODECOPY DUP2 DUP2 ADD PUSH1 0x40 MSTORE DUP2 ADD SWAP1 PUSH2 0x32 SWAP2 SWAP1 PUSH2 0x197 JUMP JUMPDEST DUP3 PUSH1 0x0 DUP2 SWAP1 SSTORE POP DUP2 PUSH1 0x1 SWAP1 DUP1 MLOAD SWAP1 PUSH1 0x20 ADD SWAP1 PUSH2 0x4F SWAP3 SWAP2 SWAP1 PUSH2 0x6F JUMP JUMPDEST POP DUP1 PUSH1 0x2 SWAP1 DUP1 MLOAD SWAP1 PUSH1 0x20 ADD SWAP1 PUSH2 0x66 SWAP3 SWAP2 SWAP1 PUSH2 0x6F JUMP JUMPDEST POP POP POP POP PUSH2 0x3B2 JUMP JUMPDEST DUP3 DUP1 SLOAD PUSH2 0x7B SWAP1 PUSH2 0x2B5 JUMP JUMPDEST SWAP1 PUSH1 0x0 MSTORE PUSH1 0x20 PUSH1 0x0 KECCAK256 SWAP1 PUSH1 0x1F ADD PUSH1 0x20 SWAP1 DIV DUP2 ADD SWAP3 DUP3 PUSH2 0x9D JUMPI PUSH1 0x0 DUP6 SSTORE PUSH2 0xE4 JUMP JUMPDEST DUP3 PUSH1 0x1F LT PUSH2 0xB6 JUMPI DUP1 MLOAD PUSH1 0xFF NOT AND DUP4 DUP1 ADD OR DUP6 SSTORE PUSH2 0xE4 JUMP JUMPDEST DUP3 DUP1 ADD PUSH1 0x1 ADD DUP6 SSTORE DUP3 ISZERO PUSH2 0xE4 JUMPI SWAP2 DUP3 ADD JUMPDEST DUP3 DUP2 GT ISZERO PUSH2 0xE3 JUMPI DUP3 MLOAD DUP3 SSTORE SWAP2 PUSH1 0x20 ADD SWAP2 SWAP1 PUSH1 0x1 ADD SWAP1 PUSH2 0xC8 JUMP JUMPDEST JUMPDEST POP SWAP1 POP PUSH2 0xF1 SWAP2 SWAP1 PUSH2 0xF5 JUMP JUMPDEST POP SWAP1 JUMP JUMPDEST JUMPDEST DUP1 DUP3 GT ISZERO PUSH2 0x10E JUMPI PUSH1 0x0 DUP2 PUSH1 0x0 SWAP1 SSTORE POP PUSH1 0x1 ADD PUSH2 0xF6 JUMP JUMPDEST POP SWAP1 JUMP JUMPDEST PUSH1 0x0 PUSH2 0x125 PUSH2 0x120 DUP5 PUSH2 0x247 JUMP JUMPDEST PUSH2 0x222 JUMP JUMPDEST SWAP1 POP DUP3 DUP2 MSTORE PUSH1 0x20 DUP2 ADD DUP5 DUP5 DUP5 ADD GT ISZERO PUSH2 0x141 JUMPI PUSH2 0x140 PUSH2 0x37B JUMP JUMPDEST JUMPDEST PUSH2 0x14C DUP5 DUP3 DUP6 PUSH2 0x282 JUMP JUMPDEST POP SWAP4 SWAP3 POP POP POP JUMP JUMPDEST PUSH1 0x0 DUP3 PUSH1 0x1F DUP4 ADD SLT PUSH2 0x169 JUMPI PUSH2 0x168 PUSH2 0x376 JUMP JUMPDEST JUMPDEST DUP2 MLOAD PUSH2 0x179 DUP5 DUP3 PUSH1 0x20 DUP7 ADD PUSH2 0x112 JUMP JUMPDEST SWAP2 POP POP SWAP3 SWAP2 POP POP JUMP JUMPDEST PUSH1 0x0 DUP2 MLOAD SWAP1 POP PUSH2 0x191 DUP2 PUSH2 0x39B JUMP JUMPDEST SWAP3 SWAP2 POP POP JUMP JUMPDEST PUSH1 0x0 DUP1 PUSH1 0x0 PUSH1 0x60 DUP5 DUP7 SUB SLT ISZERO PUSH2 0x1B0 JUMPI PUSH2 0x1AF PUSH2 0x385 JUMP JUMPDEST JUMPDEST PUSH1 0x0 PUSH2 0x1BE DUP7 DUP3 DUP8 ADD PUSH2 0x182 JUMP JUMPDEST SWAP4 POP POP PUSH1 0x20 DUP5 ADD MLOAD PUSH8 0xFFFFFFFFFFFFFFFF DUP2 GT ISZERO PUSH2 0x1DF JUMPI PUSH2 0x1DE PUSH2 0x380 JUMP JUMPDEST JUMPDEST PUSH2 0x1EB DUP7 DUP3 DUP8 ADD PUSH2 0x154 JUMP JUMPDEST SWAP3 POP POP PUSH1 0x40 DUP5 ADD MLOAD PUSH8 0xFFFFFFFFFFFFFFFF DUP2 GT ISZERO PUSH2 0x20C JUMPI PUSH2 0x20B PUSH2 0x380 JUMP JUMPDEST JUMPDEST PUSH2 0x218 DUP7 DUP3 DUP8 ADD PUSH2 0x154 JUMP JUMPDEST SWAP2 POP POP SWAP3 POP SWAP3 POP SWAP3 JUMP JUMPDEST PUSH1 0x0 PUSH2 0x22C PUSH2 0x23D JUMP JUMPDEST SWAP1 POP PUSH2 0x238 DUP3 DUP3 PUSH2 0x2E7 JUMP JUMPDEST SWAP2 SWAP1 POP JUMP JUMPDEST PUSH1 0x0 PUSH1 0x40 MLOAD SWAP1 POP SWAP1 JUMP JUMPDEST PUSH1 0x0 PUSH8 0xFFFFFFFFFFFFFFFF DUP3 GT ISZERO PUSH2 0x262 JUMPI PUSH2 0x261 PUSH2 0x347 JUMP JUMPDEST JUMPDEST PUSH2 0x26B DUP3 PUSH2 0x38A JUMP JUMPDEST SWAP1 POP PUSH1 0x20 DUP2 ADD SWAP1 POP SWAP2 SWAP1 POP JUMP JUMPDEST PUSH1 0x0 DUP2 SWAP1 POP SWAP2 SWAP1 POP JUMP JUMPDEST PUSH1 0x0 JUMPDEST DUP4 DUP2 LT ISZERO PUSH2 0x2A0 JUMPI DUP1 DUP3 ADD MLOAD DUP2 DUP5 ADD MSTORE PUSH1 0x20 DUP2 ADD SWAP1 POP PUSH2 0x285 JUMP JUMPDEST DUP4 DUP2 GT ISZERO PUSH2 0x2AF JUMPI PUSH1 0x0 DUP5 DUP5 ADD MSTORE JUMPDEST POP POP POP POP JUMP JUMPDEST PUSH1 0x0 PUSH1 0x2 DUP3 DIV SWAP1 POP PUSH1 0x1 DUP3 AND DUP1 PUSH2 0x2CD JUMPI PUSH1 0x7F DUP3 AND SWAP2 POP JUMPDEST PUSH1 0x20 DUP3 LT DUP2 EQ ISZERO PUSH2 0x2E1 JUMPI PUSH2 0x2E0 PUSH2 0x318 JUMP JUMPDEST JUMPDEST POP SWAP2 SWAP1 POP JUMP JUMPDEST PUSH2 0x2F0 DUP3 PUSH2 0x38A JUMP JUMPDEST DUP2 ADD DUP2 DUP2 LT PUSH8 0xFFFFFFFFFFFFFFFF DUP3 GT OR ISZERO PUSH2 0x30F JUMPI PUSH2 0x30E PUSH2 0x347 JUMP JUMPDEST JUMPDEST DUP1 PUSH1 0x40 MSTORE POP POP POP JUMP JUMPDEST PUSH32 0x4E487B7100000000000000000000000000000000000000000000000000000000 PUSH1 0x0 MSTORE PUSH1 0x22 PUSH1 0x4 MSTORE PUSH1 0x24 PUSH1 0x0 REVERT JUMPDEST PUSH32 0x4E487B7100000000000000000000000000000000000000000000000000000000 PUSH1 0x0 MSTORE PUSH1 0x41 PUSH1 0x4 MSTORE PUSH1 0x24 PUSH1 0x0 REVERT JUMPDEST PUSH1 0x0 DUP1 REVERT JUMPDEST PUSH1 0x0 DUP1 REVERT JUMPDEST PUSH1 0x0 DUP1 REVERT JUMPDEST PUSH1 0x0 DUP1 REVERT JUMPDEST PUSH1 0x0 PUSH1 0x1F NOT PUSH1 0x1F DUP4 ADD AND SWAP1 POP SWAP2 SWAP1 POP JUMP JUMPDEST PUSH2 0x3A4 DUP2 PUSH2 0x278 JUMP JUMPDEST DUP2 EQ PUSH2 0x3AF JUMPI PUSH1 0x0 DUP1 REVERT JUMPDEST POP JUMP JUMPDEST PUSH2 0x348 DUP1 PUSH2 0x3C1 PUSH1 0x0 CODECOPY PUSH1 0x0 RETURN INVALID PUSH1 0x80 PUSH1 0x40 MSTORE CALLVALUE DUP1 ISZERO PUSH2 0x10 JUMPI PUSH1 0x0 DUP1 REVERT JUMPDEST POP PUSH1 0x4 CALLDATASIZE LT PUSH2 0x41 JUMPI PUSH1 0x0 CALLDATALOAD PUSH1 0xE0 SHR DUP1 PUSH4 0x6FDDE03 EQ PUSH2 0x46 JUMPI DUP1 PUSH4 0x820E93F5 EQ PUSH2 0x64 JUMPI DUP1 PUSH4 0xAF640D0F EQ PUSH2 0x82 JUMPI JUMPDEST PUSH1 0x0 DUP1 REVERT JUMPDEST PUSH2 0x4E PUSH2 0xA0 JUMP JUMPDEST PUSH1 0x40 MLOAD PUSH2 0x5B SWAP2 SWAP1 PUSH2 0x20A JUMP JUMPDEST PUSH1 0x40 MLOAD DUP1 SWAP2 SUB SWAP1 RETURN JUMPDEST PUSH2 0x6C PUSH2 0x12E JUMP JUMPDEST PUSH1 0x40 MLOAD PUSH2 0x79 SWAP2 SWAP1 PUSH2 0x20A JUMP JUMPDEST PUSH1 0x40 MLOAD DUP1 SWAP2 SUB SWAP1 RETURN JUMPDEST PUSH2 0x8A PUSH2 0x1BC JUMP JUMPDEST PUSH1 0x40 MLOAD PUSH2 0x97 SWAP2 SWAP1 PUSH2 0x22C JUMP JUMPDEST PUSH1 0x40 MLOAD DUP1 SWAP2 SUB SWAP1 RETURN JUMPDEST PUSH1 0x1 DUP1 SLOAD PUSH2 0xAD SWAP1 PUSH2 0x2A0 JUMP JUMPDEST DUP1 PUSH1 0x1F ADD PUSH1 0x20 DUP1 SWAP2 DIV MUL PUSH1 0x20 ADD PUSH1 0x40 MLOAD SWAP1 DUP2 ADD PUSH1 0x40 MSTORE DUP1 SWAP3 SWAP2 SWAP1 DUP2 DUP2 MSTORE PUSH1 0x20 ADD DUP3 DUP1 SLOAD PUSH2 0xD9 SWAP1 PUSH2 0x2A0 JUMP JUMPDEST DUP1 ISZERO PUSH2 0x126 JUMPI DUP1 PUSH1 0x1F LT PUSH2 0xFB JUMPI PUSH2 0x100 DUP1 DUP4 SLOAD DIV MUL DUP4 MSTORE SWAP2 PUSH1 0x20 ADD SWAP2 PUSH2 0x126 JUMP JUMPDEST DUP3 ADD SWAP2 SWAP1 PUSH1 0x0 MSTORE PUSH1 0x20 PUSH1 0x0 KECCAK256 SWAP1 JUMPDEST DUP2 SLOAD DUP2 MSTORE SWAP1 PUSH1 0x1 ADD SWAP1 PUSH1 0x20 ADD DUP1 DUP4 GT PUSH2 0x109 JUMPI DUP3 SWAP1 SUB PUSH1 0x1F AND DUP3 ADD SWAP2 JUMPDEST POP POP POP POP POP DUP2 JUMP JUMPDEST PUSH1 0x2 DUP1 SLOAD PUSH2 0x13B SWAP1 PUSH2 0x2A0 JUMP JUMPDEST DUP1 PUSH1 0x1F ADD PUSH1 0x20 DUP1 SWAP2 DIV MUL PUSH1 0x20 ADD PUSH1 0x40 MLOAD SWAP1 DUP2 ADD PUSH1 0x40 MSTORE DUP1 SWAP3 SWAP2 SWAP1 DUP2 DUP2 MSTORE PUSH1 0x20 ADD DUP3 DUP1 SLOAD PUSH2 0x167 SWAP1 PUSH2 0x2A0 JUMP JUMPDEST DUP1 ISZERO PUSH2 0x1B4 JUMPI DUP1 PUSH1 0x1F LT PUSH2 0x189 JUMPI PUSH2 0x100 DUP1 DUP4 SLOAD DIV MUL DUP4 MSTORE SWAP2 PUSH1 0x20 ADD SWAP2 PUSH2 0x1B4 JUMP JUMPDEST DUP3 ADD SWAP2 SWAP1 PUSH1 0x0 MSTORE PUSH1 0x20 PUSH1 0x0 KECCAK256 SWAP1 JUMPDEST DUP2 SLOAD DUP2 MSTORE SWAP1 PUSH1 0x1 ADD SWAP1 PUSH1 0x20 ADD DUP1 DUP4 GT PUSH2 0x197 JUMPI DUP3 SWAP1 SUB PUSH1 0x1F AND DUP3 ADD SWAP2 JUMPDEST POP POP POP POP POP DUP2 JUMP JUMPDEST PUSH1 0x0 SLOAD DUP2 JUMP JUMPDEST PUSH1 0x0 PUSH2 0x1CD DUP3 PUSH2 0x247 JUMP JUMPDEST PUSH2 0x1D7 DUP2 DUP6 PUSH2 0x252 JUMP JUMPDEST SWAP4 POP PUSH2 0x1E7 DUP2 DUP6 PUSH1 0x20 DUP7 ADD PUSH2 0x26D JUMP JUMPDEST PUSH2 0x1F0 DUP2 PUSH2 0x301 JUMP JUMPDEST DUP5 ADD SWAP2 POP POP SWAP3 SWAP2 POP POP JUMP JUMPDEST PUSH2 0x204 DUP2 PUSH2 0x263 JUMP JUMPDEST DUP3 MSTORE POP POP JUMP JUMPDEST PUSH1 0x0 PUSH1 0x20 DUP3 ADD SWAP1 POP DUP2 DUP2 SUB PUSH1 0x0 DUP4 ADD MSTORE PUSH2 0x224 DUP2 DUP5 PUSH2 0x1C2 JUMP JUMPDEST SWAP1 POP SWAP3 SWAP2 POP POP JUMP JUMPDEST PUSH1 0x0 PUSH1 0x20 DUP3 ADD SWAP1 POP PUSH2 0x241 PUSH1 0x0 DUP4 ADD DUP5 PUSH2 0x1FB JUMP JUMPDEST SWAP3 SWAP2 POP POP JUMP JUMPDEST PUSH1 0x0 DUP2 MLOAD SWAP1 POP SWAP2 SWAP1 POP JUMP JUMPDEST PUSH1 0x0 DUP3 DUP3 MSTORE PUSH1 0x20 DUP3 ADD SWAP1 POP SWAP3 SWAP2 POP POP JUMP JUMPDEST PUSH1 0x0 DUP2 SWAP1 POP SWAP2 SWAP1 POP JUMP JUMPDEST PUSH1 0x0 JUMPDEST DUP4 DUP2 LT ISZERO PUSH2 0x28B JUMPI DUP1 DUP3 ADD MLOAD DUP2 DUP5 ADD MSTORE PUSH1 0x20 DUP2 ADD SWAP1 POP PUSH2 0x270 JUMP JUMPDEST DUP4 DUP2 GT ISZERO PUSH2 0x29A JUMPI PUSH1 0x0 DUP5 DUP5 ADD MSTORE JUMPDEST POP POP POP POP JUMP JUMPDEST PUSH1 0x0 PUSH1 0x2 DUP3 DIV SWAP1 POP PUSH1 0x1 DUP3 AND DUP1 PUSH2 0x2B8 JUMPI PUSH1 0x7F DUP3 AND SWAP2 POP JUMPDEST PUSH1 0x20 DUP3 LT DUP2 EQ ISZERO PUSH2 0x2CC JUMPI PUSH2 0x2CB PUSH2 0x2D2 JUMP JUMPDEST JUMPDEST POP SWAP2 SWAP1 POP JUMP JUMPDEST PUSH32 0x4E487B7100000000000000000000000000000000000000000000000000000000 PUSH1 0x0 MSTORE PUSH1 0x22 PUSH1 0x4 MSTORE PUSH1 0x24 PUSH1 0x0 REVERT JUMPDEST PUSH1 0x0 PUSH1 0x1F NOT PUSH1 0x1F DUP4 ADD AND SWAP1 POP SWAP2 SWAP1 POP JUMP INVALID LOG2 PUSH5 0x6970667358 0x22 SLT KECCAK256 SAR 0xE 0x26 SWAP6 0xAE CODECOPY 0x49 0xD 0x2D SWAP11 DUP2 SWAP9 0x48 GASLIMIT CODECOPY DUP4 SWAP9 0xC4 0xA8 SSTORE 0xB4 0xFC 0x4E 0xBE 0xB0 SSTORE PUSH28 0xF97DD79E2964736F6C63430008060033A26469706673582212202781 0xE2 DUP10 PUSH19 0x966AE4D14D98668F138A54E25B1D36969C0CDF MSIZE 0x2A NOT OR 0xEA DELEGATECALL PUSH8 0x9D64736F6C634300 ADDMOD MOD STOP CALLER "
		},
		"gasEstimates": {
			"creation": {
				"codeDepositCost": "1563800",
				"executionCost": "25904",
				"totalCost": "1589704"
			},
			"external": {
				"_owner()": "2533",
				"addMarks(uint256,string,uint256)": "infinite",
				"createStudent(uint256,uint256,string,string)": "infinite",
				"getMarks(uint256)": "infinite",
				"getStudent(uint256)": "2959",
				"isOwner()": "2496",
				"students(uint256)": "infinite"
			}
		},
		"methodIdentifiers": {
			"_owner()": "b2bdfa7b",
			"addMarks(uint256,string,uint256)": "bb9f4bd4",
			"createStudent(uint256,uint256,string,string)": "cb0c7c0c",
			"getMarks(uint256)": "0e6573b6",
			"getStudent(uint256)": "642f9163",
			"isOwner()": "8f32d59b",
			"students(uint256)": "06ead22e"
		}
	},
	"abi": [
		{
			"anonymous": false,
			"inputs": [
				{
					"indexed": false,
					"internalType": "uint256",
					"name": "_itemIndex",
					"type": "uint256"
				},
				{
					"indexed": false,
					"internalType": "uint256",
					"name": "_grade",
					"type": "uint256"
				},
				{
					"indexed": false,
					"internalType": "address",
					"name": "_stuAddress",
					"type": "address"
				}
			],
			"name": "StudentChainStep",
			"type": "event"
		},
		{
			"inputs": [],
			"name": "_owner",
			"outputs": [
				{
					"internalType": "address",
					"name": "",
					"type": "address"
				}
			],
			"stateMutability": "view",
			"type": "function"
		},
		{
			"inputs": [
				{
					"internalType": "uint256",
					"name": "stuIndex",
					"type": "uint256"
				},
				{
					"internalType": "string",
					"name": "subject",
					"type": "string"
				},
				{
					"internalType": "uint256",
					"name": "score",
					"type": "uint256"
				}
			],
			"name": "addMarks",
			"outputs": [],
			"stateMutability": "nonpayable",
			"type": "function"
		},
		{
			"inputs": [
				{
					"internalType": "uint256",
					"name": "stuIndex",
					"type": "uint256"
				},
				{
					"internalType": "uint256",
					"name": "id",
					"type": "uint256"
				},
				{
					"internalType": "string",
					"name": "name",
					"type": "string"
				},
				{
					"internalType": "string",
					"name": "email",
					"type": "string"
				}
			],
			"name": "createStudent",
			"outputs": [],
			"stateMutability": "nonpayable",
			"type": "function"
		},
		{
			"inputs": [
				{
					"internalType": "uint256",
					"name": "idx",
					"type": "uint256"
				}
			],
			"name": "getMarks",
			"outputs": [
				{
					"internalType": "contract Mark[]",
					"name": "",
					"type": "address[]"
				}
			],
			"stateMutability": "nonpayable",
			"type": "function"
		},
		{
			"inputs": [
				{
					"internalType": "uint256",
					"name": "idx",
					"type": "uint256"
				}
			],
			"name": "getStudent",
			"outputs": [
				{
					"internalType": "contract Student",
					"name": "",
					"type": "address"
				}
			],
			"stateMutability": "nonpayable",
			"type": "function"
		},
		{
			"inputs": [],
			"name": "isOwner",
			"outputs": [
				{
					"internalType": "bool",
					"name": "",
					"type": "bool"
				}
			],
			"stateMutability": "view",
			"type": "function"
		},
		{
			"inputs": [
				{
					"internalType": "uint256",
					"name": "",
					"type": "uint256"
				}
			],
			"name": "students",
			"outputs": [
				{
					"internalType": "contract Student",
					"name": "_student",
					"type": "address"
				},
				{
					"internalType": "string",
					"name": "_dept",
					"type": "string"
				},
				{
					"internalType": "enum StudentManager.GradeState",
					"name": "_gState",
					"type": "uint8"
				}
			],
			"stateMutability": "view",
			"type": "function"
		}
	]
}